:100000000C9450000C946F060C948F060C946D00A9
:100010000C946D000C946D000C946D000C946D00AC
:100020000C946D000C946D000C946D000C94A9015F
:100030000C946D000C946D000C946D000C946D008C
:100040000C946D000C946D000C946D000C946D007C
:100050000C946D000C946D000C946D000C946D006C
:100060000C946D000C946D005208B608B608B608E2
:10007000B6081A09980814055E065E065E065E0656
:100080005E067805B004C102C102C102C102C1020C
:10009000B0044D03670267026702670267024D03FF
:1000A00011241FBECFEFD4E0DEBFCDBF11E0A0E032
:1000B000B1E0EAE3F2E202C005900D92A632B10788
:1000C000D9F711E0A6E2B1E001C01D92AA3AB1074A
:1000D000E1F70E94DA090C941B110C940000579A66
:1000E000209A5F982898089580933601089587ECA8
:1000F00090E00197F1F700C0000008955F9A289AF8
:100100008AE08A95F1F700C0289808955F988AE000
:100110008A95F1F700C028988AE08A95F1F700C027
:100120005F9A8AE08A95F1F700C0289A089598E0CE
:100130000BC0289A20E12A95F1F786955F9A20E175
:100140002A95F1F7915029F05F9880FDF2CF289819
:10015000F1CF08958F70E82FF0E0E15FFE4F8081CE
:1001600008955F988AE18A95F1F700C020988AE1A6
:100170008A95F1F700C0209A5F9A8AE08A95F1F794
:1001800000C05F980895EF92FF920F931F93CF9353
:10019000DF9300D0CDB7DEB7182F062F5F9A289ACD
:1001A0008AE08A95F1F700C0289880E449839A8311
:1001B0000E9497000E9486000E94B1000E94860063
:1001C0005F9A289AEAE0EA95F1F700C028984981F9
:1001D000842F837080540E9497000E94B1009A81FE
:1001E000002369F0E12EF92E10E0F70181917F01E3
:1001F0000E9497000E94B1001F5F1013F6CF0E946B
:1002000086005F9A289AFAE0FA95F1F700C02898DC
:100210008FE80E9497000E94B1000F900F90DF912D
:10022000CF911F910F91FF90EF900C9486008F92C9
:100230009F92AF92BF92CF92DF92EF92FF920F9375
:100240001F93CF93DF9300D000D0CDB7DEB76C0102
:10025000962E342F0FE011E0CE0101965C01FC01D7
:1002600041E08FE3882ED801FE90EE908D01C6010B
:10027000B7010E94A80A6115710551F591103AC0A5
:100280004423C1F18E2F8A198330A1F1108241E0FD
:100290003196B1E007301B0731F784E090E0831B13
:1002A0009109422F632F8A0D9B1D0E94C3000F905E
:1002B0000F900F900F90DF91CF911F910F91FF90B2
:1002C000EF90DF90CF90BF90AF909F908F90089568
:1002D000A62FAF70B0E0A15FBE4F8C9180836E9D62
:1002E000C0016F9D900D7E9D900D1124C81AD90AF2
:1002F00040E0CECF8082CCCFCF93DF9300D000D030
:10030000CDB7DEB719821A821B821C82482FCE011C
:1003100001960E94C3000F900F900F900F90DF91F5
:10032000CF91089510923701E1E8F0E080818B6071
:100330008083109285001092840087EA91E6909362
:10034000890080938800EFE6F0E0808182608083FE
:1003500008951F920F920FB60F9211248F939F93BF
:10036000AF93BF93EF93FF93AFE3B1E0EBE3F1E023
:100370008C91811105C08081918101979183808347
:100380001896389681E0EB38F80791F7FF91EF91D6
:10039000BF91AF919F918F910F900FBE0F901F90C3
:1003A0001895E8E3F1E0AFE3B1E082E01082128259
:1003B000118214821382168215828C9338961896B5
:1003C00091E0E838F90791F70895EFE3F1E020E0D4
:1003D00030E006C02F5F3F4F38962A303105A9F034
:1003E00090819230B9F7F901EE0FFF1FEE0FFF1F5A
:1003F000EE0FFF1FE85CFE4F80837283618354839E
:10040000438356834583178208950895E8E3F1E016
:1004100020E030E09081981739F02F5F3F4F3896F9
:100420002A303105B9F70895F901EE0FFF1FEE0FDD
:10043000FF1FEE0FFF1FE85CFE4F82E087830895E9
:10044000E8E3F1E020E030E09081981741F02F5F81
:100450003F4F38962A303105B9F783E00895F90106
:10046000EE0FFF1FEE0FFF1FEE0FFF1FE85CFE4FAA
:1004700087810895FF920F931F93CF93DF93CFE36C
:10048000D1E009E311E0FF24F39407C02896085F48
:100490001F4FF1E0CF38DF07D9F0D80112968D91C8
:1004A0009C911397892B91F788818111EFCFF88266
:1004B000ED91FC910995F801848195819383828364
:1004C00018822896085F1F4FF1E0CF38DF0729F721
:1004D000DF91CF911F910F91FF90089585B18170A9
:1004E00085B98BB180788BB9209857980895579823
:1004F00085E090E00197F1F7209A85E090E0019780
:10050000F1F70895209A85E090E00197F1F7579868
:1005100083E090E00197F1F7209885E090E0019763
:10052000F1F7089598E043E050E025E030E0579A75
:10053000FA013197F1F787FD25C0209AF90131972B
:10054000F1F75798F9013197F1F74F9BFECF880FDC
:10055000915069F7579A83E090E00197F1F720985E
:1005600085E090E00197F1F7579885E090E00197DA
:10057000F1F783B1579AE5E0F0E03197F1F7809514
:10058000817008952098DACF982F20E030E080E045
:1005900045E050E0A0E8B0E0579AFA013197F1F752
:1005A0005798FA013197F1F74F9BFECF189B08C07F
:1005B000BD01022E02C0759567950A94E2F7862B5D
:1005C0002F5F3F4F2830310539F7579AE3E0F0E0CD
:1005D0003197F1F7911110C02098E5E0F0E03197E4
:1005E000F1F75798E5E0F0E03197F1F7579AE5E039
:1005F000F0E03197F1F70895209AEFCF3D983C98BD
:1006000080E090E00000000001968A319105D1F76A
:100610003C9A80E090E00000000001968A3191054C
:10062000D1F73D9A80E090E00000000001968A3109
:100630009105D1F708953C9A3D9880E090E0000044
:10064000000001968A319105D1F73C9880E090E056
:100650000000000001968A319105D1F73D9A80E0B3
:1006600090E00000000001968A319105D1F70895CD
:10067000449845983D983C9880E090E00000000048
:100680000196883C24E19207C9F70E94FE0280E0AF
:1006900090E0000000000196883C24E19207C9F731
:1006A0000E941B0380E090E0000000000196883C5F
:1006B00024E19207C9F70895982F88E097FD40C07C
:1006C0003C9A3D9820E030E0000000002F5F3F4F53
:1006D0002A313105C9F73D9A20E030E000000000E2
:1006E0002F5F3F4F2A313105C9F7990F815031F7FC
:1006F0003D983C9820E030E0000000002F5F3F4F25
:100700002A313105C9F734991DC03D9A20E030E007
:10071000000000002F5F3F4F2A313105C9F734999F
:100720001FC080E090E0000000000196883C24E1BA
:100730009207C9F786B18295817091E08927089563
:100740003C98BFCF20E030E0000000002F5F3F4F1B
:10075000283C94E13907C1F7349B03C082E0089537
:1007600008953D9A20E030E0000000002F5F3F4FE9
:100770002A313105C9F7349BD4CFF2CF482F3C98AA
:1007800098E080E03D9820E030E0000000002F5F1E
:100790003F4F2A313105C9F7880F34998F5F3D9A51
:1007A00020E030E0000000002F5F3F4F2A3131058C
:1007B000C9F7915039F74130B1F03C983D9820E0AD
:1007C00030E0000000002F5F3F4F2A313105C9F7AC
:1007D0003D9A20E030E0000000002F5F3F4F2A31BB
:1007E0003105C9F708953C9AE9CF1F93CF93DF9362
:1007F0001F92CDB7DEB7182F0E94FE0280ED0E9437
:100800005C03812F0E945C030E94FE020E94FE0294
:1008100081ED0E945C0380E00E94BE0389830E94F8
:100820001B0389810F90DF91CF911F9108951F9332
:10083000CF93DF931F92CDB7DEB7182F69830E9445
:10084000FE0280ED0E945C03812F0E945C0369819F
:10085000862F0E945C030E941B0380E090E00F90B3
:10086000DF91CF911F910895CF92DF92EF92FF9287
:100870000F931F93CF93DF931F92CDB7DEB7F82E60
:10088000E62E1F924F930FE111E01F930F938AE81A
:10089000C82E81E0D82EDF92CF9229830E944A0E83
:1008A00060918B016295607F30918C013053632B96
:1008B00080E00E9417041F92EF921F930F93DF9224
:1008C000CF920E944A0E60918B016295607F909159
:1008D0008C019053692B81E00E9417041F92FF92B4
:1008E0001F930F93DF92CF920E944A0E0FB6F89497
:1008F000DEBF0FBECDBF298180918C018053213096
:1009000091F0806460918B016295607F682B82E03A
:100910000F90DF91CF911F910F91FF90EF90DF909B
:10092000CF900C9417048066EDCF82E00E94F5030F
:1009300086FD0EC0282F2695269526952670922F87
:10094000990F990F920F8F70980F892F90E008954B
:1009500084FB222720F9220FF2CF81E00E94F503C9
:10096000282F2695269526952E70922F990F990F50
:10097000920F8F70980F892F90E0089580E00E9469
:10098000F503282F2695269526952E70922F990FE0
:10099000990F920F8F70980F892F90E008958F9282
:1009A0009F92BF92CF92DF92EF92FF920F931F938D
:1009B000CF93DF931F92CDB7DEB7B62E1F928F93E2
:1009C0000FE111E01F930F939AE8892E91E0992E81
:1009D0009F928F9249830E944A0E2BE8C22E21E0FB
:1009E000D22EF60160816295607F3CE8E32E31E013
:1009F000F32EF70190819053692B84E00E94170435
:100A00001F92BF921F930F939F928F920E944A0E44
:100A1000F60160816295607FF70180818053682BC9
:100A200085E00E9417041F9249814F931F930F93F3
:100A30009F928F920E944A0E0FB6F894DEBF0FBEAF
:100A4000CDBFF60160816295607FF70180818053A0
:100A5000682B86E00F90DF91CF911F910F91FF904F
:100A6000EF90DF90CF90BF909F908F900C941704E1
:100A700084E00E94F503982F92959F708F702AE072
:100A8000929F800D112490E0089583E00E94F50369
:100A9000982F92959F708F702AE0929F800D11245D
:100AA00090E0089585E00E94F503982F92959F703D
:100AB0008F702AE0929F800D112490E0089586E0C7
:100AC0000E94F503982F92959F708F702AE0929F55
:100AD000800D112490E00895982F92959F708F704B
:100AE0002AE0929F800D11240895CF9380E00E9408
:100AF000F503282F30E03093890120938801982F47
:100B00009F70905D90939101807782958F70805D4A
:100B100080939001CAE3C0938F0181E00E94F503A6
:100B2000282F30E03093890120938801982F9F70FF
:100B3000905D90938E01807782958F70805D809319
:100B40008D01C0938C0182E00E94F503282F30E0D4
:100B50003093890120938801982F9F70905D909326
:100B60008B0182958170805D80938A01CF91089579
:100B700064E070E080E090E00E947C010E949504B7
:100B80000A9704F10E94950420E042E060E00E9490
:100B900017010E94AD040A973CF00E94AD0422E0C8
:100BA00042E060E00C94170122E041E060E080E068
:100BB00090E00E9417010E94AD0423E041E060E054
:100BC0000C94170120E041E060E080E090E00E949A
:100BD0001701D8CF0E941F06559A5D9A0895CF93AA
:100BE000DF9300D0CDB7DEB719821A825D9885E316
:100BF0008A95F1F7000042E0BE016F5F7F4FCB01A5
:100C00000E942C0685E38A95F1F700005D9A6981C0
:100C100070E0762F66278A81680F711D882777FD1F
:100C20008095982F0E94C30B20E030E040E05DE308
:100C30000E94530C0F900F90DF91CF91089584B1D3
:100C4000877C84B984B1886284B9229A2A9A81E522
:100C50008CBD81E08DBD0895442371F0282FDB0108
:100C6000FC0181918EBD0DB407FEFDCF8EB58D9335
:100C70008E2F821B8417A8F30895662359F0282F1E
:100C8000FC0181918EBD0DB407FEFDCF8E2F821B1E
:100C90008617B8F308958EBD0DB407FEFDCF8EB54F
:100CA0000895529854985A985C98E9E6F0E080814B
:100CB0008A6080838DB383608DBB89E190E00E9460
:100CC000230D90932B0180932A010895E9E6F0E02B
:100CD00080818A6080838DB383608DBB08951F926D
:100CE0000F920FB60F9211248F939F934A9911C0C0
:100CF00089B18295817091E089278093920181E08A
:100D0000809393019F918F910F900FBE0F901F9032
:100D1000189589B18295817080939201F0CF1F92CE
:100D20000F920FB60F9211242F933F934F938F93EF
:100D30009F93AF93BF93EF93FF9320912A0130913C
:100D40002B019091270180913701F90145E0949F93
:100D5000E00DF11D112490E0A0E0B0E080839183CC
:100D6000A283B38380912701F90195E0899FE00D6B
:100D7000F11D112481E08483809127018F5F80938E
:100D8000270180912701853011F410922701FF91EE
:100D9000EF91BF91AF919F918F914F913F912F9183
:100DA0000F900FBE0F901F901895CF93DF93F8947C
:100DB0001092290110922801A0912A01B0912B01D3
:100DC00080E090E09C01220F331F220F331F280F79
:100DD000391FFD01E20FF31F44814130F1F001960C
:100DE0008530910544F48430910561F758968C91D3
:100DF00058978130E1F080E090E0FD01E80FF91FA5
:100E00001482108211821282138205968931910513
:100E1000A1F77894DF91CF910895E9012596CA0F43
:100E2000DB1F6C81613059F040932901D8CF1496B3
:100E30009C9114979130D1F080932901DCCF2881C7
:100E4000398140815181241B350B273031055CF4F9
:100E50006093280128B1262728B90196A0912A017C
:100E6000B0912B01BCCF60932901B9CF8C915496DE
:100E70009C915497891B992787FD909597FD11C0E8
:100E800087305CF491E09093280188B1892788B974
:100E9000A0912A01B0912B01AECF81E0809329016E
:100EA000AACF919581959109EBCF80912901882353
:100EB00079F080912601811122C081E08093260182
:100EC00090912E01911128C080932E0181E0089508
:100ED00080912601882391F080912801882371F068
:100EE00081E090912F01911180E080932F0181E0AA
:100EF00090912E01911180E080932E01089510921F
:100F0000260181E090912E0191110BC080932E015A
:100F100010922F0180E0089580E080932E0181E0FF
:100F2000089580E080932E0110922F0180E00895B3
:100F3000811105C010922F0110922E010895809109
:100F40002801811108C081E090912E0191110BC000
:100F500080932E01089581E090912F01911180E0FE
:100F600080932F01089580E080932E010895809151
:100F700026010895CF93DF93FB01E9011A821B82BA
:100F80001C821D82198218829F838E8379876887CD
:100F90005B874A87BC016F5F7F4F8FEF9FE70E949F
:100FA000A80A7D876C879F012F5F3F4F442737FD3D
:100FB0004095542F6FEF7FEF8FEF9FE30E94BC0AA5
:100FC0002E873F87488B598BDF91CF9108958F9261
:100FD0009F92AF92BF92CF92DF92EF92FF92CF9308
:100FE000DF93EB01FA019C01261B370B8485958565
:100FF000821793077CF091958195910928173907FD
:101000000CF091C08824839440E8942EAA24AA94DA
:10101000BA2C06C088248A945FE7952EA12CB12CA7
:10102000442737FD4095542F82819381A481B58157
:10103000280F391F4A1F5B1FC684D784E088F188B8
:10104000C216D306E406F5060CF04EC0C282D38267
:10105000E482F5826FEF7FEF8FEF9FE32081318194
:101060002C1B3D0BA285B3852A9FA0012B9F500D01
:101070003A9F500D1124D183C083DC01CB01880D30
:10108000991DAA1DBB1D662757FD6095762F840FFD
:10109000951FA61FB71FB7FD54C027E0B595A795AC
:1010A000979587952A95D1F7813020E892072FEF01
:1010B000A207B20724F481E090E8AFEFBFEF8115FB
:1010C00020E89207A105B10524F08FEF9FE7A0E08B
:1010D000B0E0DF91CF91FF90EF90DF90CF90BF9085
:1010E000AF909F908F900895F094E094D094C09426
:1010F000C11CD11CE11CF11C2C153D054E055F05E2
:101100004CF4C282D382E482F58261E070E080E038
:1011100090ECA4CF2283338344835583A085B1858B
:101120000E94A00A9BCF86819781289F4001299F1A
:10113000900C389F900C1124AA2497FCA094BA2CF0
:101140006FCF81589F4FAF4FBF4FA7CFFC01128287
:101150001382148215820895AF92BF92CF92DF92CC
:10116000EF92FF920F931F93CF93DF930E9495040A
:10117000EC010E94AD0424E62C9F60012D9FD00C51
:101180001124C80ED91EEE24D7FCE094FE2C0E9438
:101190004505880F991F80579F4FFC01A590B4907B
:1011A0000E944505880F991F8E579F4FFC0105919E
:1011B00014910E944505880F991F8C589F4FFC0180
:1011C000C591D4910E944505880F991F8A599F4F58
:1011D000FC0125913491C501A0E0B0E08C159D057E
:1011E000AE05BF0544F4C801A0E0B0E0C816D906BA
:1011F000EA06FB06ECF0CE01A0E0B0E08C159D0500
:10120000AE05BF056CF010922D01DF91CF911F91BB
:101210000F91FF90EF90DF90CF90BF90AF90089527
:10122000C901A0E0B0E0C816D906EA06FB065CF7E3
:1012300081E080932D01E9CF80932C010895809166
:10124000260181111FC0419A80912E0181110DC08C
:1012500080912F01811118C080912C01813071F093
:10126000811102C040980895089580912F01811145
:10127000F3CF429A80912C01813091F798B1982751
:1012800098B908954198E0CF88B194E0892788B94A
:10129000E3CF80912F01811101C0089562E070E0D9
:1012A00080E090E00E947C0141E061E084E291E016
:1012B0000C94C300809193018823E1F08091920106
:1012C00081111BC0809106018F5F809306018530DC
:1012D000D8F485E08093060164E070E080E090E05F
:1012E0000E947C018091060120E042E060E090E0F5
:1012F0000E94170110929301089580910601815078
:1013000080930601853028F3893230F388E2809398
:101310000601E2CF0E94D5060C945507CF92DF92CA
:10132000EF92FF9280912E01882321F08091260177
:10133000811112C080912F01882349F080912601EC
:10134000882329F080912C01811129C05E9AFF9099
:10135000EF90DF90CF9008956091060170E080E0FB
:1013600090E00E94C30B6B017C010E94EF050E947C
:10137000B60C9B01AC01C701B6010E942B0B20E00B
:1013800030E0A9010E944F0C18167CF481E00E9405
:101390001C095E98FF90EF90DF90CF9008955E98C3
:1013A000FF90EF90DF90CF90089580E00E941C099D
:1013B0005E9ACDCF399A2FEF89E698E1215080408F
:1013C0009040E1F700C000000E946F000E94EA0513
:1013D0000E9451060E94920124E931E040E051E070
:1013E00060E470E080E095E00E94BA070E94D101BD
:1013F00064E070E080E090E00E947C010E94B8050B
:1014000048E050E06AE879E081E00E94E5014AE0C6
:1014100050E06AE579E082E00E94E50144E150E0B5
:101420006AE87AE083E00E94E50148E250E061E486
:101430007AE084E00E94E50145E050E06FE179E068
:1014400085E00E94E50144E650E06EE879E086E040
:101450000E94E50178940E943A02FDCF64E070E0BA
:1014600080E090E00E947C010E94EF050E94B60C93
:101470000E94900BDC01CB0122E042E060E00C9482
:1014800017018091310190913201019690933201C0
:10149000809331018230910501F183309105A1F0F3
:1014A0008130910541F0039709F0089510923201BF
:1014B0001092310108950E94B805809131019091F8
:1014C0003201039791F7F2CF0E94490980913101CF
:1014D00090913201039749F7E9CF0E942E0A80913B
:1014E000310190913201039701F7E0CF809106011D
:1014F00008950E94EF050E94B60C0E94950B862F5E
:101500000895181619061CF481E00C941C0980E05B
:101510000C941C0980912F01811101C008950E9433
:10152000790A682F70E08091060144E951E090E06B
:101530000E94E70790933401809333010C94810A51
:10154000B7FF0C94DB0A0E94DB0A821B930B089501
:1015500097FB072E16F4009407D077FD09D00E9460
:10156000E60A07FC05D03EF4909581959F4F0895BB
:10157000709561957F4F0895052E97FB1EF400949A
:101580000E94D30A57FD07D00E94FA0A07FC03D035
:101590004EF40C94D30A50954095309521953F4FC9
:1015A0004F4F5F4F089590958095709561957F4F4F
:1015B0008F4F9F4F08950E941C0BA59F900DB49FC5
:1015C000900DA49F800D911D11240895AA1BBB1B93
:1015D00051E107C0AA1FBB1FA617B70710F0A61B33
:1015E000B70B881F991F5A95A9F780959095BC0154
:1015F000CD010895A1E21A2EAA1BBB1BFD010DC04F
:10160000AA1FBB1FEE1FFF1FA217B307E407F507B2
:1016100020F0A21BB30BE40BF50B661F771F881F8E
:10162000991F1A9469F760957095809590959B0124
:10163000AC01BD01CF010895A29FB001B39FC001CD
:10164000A39F700D811D1124911DB29F700D811DEE
:101650001124911D08955058BB27AA270ED0E5C02C
:10166000D6D030F0DBD020F031F49F3F11F41EF4DF
:10167000CBC00EF4E095E7FBC1C0E92FE7D080F3C3
:10168000BA17620773078407950718F071F49EF57F
:10169000FFC00EF4E0950B2EBA2FA02D0B01B9015F
:1016A00090010C01CA01A0011124FF27591B99F0D8
:1016B000593F50F4503E68F11A16F040A22F232FE4
:1016C000342F4427585FF3CF469537952795A79534
:1016D000F0405395C9F77EF41F16BA0B620B730BDB
:1016E000840BBAF09150A1F0FF0FBB1F661F771F4C
:1016F000881FC2F70EC0BA0F621F731F841F48F401
:10170000879577956795B795F7959E3F08F0B3CF86
:101710009395880F08F09927EE0F97958795089570
:1017200004D06894B111B5C0089598D088F09F573F
:1017300090F0B92F9927B751A0F0D1F0660F771F1D
:10174000881F991F1AF0BA95C9F712C0B13081F0FD
:101750009FD0B1E008959CC0672F782F8827B85F8D
:1017600039F0B93FCCF3869577956795B395D9F75E
:101770003EF490958095709561957F4F8F4F9F4F68
:101780000895E89409C097FB3EF490958095709574
:1017900061957F4F8F4F9F4F9923A9F0F92F96E9BD
:1017A000BB279395F695879577956795B795F11132
:1017B000F8CFFAF4BB0F11F460FF1BC06F5F7F4FCF
:1017C0008F4F9F4F16C0882311F096E911C07723E1
:1017D00021F09EE8872F762F05C0662371F096E8EA
:1017E000862F70E060E02AF09A95660F771F881FB9
:1017F000DAF7880F9695879597F9089597F99F6777
:1018000080E870E060E008959FEF80EC0895002488
:101810000A941616170618060906089500240A9455
:1018200012161306140605060895092E0394000CDB
:1018300011F4882352F0BB0F40F4BF2B11F460FF6A
:1018400004C06F5F7F4F8F4F9F4F089557FD905893
:10185000440F551F59F05F3F71F04795880F97FB74
:10186000991F61F09F3F79F087950895121613062E
:101870001406551FF2CF4695F1DF08C0161617065D
:101880001806991FF1CF8695710561050894089592
:10189000E894BB2766277727CB0197F9089586D070
:1018A00008F48FEF08950BD0C0CFB1DF28F0B6DF7A
:1018B00018F0952309F0A2CFA7CF1124EACFC6DFF5
:1018C000A0F3959FD1F3950F50E0551F629FF00153
:1018D000729FBB27F00DB11D639FAA27F00DB11DAC
:1018E000AA1F649F6627B00DA11D661F829F222735
:1018F000B00DA11D621F739FB00DA11D621F839FBC
:10190000A00D611D221F749F3327A00D611D231F91
:10191000849F600D211D822F762F6A2F11249F57DF
:1019200050408AF0E1F088234AF0EE0FFF1FBB1F02
:10193000661F771F881F91505040A9F79E3F5105A1
:1019400070F05CCFA6CF5F3FECF3983EDCF386955A
:1019500077956795B795F795E7959F5FC1F7FE2B4C
:10196000880F911D9695879597F9089577DFE0F098
:101970009E37D8F09639B8F49E3848F4672F782F00
:101980008827985FF9CF86957795679593959539D0
:10199000D0F3B62FB1706B0F711D811D20F48795A8
:1019A00077956795939526C040C073CF990F00082F
:1019B000550FAA0BE0E8FEEF16161706E807F90721
:1019C000C0F012161306E407F50798F0621B730BBC
:1019D000840B950B39F40A2661F0232B242B252B3D
:1019E00021F408950A2609F4A140A6958FEF811DE0
:1019F000811D0895882371F4772321F09850872B57
:101A0000762F07C0662311F499270DC09051862BBD
:101A100070E060E02AF09A95660F771F881FDAF76A
:101A2000880F9695879597F908959F3F31F09150CB
:101A300020F4879577956795B795880F911D9695B2
:101A4000879597F90895CF93DF938230910510F42D
:101A500082E090E0E091A801F091A90120E030E05F
:101A6000A0E0B0E0309739F1408151814817590723
:101A7000B8F04817590771F482819381109729F0C3
:101A800013969C938E9312972CC09093A9018093E8
:101A9000A80127C02115310531F04217530718F06E
:101AA000A901DB0101C0EF019A01BD01DF01028044
:101AB000F381E02DD7CF21153105F9F0281B390B23
:101AC0002430310580F48A819B816115710521F0F4
:101AD000FB019383828304C09093A9018093A801A2
:101AE000FE01329644C0FE01E20FF31F81939193F1
:101AF00022503109398328833AC02091A6013091C0
:101B0000A701232B41F4209102013091030130936E
:101B1000A7012093A6012091000130910101211518
:101B2000310541F42DB73EB74091040150910501B4
:101B3000241B350BE091A601F091A701E217F307F2
:101B4000A0F42E1B3F0B2817390778F0AC014E5F2D
:101B50005F4F2417350748F04E0F5F1F5093A701C2
:101B60004093A6018193919302C0E0E0F0E0CF01A1
:101B7000DF91CF910895CF93DF93009709F487C049
:101B8000FC01329713821282C091A801D091A90161
:101B9000209781F420813181280F391F8091A6017F
:101BA0009091A7018217930779F5F093A701E0932D
:101BB000A6016DC0DE0120E030E0AE17BF0750F493
:101BC00012964D915C9113979D014115510509F1B4
:101BD000DA01F3CFB383A28340815181840F951F33
:101BE0008A179B0771F48D919C911197840F951F13
:101BF00002969183808312968D919C911397938383
:101C000082832115310529F4F093A901E093A801FD
:101C10003EC0D9011396FC93EE9312974D915D91BE
:101C2000A40FB51FEA17FB0779F480819181840F17
:101C3000951F0296D90111969C938E938281938170
:101C400013969C938E931297E0E0F0E08A819B813B
:101C5000009719F0FE01EC01F9CFCE010296288120
:101C60003981820F931F2091A6013091A701281777
:101C7000390769F4309729F41092A9011092A8014C
:101C800002C013821282D093A701C093A601DF91F4
:101C9000CF910895AEE0B0E0E0E5FEE00C94F210E4
:101CA0000D891E8986E08C831A8309838FEF9FE755
:101CB0009E838D83AE01475E5F4F6F89788DCE0125
:101CC00001960E946C0EEF81F885E00FF11F1082E3
:101CD0002E96E4E00C940E11ACE0B0E0E2E7FEE0FA
:101CE0000C94E4107C016B018A01FC0117821682BE
:101CF000838181FFBDC1CE0101964C01F701938123
:101D0000F60193FD859193FF81916F01882309F47A
:101D1000ABC1853239F493FD859193FF81916F01B9
:101D2000853229F4B70190E00E945410E7CF512C7E
:101D3000312C20E02032A0F48B3269F030F4803274
:101D400059F0833269F420612CC08D3239F0803330
:101D500039F4216026C02260246023C0286021C09D
:101D600027FD27C030ED380F3A3078F426FF06C043
:101D7000FAE05F9E300D1124532E13C08AE0389E86
:101D8000300D1124332E20620CC08E3221F426FD3A
:101D90006BC1206406C08C3611F4206802C08836FE
:101DA00041F4F60193FD859193FF81916F018111BB
:101DB000C1CF982F9F7D9554933028F40C5F1F4F0F
:101DC000FFE3F9830DC0833631F0833771F083353B
:101DD00009F05BC022C0F801808189830E5F1F4F2C
:101DE00044244394512C540115C03801F2E06F0E85
:101DF000711CF801A080B18026FF03C0652D70E042
:101E000002C06FEF7FEFC5012C870E9449102C01A3
:101E100083012C852F77222E17C03801F2E06F0E38
:101E2000711CF801A080B18026FF03C0652D70E011
:101E300002C06FEF7FEFC5012C870E943E102C017E
:101E40002C852068222E830123FC1BC0832D90E06B
:101E500048165906B0F4B70180E290E00E94541091
:101E60003A94F4CFF50127FC859127FE81915F011B
:101E7000B70190E00E94541031103A94F1E04F1AEB
:101E800051084114510471F7E5C0843611F08936C8
:101E900039F5F80127FF07C0608171818281938144
:101EA0000C5F1F4F08C060817181882777FD809586
:101EB000982F0E5F1F4F2F76B22E97FF09C0909577
:101EC0008095709561957F4F8F4F9F4F2068B22E00
:101ED0002AE030E0A4010E948610A82EA81844C071
:101EE000853729F42F7EB22E2AE030E025C0F22F6C
:101EF000F97FBF2E8F36C1F018F4883579F0B4C061
:101F0000803719F0883721F0AFC02F2F2061B22E13
:101F1000B4FE0DC08B2D8460B82E09C024FF0AC00A
:101F20009F2F9660B92E06C028E030E005C020E162
:101F300030E002C020E132E0F801B7FE07C0608166
:101F40007181828193810C5F1F4F06C06081718116
:101F500080E090E00E5F1F4FA4010E948610A82E23
:101F6000A818FB2DFF77BF2EB6FE0BC02B2D2E7FA2
:101F7000A51450F4B4FE0AC0B2FC08C02B2D2E7E6E
:101F800005C07A2C2B2D03C07A2C01C0752C24FFA0
:101F90000DC0FE01EA0DF11D8081803311F4297E10
:101FA00009C022FF06C07394739404C0822F867800
:101FB00009F0739423FD13C020FF06C05A2C73143C
:101FC00018F4530C5718732C731468F4B70180E29B
:101FD00090E02C870E94541073942C85F5CF7314D5
:101FE00010F4371801C0312C24FF12C0B70180E370
:101FF00090E02C870E9454102C8522FF17C021FFEF
:1020000003C088E590E002C088E790E0B7010CC00B
:10201000822F867859F021FD02C080E201C08BE258
:1020200027FD8DE2B70190E00E945410A51438F40A
:10203000B70180E390E00E9454105A94F7CFAA941D
:10204000F401EA0DF11D8081B70190E00E94541067
:10205000A110F5CF332009F451CEB70180E290E012
:102060000E9454103A94F6CFF7018681978102C0FE
:102070008FEF9FEF2C96E2E10C940011FC0105908C
:10208000615070400110D8F7809590958E0F9F1F7A
:102090000895FC016150704001900110D8F78095BF
:1020A00090958E0F9F1F08950F931F93CF93DF93EB
:1020B000182F092FEB018B8181FD03C08FEF9FEF5C
:1020C00020C082FF10C04E815F812C813D8142176C
:1020D00053077CF4E881F9819F012F5F3F4F3983DB
:1020E0002883108306C0E885F985812F0995892BFF
:1020F00029F72E813F812F5F3F4F3F832E83812F12
:10210000902FDF91CF911F910F910895FA01AA2787
:10211000283051F1203181F1E8946F936E7F6E5F2A
:102120007F4F8F4F9F4FAF4FB1E03ED0B4E03CD0D8
:10213000670F781F891F9A1FA11D680F791F8A1FBB
:10214000911DA11D6A0F711D811D911DA11D20D022
:1021500009F468943F912AE0269F11243019305DDC
:102160003193DEF6CF010895462F4770405D4193CD
:10217000B3E00FD0C9F7F6CF462F4F70405D4A331A
:1021800018F0495D31FD4052419302D0A9F7EACFE2
:10219000B4E0A6959795879577956795BA95C9F711
:1021A00000976105710508959B01AC010A2E069404
:1021B0005795479537952795BA95C9F7620F731FBD
:1021C000841F951FA01D08952F923F924F925F92FA
:1021D0006F927F928F929F92AF92BF92CF92DF9237
:1021E000EF92FF920F931F93CF93DF93CDB7DEB79C
:1021F000CA1BDB0B0FB6F894DEBF0FBECDBF099430
:102200002A88398848885F846E847D848C849B8486
:10221000AA84B984C884DF80EE80FD800C811B8194
:10222000AA81B981CE0FD11D0FB6F894DEBF0FBEC3
:0A223000CDBFED010895F894FFCF33
:10223A000000AA0120001601000A006400E8033F1A
:10224A00065B4F666D7D077F6F777C39477971250D
:06225A0030336400770040
:04000003000000FCFD
:00000001FF
