:100000000C94301C0C94FE210C941C220C944D1C5E
:100010000C944D1C0C944D1C0C944D1C0C944D1CBC
:100020000C944D1C0C944D1C0C944D1C0C94661C93
:100030000C944D1C0C944D1C0C944D1C0C944D1C9C
:100040000C944D1C0C944D1C0C944D1C0C944D1C8C
:100050000C944D1C0C944D1C0C944D1C0C944D1C7C
:100060000C944D1C0C944D1C5365742064617920D4
:100070003D20257300536574206D696E757465208D
:100080003D20253032640053657420686F757220FE
:100090003D20253032640000C00100004002000015
:1000A00040020000781E000064120000441200604C
:1000B000081802F0188805971084741921C68C213D
:1000C000614286034242600C422238064C3A60028A
:1000D000700E40F261C26F1C0670380018180000E4
:1000E00018180004063010FE41C27F02700E400254
:1000F0004C1A600C46223807426260214142C639E0
:1001000021C68C9F118474B01888056008180300FC
:100110004412000064120000781E0000400200003B
:1001200040020000C001000000000000008000004C
:10013000000000030000000007000000001F000096
:1001400000003F000000007F000000807F000000F2
:1001500080FF000000C0FF000000C0FF010000E0C1
:10016000FF010000E0FF010000F8FF010000F8FFC0
:10017000090000FEFF1D0000FFFF3F0080FFFF3F62
:1001800000C0FFFF7F00E0FFFFFF00F0FFFDFF006A
:10019000F0FFFDFF00F8BFFCFF01F87FFCFF01F856
:1001A0003FFCFF01FC1FF8FF03FC17FCFF03F80FE7
:1001B000F8FF01F807E8FF01FC07F0FF01F807E08E
:1001C000FF00F807C0FF01F00780FF00F00780BFC5
:1001D00000E00F805F00E01F803F00801FC01F0015
:1001E000803BC00D00001EA003000038C0010000CD
:1001F0000000000000000000009808980898089887
:10020000089808FC08FC0814055E065E065E065E9B
:10021000065E067805B004850285028502850285A2
:1002200002B0044D03260226022602260226024DB3
:10023000032564B04300253032642F253032642F0B
:100240002534640025643A2530326400536F6C6CA9
:100250002F54653D25640054656D2F72653D2564FE
:10026000004461793D2025640052656C61793D2030
:100270002564005049445F433D20256400504944B3
:100280005F483D20256400546D456E623D20256425
:10029000004175743D202564004D616E3D2025644C
:1002A0000053744F6E4F66663D20256400FFE0FFEB
:1002B000D1AFFF32FFD0FFFEFFE0FFD1AEFFD0FF96
:1002C000FEFFE0FFD11000FFFEFFD0FFE0FFC1FF07
:1002D000D1AED580A83FD300408D142000A1C8DA4C
:1002E0001281CFD9F1DB402EA4A6AFFFD0FFFE00D4
:1002F000221FFEFA11040808D120FFFB19FA11FB96
:10030000000000070000031111090300E0E0E0E035
:10031000E0E0E0E0E0E0E0E00000E0E0E008070727
:100320000C020AE7E7E7E7E7E7E70E112210010012
:1003300003180718063806303FFC3FFC0C600C60C1
:100340001C6018E0FFF8FFF039C031803180718007
:1003500063800C152A0E01FD02000F803FC07FE074
:10036000F2E0E2E0E200FA007E003FC00FE003F0BE
:1003700002F0E270E270F2F07FE03FC00F00020096
:1003800002001511331701003E03007F07006306CA
:1003900000C18E00C18C00C19800C1B800633080DC
:1003A0007F77E03E663000EC1800CC1801CC1801D5
:1003B0008C18030E380707F00603E0101122120113
:1003C000001F803FC079E070E071E039C03F801FBE
:1003D000003F1E779CF3DCE1FCE0FCE078787C7F5A
:1003E000FE1FCF03070709030AE0E0E0E0E0E0605A
:1003F0000514140902FD3838707070F0E0E0E0E098
:10040000E0E0E0E0F070707030380514140902FD8F
:10041000E0607070703838383838383838383870AC
:10042000707060E00909120F0308360036003600CC
:100430009C80FF809C803600360036000E0E1C1813
:100440000500020002000200020002000200FFFCA0
:10045000FFFC02000200020002000200020005068A
:10046000060701FD3870706060E0060303080104B0
:10047000FCFCFC030303070200E0E0E00812120AA0
:1004800001FF0706060E0C0C0C1C18183830303013
:10049000706060E00B11220D01001F003F8071C0F1
:1004A00070C0E0E0E0E0E0E0E0E0E0E0E0E0E0E0DC
:1004B000E0E0E0E070C071C03F801F000711110D47
:1004C00002000E3EFEFECE0E0E0E0E0E0E0E0E0E96
:1004D0000E0E0E0C11220D01000F803FE078E0702F
:1004E000700070007000F001E003E007C00F801E94
:1004F000003C00F800FFF0FFF0FFF00B11220D01AF
:10050000001F007FC0F1E0E0E000E000E001C00F6C
:10051000800F8001C000E000E0E0E0F1E0FFC07F7C
:10052000801F000C11220D010003C007C007C00F7F
:10053000C01DC01DC039C071C071C0E1C0FFF0FF57
:10054000F0FFF001C001C001C001C00B11220D017C
:1005500000FFC0FFC0FFC0E000E000E000EF80FF50
:10056000C0F1E0E0E000E000E0E0E0E1E0FFC07FBB
:10057000803F000B11220D01000F003FC039E070D9
:10058000E06000E000EF80FFC0F1E0E0E0E0E0E0EC
:10059000E0E0E060E071C03F801F000B11220D0120
:1005A00000FFE0FFE0FFE000E001E001C003C00366
:1005B000800780078007000F000E001E001C003C13
:1005C000003C000B11220D01001F007FC0F1E0E094
:1005D000E0E0E0E0E071C03F803F8071C0E0E0E03B
:1005E000E0E0E0E0E0F1E07FC01F000B11220D0130
:1005F000001F003F8071C0E0C0E0E0E0E0E0E0F11B
:10060000E07FE03EE000E000E0E0E0E1C071C07FBC
:10061000801E00030C0C070300E0E0E00000000077
:100620000000E0E0E0050E0E0801FE38383800005A
:100630000000003838707060E00E0C1818050100DA
:100640000C003C01E007003C00E000E0003C00073B
:100650000001E0003C000C0E060C180504FFFCFF36
:10066000FC00000000FFFCFFFC0E0C18180501C088
:1006700000F0001E00038000F0001C001C00F003CE
:10068000801E00F000C0000A11220C01003E007F15
:1006900080E380C1C001C001C0038007800E001C40
:1006A00000180018001800000000001800180016BC
:1006B00016421801FB00FE0003FF800FFFE01F0140
:1006C000F03E00F078F77879FF3871CF3CF3871C63
:1006D000E3871CE3871CE3871CE3871CE3CF38F127
:1006E000FFF871FBF07871E03C00001F00000FFF85
:1006F0000007FF0000FF0010112210000003C003DC
:10070000C003E007E007F00F700E700E781E381C73
:10071000381C3C3FFC3FFC7FFE780E700FF0070C4E
:1007200011220F0200FFC0FFE0FFF0E0F0E070E0F8
:1007300070E0E0FFC0FFC0E0E0E070E070E070E07B
:10074000F0FFF0FFE0FF800E11221001000FC01F2C
:10075000F03FF87878703CF03CE000E000E000E02A
:1007600000E000E000703C703C38781FF00FC00ED5
:100770001122110200FF00FFE0FFF0E0F8E038E096
:100780003CE01CE01CE01CE01CE01CE03CE038E02D
:10079000F8FFF0FFE0FF800B11220F0200FFE0FFE7
:1007A000E0FFE0E000E000E000E000FFE0FFE0E06C
:1007B00000E000E000E000E000FFE0FFE0FFE00B11
:1007C00011220E0200FFE0FFE0FFE0E000E000E0A9
:1007D00000E000FFC0FFC0FFC0E000E000E000E07C
:1007E00000E000E000E0000F112212010007E01F0E
:1007F000F83FFC7C1E700EF00EE000E000E0FEE032
:10080000FEE0FEF00E700E7C0E3FFE1FFE03F80DA4
:100810001122110200E038E038E038E038E038E03A
:1008200038E038FFF8FFF8FFF8E038E038E038E06B
:1008300038E038E038E038031111070200E0E0E06A
:10084000E0E0E0E0E0E0E0E0E0E0E0E0E0E00B114C
:10085000220E010000E000E000E000E000E000E027
:1008600000E000E000E000E000E0E0E0E0E0F0E0D8
:10087000FFC07FC03F000D1122100200E0F0E0E059
:10088000E1E0E3C0E780EF00EF00FE00FE00EF00D4
:10089000E780E780E3C0E1E0E1F0E0F0E0780B1111
:1008A000220E0200E000E000E000E000E000E000D6
:1008B000E000E000E000E000E000E000E000E00038
:1008C000FFE0FFE0FFE0121133160200FC07C0FC5E
:1008D0000FC0FC0FC0FC0FC0EE1FC0EE1DC0EE1D10
:1008E000C0E73DC0E739C0E739C0E7B9C0E3F1C0B0
:1008F000E3F1C0E3F1C0E1F1C0E1E1C0E1E1C00E2C
:100900001122120200F81CF81CFC1CFC1CEE1CEE50
:100910001CE71CE71CE79CE39CE3DCE1DCE1DCE09A
:10092000FCE0FCE07CE07C0F112211010007C01FFD
:10093000F03FF8783C701CF01EE00EE00EE00EE098
:100940000EE00EF00E701C783C3FF81FF007E00C34
:1009500011220F0200FF80FFC0FFE0E0F0E070E036
:1009600070E070E0F0FFE0FFC0FF00E000E000E0BA
:1009700000E000E000E00011113313010007C000A7
:100980001FF0003FF800783C00701C00F01E00E0F3
:100990000E00E00E00E00E00E00E00E00E00F00E93
:1009A00000701C00783C003FFF801FFF8007FF8025
:1009B0000D1122100200FFC0FFF0FFF8E078E038D0
:1009C000E038E070FFE0FFC0FFF0E0F0E070E078BA
:1009D000E038E038E038E0380D11220F01000FC098
:1009E0003FE038F07070700078007E003FC01FF06C
:1009F00003F00078E038E038F0787FF03FE00F80D7
:100A00000D11220F0100FFF8FFF8FFF807000700A3
:100A1000070007000700070007000700070007009E
:100A200007000700070007000E1122120200E01C59
:100A3000E01CE01CE01CE01CE01CE01CE01CE01CD6
:100A4000E01CE01CE01CF03C78787FF83FF00FC021
:100A5000111133110000F00780700700780F007843
:100A60000E00381E003C1E001C1C001E3C001E3CDC
:100A7000000E38000F78000F700007700007F000BC
:100A800007E00003E00003E000171133170000F057
:100A9000381E707C1C707C1C787C3C786C3C38EE7A
:100AA0003838EE3838EE383CC6781DC7701DC77030
:100AB0001DC7701D83700F83E00F83E00F83E00F6D
:100AC00001E00E1122100100F03C783878783C707B
:100AD0001CE01FE00FC0078007800FC01FC01DE093
:100AE00038F078707078F03CE03C0D11220F010076
:100AF000E038F078707078F038E03DE01DC01FC03D
:100B00000F800F800700070007000700070007009D
:100B100007000C11220E0100FFF0FFF0FFF001F0C2
:100B200001E003C0078007800F001E003C003C006E
:100B30007800F000FFF0FFF0FFF00516160902FB49
:100B4000F8F8E0E0E0E0E0E0E0E0E0E0E0E0E0E075
:100B5000E0E0E0E0F8F80712120A01FFC0E0606090
:100B6000703030381818181C0C0C0E0606060516C6
:100B7000160902FBF8F83838383838383838383839
:100B80003838383838383838F8F80B0E1C17060063
:100B900004000E000A001B001100110031802080AB
:100BA000208060C04040C060802080200C02040C87
:100BB00000FDFFF0FFF004040406000EE06030309A
:100BC0000A0C180D01001F007F8071C001C01FC0FA
:100BD0007FC0F1C0E1C0E1C0F3C07FC03CC00C11D8
:100BE000220E0100E000E000E000E000E000EF8005
:100BF000FFC0F1E0F0F0E070E070E070E070F0F065
:100C0000F8E0FFC0E7800A0C180C01001F007F808D
:100C100073C0E1C0E000E000E000E1C0E1C073C0EB
:100C20007F801F000C11220E010000700070007008
:100C3000007000701F703FF078F0F0F0E070E0702E
:100C4000E070E070F0F071F03FF01E700B0C180DCA
:100C500001001F003F8071C0E1E0FFE0FFE0E00025
:100C6000E000E1C071C07FC01F0008111109010040
:100C70001F3F383838FFFF38383838383838383878
:100C8000380C11220E01FB1F703FF078F0F0F0E0FD
:100C900070E070E070E070F0F070F07FF01E7000B7
:100CA00070707078E03FE01F800B11220D0100E0B2
:100CB00000E000E000E000E000EF80FFC0F1E0F0C5
:100CC000E0E0E0E0E0E0E0E0E0E0E0E0E0E0E0E024
:100CD000E0031111050100E0E0E00000E0E0E0E0E9
:100CE000E0E0E0E0E0E0E0E00416160702FB7070F0
:100CF00070000070707070707070707070707070D4
:100D000070F0F0E00B11220C0100E000E000E000C8
:100D1000E000E000E3C0E380E700EF00FE00FE003B
:100D2000EE00EF00E780E780E3C0E1E00311110689
:100D30000100E0E0E0E0E0E0E0E0E0E0E0E0E0E072
:100D4000E0E0E0130C24150100E78F80EFDFC0F92D
:100D5000F1E0F0E0E0E0E0E0E0E0E0E0E0E0E0E072
:100D6000E0E0E0E0E0E0E0E0E0E0E0E0E00B0C18F4
:100D70000D0100EF80FFC0F1E0E0E0E0E0E0E0E046
:100D8000E0E0E0E0E0E0E0E0E0E0E00C0C180E0184
:100D9000001F803FC070E0F0E0E070E070E070E0C5
:100DA00070F0F070E03FC01F800C11220E01FBE7D5
:100DB00080FFC0F8E0F0F0E070E070E070E070F00C
:100DC000F0F1E0FFC0EF80E000E000E000E000E0D4
:100DD000000C11220E01FB1E703FF071F0F0F0E0EC
:100DE00070E070E070E070F0F078F03FF01F70009D
:100DF000700070007000700070070C0C090100EEAC
:100E0000EEFEF0F0E0E0E0E0E0E0E00A0C180C01BB
:100E1000003F007F80F1C0E1C0F8007F001F800329
:100E2000C0E1C0E3C07F803F00080F0F0A01001837
:100E30003838FFFF383838383838383C3F0F0B0C1B
:100E4000180D0100E0E0E0E0E0E0E0E0E0E0E0E0FC
:100E5000E0E0E0E0E0E0F1E07FE03EE00C0C180DC7
:100E60000000F07070F070E078E038E039C01DC02C
:100E70001DC01F800F800F800F00130C2414000072
:100E8000F0F0E070F0E071F0E071F9C039F9C03BCA
:100E9000B9C03B9FC03F9F801F1F801F0F801F0F47
:100EA000000F0F000B0C180D0100F1E071C07B80EA
:100EB0003F801F001E001F003F807B8073C0F1C079
:100EC000E1E00C11220C00FBF07070F078E038E0EB
:100ED00039E03DC01DC01DC01F800F800F8007007E
:100EE00007000F000E000E001E000A0C180C010077
:100EF000FF80FF80078007000E001E003C003800C6
:100F00007000E000FFC0FFC009172E0C02FA078036
:100F10000F801C001C001C001C001C001C001C007E
:100F20003C00F800E000F8003C001C001C001C0025
:100F30001C001C001C001C000F80078002191908EF
:100F400003FAC0C0C0C0C0C0C0C0C0C0C0C0C0C024
:100F5000C0C0C0C0C0C0C0C0C0C0C00817170C020D
:100F6000FAE0F0383838383838381C1F071F1C387A
:100F7000383838383838F8E00C03060C00053C30B7
:100F80007FF0E3C0FFFFFFFFFFFFFFFFFFFFFFFF5B
:100F9000FFFFFFFFFFFFFFFFFFFFFFFFFFFFFFFF61
:100FA000FFFFFFFFFF00000007000003111109030E
:100FB000FBE0E0E00000E0E0E0E0E0E0E0E0E0E0D6
:100FC000E0E00A12240D01FD0100010003001F00F2
:100FD0007F8073C0E7C0E400E400EC00E9C0E9C032
:100FE0007BC07F801F001000300020000B11220DFD
:100FF00001000F801FE038E038E038003800FF00C3
:10100000FF00380038003800380038003800380059
:10101000FFE0FFE00B0C180D010480205F407180A1
:101020006080404040404040404060C031805F4070
:1010300080200D11220F0100E078F078707078F0B8
:1010400038E0FDF8FDF81FC00F80FFF8FFF807003B
:10105000070007000700070007000116160804FB39
:101060008080808080808080800000000080808080
:1010700080808080808009152A0B01FC3F007F0062
:10108000F100E000E00078003E003F007780E38060
:10109000E380E780FF007E001F000780038003805D
:1010A0008780FF007C0008030308000FE7E7E711D3
:1010B000113313010003E0000FF8003C1E0033E67B
:1010C0000067F300673B00CE3980CE0180CE0180FF
:1010D000CE0180CE39804E390067F30033E6003808
:1010E0000E000FF80003E000080B0B0A01063C6637
:1010F000067EE6C6C67E0000FF0B09120E01013C0B
:10110000E038E079E071C0F3C071C079E038E03CCC
:10111000E00C050A0E0105FFF000100010001000A1
:1011200010FF11113313010003E0000FF8003C1E03
:101130000037F60067FB00661B00C61980C7F18008
:10114000C7F180C63980C61980461900661B003079
:101150000600380E000FF80003E000070202070047
:101160000FFEFE05050507010C70888888700E0EBD
:101170001C1805000200020002000200FFFCFFFC38
:10118000020002000200020000000000FFFCFFFC61
:101190000709090901087CE6060E1C38E0FEFE0777
:1011A00009090901087CCE060E380E06CE7C05041E
:1011B0000405010E387060C0FF0B14280E02FD3FBD
:1011C000E07D80FD80FD80FD80FD80FD807D800DC7
:1011D000800D800D800D800D800D800D800D800DA7
:1011E000800D800D800D80030303070206E0E0E020
:1011F0000605050601FB20380C0CF8040909060158
:101200000830F0B0303030303030080B0B0A0106B7
:101210003C66C3C3C3C3E77E3C00FF0C09120E014A
:1012200001E38071C079E038E03CF038E079E071AA
:10123000C0E3801011221201003018F018B03030D5
:1012400070306030E030C03180318E030E031E06F6
:10125000360E360C66187F18063006101122120161
:10126000003018F030B030306030E030C031C03184
:1012700080333E0377060306070C0E1C1C187030E3
:101280007F307F1111331301007C0600C60C00066D
:101290000C003818000E3800063000CE70007C605C
:1012A0000000C70001C700018F00039B00031B0063
:1012B000073300063F800C03001C03000A11220CB8
:1012C00001FB0E000E00000000000E000E000E00DC
:1012D0001C0038007000F000E000E080E0C073C047
:1012E0007F801F001018301000000E000700030060
:1012F000038001800000000003C003C003E007E09A
:1013000007F00F700E700E781E381C381C3C3FFC26
:101310003FFC7FFE780E700FF007101830100000B1
:101320000070006000E000C001800000000003C009
:1013300003C003E007E007F00F700E700E781E3850
:101340001C381C3C3FFC3FFC7FFE780E700FF00702
:1013500010183010000001C003C003E00660043024
:101360000000000003C003C003E007E007F00F70B7
:101370000E700E781E381C381C3C3FFC3FFC7FFE74
:10138000780E700FF00710172E100000001007F0F5
:1013900007E000000000000003C003C003E007E016
:1013A00007F00F700E700E781E381C381C3C3FFC86
:1013B0003FFC7FFE780E700FF00710172E11000013
:1013C0000E700E700E7000000000000003C003C01D
:1013D00007E007E007E00F700E701E781E381C381B
:1013E0003C3C3FFC7FFE7FFE700EF00FE0070F19C4
:1013F00032100100038006C00440044004C0038092
:1014000000000000038007C007C00FC00EE00EE020
:101410001EE01C701C703C7038783FF87FFC7FFC2D
:10142000701CF01EE00E15113317010000FFF800CC
:10143000FFF801F80001F80003B80003B80007380E
:1014400000073FF80E3FF80E38001E38001FF80066
:101450003FF800783800703800F03FF8E03FF80EB1
:10146000162C1001FB0FC01FF03FF87838703CF0CD
:101470001CE000E000E000E000E000E000701C7014
:101480003C38781FF00FC0030003C0006000600705
:10149000C00B18300F0200380018001C000C0006AA
:1014A0000000000000FFE0FFE0FFE0E000E000E0FF
:1014B00000E000FFE0FFE0E000E000E000E000E02E
:1014C00000FFE0FFE0FFE00B18300F020003800395
:1014D00000070006000C0000000000FFE0FFE0FF36
:1014E000E0E000E000E000E000FFE0FFE0E000E01E
:1014F00000E000E000E000FFE0FFE0FFE00B18305C
:101500000F02000E001F001B003B80318000000016
:1015100000FFE0FFE0FFE0E000E000E000E000FFAF
:10152000E0FFE0E000E000E000E000E000FFE0FFBE
:10153000E0FFE00B172E0F02003B803B803B80005A
:101540000000000000FFE0FFE0FFE0E000E000E05E
:1015500000E000FFE0FFE0E000E000E000E000E08D
:1015600000FFE0FFE0FFE0051818070000E0E06082
:10157000301000003838383838383838383838388B
:10158000383838383805181805010038307060C010
:101590000000E0E0E0E0E0E0E0E0E0E0E0E0E0E00B
:1015A000E0E0E007181807000038386C6CC600004F
:1015B00038383838383838383838383838383838AB
:1015C00038081717080000E7E7E700000038383848
:1015D00038383838383838383838383838380F11DB
:1015E000221000003FC03FF03FF8383C381C381E46
:1015F000380E380EFF0EFF0E380E381E381C383CE1
:101600003FF83FF03FC00E172E12020000200FC01F
:101610000FC0000000000000F81CF81CFC1CFC1CA3
:10162000EE1CEE1CE71CE71CE79CE39CE3DCE1DC22
:10163000E1DCE0FCE0FCE07CE07C0F183011010014
:101640001C000E000600030001000000000007C09F
:101650001FF03FF8783C701CF01EE00EE00EE00E2C
:10166000E00EE00EF00E701C783C3FF81FF007E033
:101670000F1830110100007000E000C0018001006F
:101680000000000007C01FF03FF8783C701CF01EFF
:10169000E00EE00EE00EE00EE00EF00E701C783C66
:1016A0003FF81FF007E00F1830110100038007C05A
:1016B00006C00C6008200000000007C01FF03FF8C3
:1016C000783C701CF01EE00EE00EE00EE00EE00E26
:1016D000F00E701C783C3FF81FF007E00F172E113A
:1016E000010007200FE008C000000000000007C054
:1016F0001FF03FF8783C701CF01EE00EE00EE00E8C
:10170000E00EE00EE00E701C783C3FF81FF007E0A2
:101710000F172E1101000E700E700E7000000000E9
:10172000000007C01FF03FF8783C701CF01EE00E70
:10173000E00EE00EE00EE00EF00E701C783C3FF87C
:101740001FF007E00D0C18170501C018603030605D
:1017500018C00D80070007000D8018C03060603091
:10176000C0181113391100FF00010003F1800FFBB5
:10177000001FFE003C1E00381E00783F00707700FE
:1017800070E70071C7007387007707007E07003C91
:101790000E003C1E003FFC006FF800E3E00040003C
:1017A000000E18301202001C000C000E0006000390
:1017B0000000000000E01CE01CE01CE01CE01CE05D
:1017C0001CE01CE01CE01CE01CE01CE01CF03C7079
:1017D000387FF83FF00FC00E183012020000E00012
:1017E000C001C00180030000000000E01CE01CE01C
:1017F0001CE01CE01CE01CE01CE01CE01CE01CE009
:101800001CE01CF03C70387FF83FF00FC00E183021
:10181000120200078007800FC00CC0186000000093
:1018200000E01CE01CE01CE01CE01CE01CE01CE0F4
:101830001CE01CE01CE01CE01CF03C70387FF83F12
:10184000F00FC00E172E1001001CE01CE01CE00081
:101850000000000000E01CE01CE01CE01CE01CE0BC
:101860001CE01CE01CE01CE01CE01CE01CF03C78D0
:10187000787FF83FF00FC00D172E0F010001C00157
:10188000800300020000000000E038F078707078FB
:10189000F038E03DE01DC01FC00F800F800700073B
:1018A00000070007000700070007000C11220F01C6
:1018B00000E000E000E000FF80FFE0FFE0E0F0E09B
:1018C00070E070E0F0FFE0FFE0FF80E000E000E0AB
:1018D00000E0000C11220E01003F007F80F1C0E10A
:1018E000C0E1C0E380E700EE00EE00EF80E7C0E17A
:1018F000E0E070EE70EE70EFE0E7C00A13260D0135
:10190000007000380018000C000400000000001FE8
:10191000007F8071C001C01FC07FC0F1C0E1C0E185
:10192000C0F3C07FC03CC00A13260D010003800332
:1019300000060006000C00000000001F007F807100
:10194000C001C01FC07FC0F1C0E1C0E1C0F3C07FD3
:10195000C03CC00A13260D01000E001E001B003300
:10196000002180000000001F007F8071C001C01FA7
:10197000C07FC0F1C0E1C0E1C0F3C07FC03CC00A7D
:1019800011220D01001F803F000000000000001F19
:10199000007F8071C001C01FC07FC0F1C0E1C0E105
:1019A000C0F3C07FC03CC00A12240D0100738073D5
:1019B0008073800000000000003F007F80F1C001C4
:1019C000C01FC07FC0F1C0E1C0E1C0F3C07FC03C18
:1019D000C00A14280D01000E001B00110013001F87
:1019E000000E00000000001F007F8071C001C01FBA
:1019F000C07FC0F1C0E1C0E1C0F3C07FC03CC012F5
:101A00000C241401001F1F007FBF8071F38000E1D0
:101A1000C01FFFC07FFFC0F0E000E0E000E0E1C0D9
:101A2000F1F3C07F3F803E1F000A11220C01FB1F13
:101A3000007F8073C0E1C0E000E000E000E000E172
:101A4000C073C07F803F0008000E00030003001E2B
:101A5000000B13260D01007000380018000C000464
:101A600000000000001F003F8071C0E1E0FFE0FFC8
:101A7000E0E000E000E1C071C07FC01F000B132652
:101A80000D010003800300070006000C00000000A9
:101A9000001F003F8071C0E1E0FFE0FFE0E000E0F8
:101AA00000E1C071C07FC01F000B13260D01000EA6
:101AB000001F001B0031802180000000001F003F3C
:101AC0008071C0E1E0FFE0FFE0E000E000E1C07114
:101AD000C07FC01F000B12240D0100738073807340
:101AE000800000000000001F003F8073C0E1C0FFC5
:101AF000E0FFE0E000E000E1C073C07F801F000570
:101B0000121206FF00E070301800003838383838FC
:101B1000383838383838380412120501007060E05F
:101B2000C00000E0E0E0E0E0E0E0E0E0E0E0E0076E
:101B3000121206FF00387C6CC6000038383838387E
:101B40003838383838383808121207FF00E7E7E726
:101B50000000003838383838383838383838380CD9
:101B600011220E01001C600FC00F803B8021C01F9E
:101B7000E03FE070E0F0F0E070E070E070E070F006
:101B8000F070E03FC01F800B11220D01001F803F4D
:101B900000000000000000EF80FFC0F1E0E0E0E0A6
:101BA000E0E0E0E0E0E0E0E0E0E0E0E0E0E0E00C09
:101BB00013260E010038001C000C00060006000071
:101BC0000000001F803FC070E0F0E0E070E070E0D7
:101BD00070E070F0F070E03FC01F800C13260E0123
:101BE0000001C00380030006000400000000001F85
:101BF000803FC070E0F0E0E070E070E070E070F016
:101C0000F070E03FC01F800C13260E01000F000F84
:101C1000001F80198030C0000000001F803FC0708E
:101C2000E0F0E0E070E070E070E070F0F070E03F55
:101C3000C01F800C11220E01001FC03F8000000059
:101C40000000001F803FC070E0F0E0E070E070E056
:101C500070E070F0F070E03FC01F800C12240E01A5
:101C60000039C039C039C00000000000001F803FAB
:101C7000C070E0F0E0E070E070E070E070F0F070F4
:101C8000E03FC01F800E0A14180502070007000677
:101C9000000000FFFCFFFC00000200070007000C32
:101CA0000F1E0E01FE002000301FE03FC071E0F16A
:101CB000F0E370E670EC70F870F8F070E07FC0DF71
:101CC00080C0000B13260D0100700038001C000CB2
:101CD00000060000000000E0E0E0E0E0E0E0E0E01E
:101CE000E0E0E0E0E0E0E0E0E0F1E07FE03EE00BBB
:101CF00013260D010003800380070006000C00007E
:101D0000000000E0E0E0E0E0E0E0E0E0E0E0E0E073
:101D1000E0E0E0E0E0F1E07FE03EE00B13260D01C3
:101D2000000E001F001B003180208000000000E03A
:101D3000E0E0E0E0E0E0E0E0E0E0E0E0E0E0E0E0A3
:101D4000E0F1E07FE03EE00B12240D0100738073B0
:101D5000807380000000000000E0E0E0E0E0E0E0F0
:101D6000E0E0E0E0E0E0E0E0E0E0E0F1E07FE03E65
:101D7000E00B172E0D01FB0180038003000600001D
:101D8000000000E0E0E0E0F1E071C079C03BC03B62
:101D9000803F801F801F001F000F000E000E00FEFE
:101DA00000FC0078000C162C0F02FBE000E000E0C5
:101DB00000E000E000EF80FFC0F8E0F0F0E070E04D
:101DC00070E070E070F0F0F1E0FFC0EF80E000E064
:101DD00000E000E000E0000C162C0E01FB39C039D9
:101DE000C039C000000000F070F0F070F078E079C9
:101DF000E039C03DC01FC01F801F800F800F000F43
:101E0000000F000E001E001C0000091200FC0A0159
:101E1000E803D7207FFD0EFD0BFD00000009000E3A
:101E2000010B0B090400808080808080800000808E
:101E30008004040409030790909090080A0A09009E
:101E400000242424FF2424FF242424070B0B09014D
:101E5000FF107C929050381412927C10070A0A09E5
:101E6000010042A4A4481010244A4A84070A0A091F
:101E7000010060909090606294889462010404096B
:101E8000040780808080030C0C0903FF2040408001
:101E90008080808080404020030C0C0903FF80403C
:101EA0004020202020202040408007070709010310
:101EB00010925438549210070707090101101010AE
:101EC000FE1010100204040904FEC0C04080070187
:101ED00001090104FE020202090400C0C0070A0A47
:101EE00009010002040408101020404080070A0A7B
:101EF00009010038448282828282824438070A0AB9
:101F0000090100103050901010101010FE070A0A3E
:101F1000090100384482020408102040FE070A0A22
:101F2000090100FE020408180402028478070A0A64
:101F3000090100040C14244484FE040404070A0A62
:101F4000090100FE808080F80402028478070A0AF2
:101F50000901003C408080B8C482824438070A0AE4
:101F6000090100FE020404080810101010070A0AF4
:101F700009010038448244384482824438070A0AFE
:101F800009010038448282463A02020478020707B7
:101F9000090400C0C0000000C0C00209090904FE15
:101FA000C0C0000000C0C040800509090902000847
:101FB0001020408040201008070404090102FE00A0
:101FC00000FE050909090200804020100810204089
:101FD00080070A0A09010038448202040810100030
:101FE00010070A0A09010038449AAAAAAAAA9C4022
:101FF0003C070A0A09010010282828447C448282F0
:1020000082070A0A090100F8848284F884828284A3
:10201000F8070A0A0901003C4280808080808042E3
:102020003C070A0A090100F8848282828282828443
:10203000F8070A0A090100FE808080F8808080800D
:10204000FE070A0A090100FE808080F880808080F7
:1020500080070A0A09010038448280808E82824407
:1020600038070A0A09010082828282FE8282828205
:1020700082050A0A090200F82020202020202020C2
:10208000F8070A0A0901003E0808080808088888B5
:1020900070070A0A09010082848890A0D08884828F
:1020A00082070A0A09010080808080808080808009
:1020B000FE070A0A0901008282C6AA9282828282EF
:1020C00082070A0A0901008282C2A2928A8682825B
:1020D00082070A0A0901007C8282828282828282CD
:1020E0007C070A0A090100F884828284F8808080D3
:1020F00080080B0B0901FF384482828282828A4465
:102100003A01070A0A090100F884828284F890885B
:102110008482070A0A0901007C8280807C02020214
:10212000827C070A0A090100FE101010101010101E
:102130001010070A0A09010082828282828282824A
:102140004438070A0A09010082828244444428284C
:102150002810070A0A0901008282828292929292D2
:10216000AA44070A0A090100828244281010284460
:102170008282070A0A090100828244281010101086
:102180001010070A0A090100FE020408102040800E
:1021900080FE040C0C0903FFF0808080808080802A
:1021A000808080F0070A0A0901008040402010105A
:1021B00008040402040C0C0902FFF01010101010A7
:1021C0001010101010F007040409010610284482B2
:1021D0000801010900FFFF03030309030A804020EF
:1021E0000707070901007C02027E82867A070A0A35
:1021F000090100808080BCC2828282C2BC070707BE
:102200000901007C82808080827C070A0A09010023
:102210000202027A86828282867A07070709010013
:102220007C8282FE80827C070A0A0901001C22222D
:102230002020F820202020070A0A0901FD7A848442
:102240008478807C82827C070A0A09010080808071
:10225000BCC28282828282050A0A090200600000F2
:10226000E02020202020F8050D0D0902FD180000B7
:1022700038080808080808888870070A0A09010051
:10228000808080848890B0C88482050A0A09020090
:10229000E02020202020202020F807070709010047
:1022A000EC929292929282070707090100BCC282C7
:1022B000828282820707070901007C8282828282F1
:1022C0007C070A0A0901FDB8C4828282C4B88080F2
:1022D00080070A0A0901FD3A46828282463A0202D2
:1022E000020707070901009C62424040404007077F
:1022F000070901007C82807C02827C0709090901B0
:10230000002020FC20202020221C070707090100B4
:102310008282828282867A070707090100828244CC
:10232000442828100707070901008282929292AA86
:102330004407070709010082442810284482070A3D
:102340000A0901FD4242242424181810906007074E
:1023500007090100FE0408102040FE060B0B0902CD
:10236000001C20202020C0202020201C010C0C0953
:1023700004FF808080808080808080808080060B49
:102380000B090100E0101010100C10101010E007E5
:10239000030309010762928CFF01060A00FE070190
:1023A00036026820FFFE08FE07FE0A00602217675B
:1023B00080808080800080163363A0A0A0025767D1
:1023C0005050F850F850500257672070A070287095
:1023D0002002576748A8502050A89002576740A095
:1023E000A040A89068261363808080123767204041
:1023F000808080402012376780402020204080036A
:1024000055658850F850880355652020F820201124
:102410003363604080055161F811336340E040024E
:10242000576708081020408080025767205088882E
:102430008850200257672060A0202020F8025767AC
:10244000708808304080F8025767F8081030088814
:102450007002576710305090F81010025767F880DC
:10246000B0C8088870025767304080B0C8887002D2
:102470005767F8081010204040025767708888702E
:1024800088887002576770889868081060113767ED
:1024900040E0400040E04011376740E040006040CD
:1024A0008012476710204080402010045363F800DA
:1024B000F8124767804020102040800257677088DC
:1024C0001020200020025767708898A8B080700202
:1024D000576720508888F88888025767F048487006
:1024E0004848F0025767708880808088700257677C
:1024F000F04848484848F0025767F88080F08080EC
:10250000F8025767F88080F08080800257677088F3
:102510008080988870025767888888F88888881231
:102520003767E04040404040E002576738101010E5
:102530001090600257678890A0C0A09088025767EB
:10254000808080808080F80257678888D8A8888833
:10255000880257678888C8A8988888025767708853
:102560008888888870025767F08888F080808001AA
:1025700058687088888888A87008025767F088882B
:10258000F0A09088025767708880700888700257A2
:1025900067F82020202020200257678888888888B4
:1025A0008870025767888888505050200257678883
:1025B0008888A8A8D88802576788885020508888BB
:1025C00002576788885020202020025767F808109B
:1025D000204080F8123767E08080808080E00257DA
:1025E0006780804020100808123767E020202020F4
:1025F00020E0065363205088015161F82822628050
:102600004002556570087888780257678080B0C8A6
:1026100088C8B002556570888088700257670808BE
:1026200068988898680255657088F88070025767C6
:10263000304840F0404040005767788888780888E4
:10264000700257678080B0C888888812376740005A
:10265000C0404040E01049691000301010109090C8
:102660006002576780808890E09088123767C0408A
:1026700040404040E0025565D0A8A8A888025565B2
:10268000B0C8888888025565708888887000576748
:10269000B0C888C8B0808000576768988898680874
:1026A00008025565B0C8808080025565708070084A
:1026B000F00257674040F040404830025565888836
:1026C000889868025565888850502002556588882A
:1026D000A8A8500255658850205088005767888800
:1026E0009868088870025565F8102040F81247670E
:1026F000304020C02040302217678080808080805A
:1027000080124767C02040304020C006536348A86D
:1027100090FFFFFFFFFFFFFFFFFFFFFFFFFFFFFF38
:10272000FFFFFFFFFFFFFFFFFFFFFFFFFFFFFFFFB9
:10273000FFFF0A0060221767800080808080800190
:1027400057672078A0A0A07820025767304840E063
:102750004048B00255658870507088015868888874
:102760005020F82020202217678080800080808001
:102770000158687080E09048380870193161A002F3
:1027800057677088A8C8A888701346667090B050C4
:1027900000F00265652448904824144262F0101548
:1027A0004161F00257677088E8C8C88870095161B4
:1027B000F816336340A0400256662020F82020F827
:1027C00015456560902040F0154565E0106010E00B
:1027D0002822624080015666888888C8B0800257E7
:1027E0006778E8E86828282825116180202262405F
:1027F0008015356540C04040E013466660909060AB
:1028000000F0026565904824489001696940C04025
:1028100040E40C143C0401696940C04040E81404E1
:10282000081C015969C0204020C8182878080257A0
:1028300067200020204088700258684020708888F7
:10284000F888880258681020708888F888880258AC
:10285000682050708888F8888802586848B0708866
:1028600088F888880258685000708888F88888023C
:1028700058682050708888F888880267673C5090B4
:102880009CF0909C005969708880808088702040FE
:1028900002586840F88080F08080F802586810F88C
:1028A0008080F08080F802586820F88080F0808076
:1028B000F802586850F88080F08080F812386880FC
:1028C00040E040404040E01238682040E040404056
:1028D00040E012386840A0E040404040E0123868D4
:1028E000A000E040404040E0025767F04848E84818
:1028F00048F0025868285088C8A898888802586804
:1029000040207088888888700258681020708888F5
:1029100088887002586820507088888888700258AB
:1029200068285070888888887002586850007088BD
:1029300088888870025565885020508802576770D3
:102940009898A8C8C87002586840208888888888E5
:10295000700258681020888888888870025868201B
:102960005000888888887002586850008888888855
:1029700088700258681020888850202020025767ED
:1029800080F088F0808080025767708890A09088DF
:10299000B0025868402000700878887802586810A3
:1029A00020007008788878025868205000700878F5
:1029B000887802586828500070087888780257672D
:1029C0005000700878887802586820502070087885
:1029D000887802656578147C907C005767708880E1
:1029E000887020400258684020007088F88070028B
:1029F00058681020007088F88070025868205000D5
:102A00007088F8807002576750007088F8807012E4
:102A10003868804000C0404040E012386840800084
:102A2000C0404040E012386840A000C0404040E054
:102A3000123767A000C0404040E0025767C03070C6
:102A400088888870025868285000B0C88888880232
:102A500058684020007088888870025868102000EC
:102A60007088888870025868205000708888887044
:102A70000258682850007088888870025767500094
:102A800070888888700355652000F800200255651D
:102A90007898A8C8F002586840200088888898680C
:102AA000025868102000888888986802586820506A
:102AB00000888888986802576750008888889868D6
:102AC00000596910208888986808887000586880C4
:102AD000F0888888F080800059695000888898685C
:102AE000088870000A1400FC0D024A049920FFFCBB
:102AF00010FC0DFC0000000A0010020D0D0A04007D
:102B0000C0C0C0C0C0C0C0C0C0C000C0C0060404B7
:102B10000A0209CCCCCC48090B160A01011B001B88
:102B2000001B007F80360036003600FF006C006C12
:102B3000006C00080D0D0A0100187EDBD8D8D87E85
:102B40001B1B1BDB7E18090C180A01007300DB003D
:102B5000DE0076000C000C001800180037003D80E5
:102B60006D806700090D1A0A010038006C006C00C6
:102B70006C00780030007000D800CD80C700C6001F
:102B8000EF0079800205050A0408C0C0C0C08005B6
:102B90000D0D0A030018306060C0C0C0C0C0606086
:102BA0003018050D0D0A0200C060303018181818D2
:102BB00018303060C00807070A010366663CFF3C16
:102BC00066660807070A0103181818FF1818180482
:102BD00003030A03FF7070E00801010A0106FF0306
:102BE00003030A0400E0E0E0070C0C0A02000606FA
:102BF0000C0C181830306060C0C0080D0D0A0100C0
:102C0000183C6666C3C3C3C3C366663C18080D0D93
:102C10000A0100183878D81818181818181818FF4A
:102C2000080D0D0A01003C66C3C30303061C306097
:102C3000C0C0FF080D0D0A01003C66C3C303061C9B
:102C40000603C3C3663C080D0D0A010002060E1EF2
:102C50003666C6C6FF06060606080D0D0A0100FF09
:102C6000C0C0C0C0DCE6030303C3663C080D0D0A08
:102C700001003C66C2C0C0DCE6C3C3C3C3663C08F7
:102C80000D0D0A0100FF030306060C0C1818303066
:102C90006060080D0D0A01003C66C3C3C3663C6654
:102CA000C3C3C3663C080D0D0A01003C66C3C3C321
:102CB000C3673B030343663C0308080A0400E0E0E3
:102CC00000000000E0E00409090A03FF7070000042
:102CD00000007070E0070D0D0A010002060C1830AC
:102CE00060C06030180C06020806060A0103FF00E7
:102CF000000000FF070D0D0A020080C06030180CB4
:102D0000060C183060C080080D0D0A01003C66C337
:102D1000C3C3060C181818001818080D0D0A010076
:102D20003C66C3CFDFDBDBDBDECCC0633E080D0DD2
:102D30000A0100183C6666C3C3C3FFC3C3C3C3C351
:102D4000080D0D0A0100F8CCC6C6C6CCFCC6C3C32C
:102D5000C3C6FC080D0D0A01003C66C3C0C0C0C05C
:102D6000C0C0C0C3663C080D0D0A0100FCC6C3C349
:102D7000C3C3C3C3C3C3C3C6FC080D0D0A0100FF10
:102D8000C0C0C0C0C0FCC0C0C0C0C0FF080D0D0A9C
:102D90000100FFC0C0C0C0C0FCC0C0C0C0C0C008EF
:102DA0000D0D0A01003C66C3C0C0C0CFC3C3C3C37E
:102DB000673D080D0D0A0100C3C3C3C3C3C3FFC3EE
:102DC000C3C3C3C3C3080D0D0A0100FF18181818A8
:102DD00018181818181818FF090D1A0A01001F8072
:102DE00006000600060006000600060006000600B3
:102DF000C600C6006C003800080D0D0A0100C3C3F0
:102E0000C6C6CCCCF8CCCCC6C6C3C3080D0D0A01CF
:102E100000C0C0C0C0C0C0C0C0C0C0C0C0FF080D9E
:102E20000D0A0100C3C3E7E7FFDBDBDBDBC3C3C382
:102E3000C3080D0D0A0100C3E3E3F3F3DBDBCFCFDF
:102E4000C7C7C3C3080D0D0A01003C66C3C3C3C393
:102E5000C3C3C3C3C3663C080D0D0A0100FCC6C34F
:102E6000C3C3C3C6FCC0C0C0C0C0080E0E0A01FF69
:102E70003C66C3C3C3C3C3C3C3DBCF663E03080DF5
:102E80000D0A0100FCC6C3C3C3C3C6FCCCC6C6C37F
:102E9000C3080D0D0A01003C66C3C0C0603C0603B8
:102EA00003C3663C080D0D0A0100FF181818181816
:102EB00018181818181818080D0D0A0100C3C3C3F4
:102EC000C3C3C3C3C3C3C3C3663C080D0D0A01001B
:102ED000C3C3C3C36666663C3C3C181818080D0D96
:102EE0000A0100C3C3C3C3C3DBDBDBDBE7E7C3C348
:102EF000080D0D0A0100C3C366663C3C183C3C66E5
:102F000066C3C3080D0D0A0100C3C366663C3C18C6
:102F1000181818181818080D0D0A0100FF030306E9
:102F20000C0C18303060C0C0FF060D0D0A0200FC0A
:102F3000C0C0C0C0C0C0C0C0C0C0C0FC070C0C0A2C
:102F40000200C0C06060303018180C0C0606060D78
:102F50000D0A0200FC0C0C0C0C0C0C0C0C0C0C0CD8
:102F6000FC0804040A0109183C66C30901020A01AD
:102F7000FFFF800403030A030AC060300808080A40
:102F800001003E63037FC3C3C37D080D0D0A01002A
:102F9000C0C0C0C0C0DCE6C3C3C3C3E6DC080808C9
:102FA0000A01003E63C0C0C0C0633E080D0D0A01A7
:102FB0000003030303033B67C3C3C3C3673B0808A2
:102FC000080A01003C66C3FFC0C0633E080D0D0A3D
:102FD00001001E33333030FC3030303030303008B8
:102FE0000C0C0A01FC7DC7C6C6C67CC07EC3C3C329
:102FF0007E080D0D0A0100C0C0C0C0C0DCE6C3C31E
:10300000C3C3C3C3080B0B0A0100181800781818B3
:1030100018181818FF070F0F0A02FC0606001E06F4
:10302000060606060606C6C6C67C080D0D0A010081
:10303000C0C0C0C0C0C6CCD8F0F8CCC6C3080D0D07
:103040000A0100781818181818181818181818FFF6
:103050000808080A0100B6FFDBDBDBDBDBDB080866
:10306000080A0100DCE6C3C3C3C3C3C30808080AD7
:1030700001003C66C3C3C3C3663C080C0C0A01FCD8
:10308000DCE6C3C3C3C3E6DCC0C0C0C0080C0C0A86
:1030900001FC3B67C3C3C3C3673B030303030808C7
:1030A000080A0100DE736060606060600808080A5A
:1030B00001007EC3C07E0303C37E080B0B0A010020
:1030C000303030FC3030303030331E0808080A0110
:1030D00000C3C3C3C3C3C3673B0808080A0100C3D6
:1030E000C366663C3C18180808080A0100C3C3C33D
:1030F000DBDBDBFF660808080A0100C3663C181822
:103100003C66C3080C0C0A01FCC3C3C3C3C3C3673A
:103110003B03C3663C0708080A0200FE060C183091
:1031200060C0FE080D0D0A01000F1818181818F0DD
:1031300018181818180F020D0D0A0400C0C0C0C0DE
:10314000C0C0C0C0C0C0C0C0C0080D0D0A0100F0A2
:1031500018181818180F1818181818F00803030A68
:10316000010A73DBCEFFFFFFFFFFFFFFFFFFFFFF43
:10317000FFFFFFFFFFFFFFFFFFFFFFFFFFFFFFFF5F
:10318000FFFFFFFFFFFF0000000A0010020D0D0A05
:103190000400C0C000C0C0C0C0C0C0C0C0C0C00724
:1031A0000C0C0A010018183C66C2C0C0C2663C186C
:1031B00018090C180A01001E0033003300300030DB
:1031C00000FC00300030003000F800AD80E700095E
:1031D00009120A00018080DD807F006300630063C4
:1031E000007F00DD808080080B0B0A010081C36630
:1031F0003C7E187E18181818020D0D0A0400C0C075
:10320000C0C0C0000000C0C0C0C0C0080D0D0A0191
:10321000003C66C66078CC66331E0663663C0602D8
:10322000020A020BCCCC080B0B0A01003C66C3BDA2
:10323000A5A1A5BDC3663C0809090A01043E4303D4
:103240007FC3C37D00FF090B160A000004800D80B8
:103250001B0036006C00D8006C0036001B000D808F
:1032600004800804040A0104FFFF03030601010AA5
:103270000206FC080B0B0A01003C66C3BDA5BDA9F4
:10328000ADC3663C0801010A010DFF0606060A02ED
:10329000073078CCCC78300807070A01021818FFED
:1032A000181800FF0507070A020670D8183060C01A
:1032B000F80507070A020670D8183018D8700403FA
:1032C000030A030A3060C0070A0A0A01FDC6C6C61F
:1032D000C6C6EEFAC0C0C0080D0D0A01007FFFFB94
:1032E000FBFB7B1B1B1B1B1B1B1B0303030A040594
:1032F000E0E0E00504040A02FC3018D87004070777
:103300000A020660E060606060F00709090A0104D3
:10331000386CC6C6C66C3800FE090B160A01009050
:1033200000D8006C0036001B000D801B0036006CBE
:1033300000D8009000080C0C0A010140C04142E492
:103340000812264A9E0202080C0C0A010140C041E4
:1033500042E40816294182040F080C0C0A0101E01E
:10336000106112E40812264A9F0202080D0D0A019C
:10337000001818001818183060C3C3C3663C080F43
:103380000F0A010060301800183C66C3C3C3FFC3B6
:10339000C3C3C3080F0F0A0100060C1800183C66CF
:1033A000C3C3C3FFC3C3C3C3080F0F0A0100183C44
:1033B0006600183C66C3C3C3FFC3C3C3C3080F0F73
:1033C0000A0100327E4C00183C66C3C3C3FFC3C36E
:1033D000C3C3080F0F0A0100666600183C6666C387
:1033E000C3C3FFC3C3C3C30810100A01003C666611
:1033F0003C00183C66C3C3C3FFC3C3C3C3080D0D61
:103400000A01001F3C6C6CCCCCFFCCCCCCCCCCCF1C
:103410000811110A01FC3C66C3C0C0C0C0C0C0C0D6
:10342000C3663C180C6C38080F0F0A010060301896
:1034300000FFC0C0C0C0FCC0C0C0C0FF080F0F0A62
:1034400001000C183000FFC0C0C0C0FCC0C0C0C02C
:10345000FF080F0F0A0100183C6600FFC0C0C0C083
:10346000FCC0C0C0C0FF080F0F0A01006666000064
:10347000FFC0C0C0C0FCC0C0C0C0FF060F0F0A0222
:103480000060301800FC303030303030303030FCEC
:10349000060F0F0A020018306000FC303030303068
:1034A00030303030FC060F0F0A02003078CC00FCC0
:1034B000303030303030303030FC060F0F0A020030
:1034C000CCCC00FC30303030303030303030FC0983
:1034D0000D1A0A00007E00630061806180618061D6
:1034E00080F980618061806180618063007E000876
:1034F0000F0F0A0100327E4C00C3E3F3F3DBDBCF96
:10350000CFC7C3C3080F0F0A010030180C003C6678
:10351000C3C3C3C3C3C3C3663C080F0F0A01000C77
:103520001830003C66C3C3C3C3C3C3C3663C080FA3
:103530000F0A0100183C66003C66C3C3C3C3C3C383
:10354000C3663C080F0F0A0100327E4C003C66C384
:10355000C3C3C3C3C3C3663C080F0F0A010066663A
:10356000003C66C3C3C3C3C3C3C3C3663C070808E8
:103570000A010082C66C38386CC682080F0F0A0137
:10358000FF013E66C7C7CBCBCBD3D3D3E3667C80EA
:10359000080F0F0A010030180C00C3C3C3C3C3C314
:1035A000C3C3C3663C080F0F0A01000C183000C3E8
:1035B000C3C3C3C3C3C3C3C3663C080F0F0A010020
:1035C000183C6600C3C3C3C3C3C3C3C3C3663C08BC
:1035D0000F0F0A0100666600C3C3C3C3C3C3C3C3DE
:1035E000C3C3663C080F0F0A01000C183000C3C3A8
:1035F00066663C3C1818181818070D0D0A0200C022
:10360000C0C0FCC6C6C6C6C6FCC0C0C0080D0D0AF8
:1036100001001C36636366EC6C66636363666C086A
:103620000C0C0A010030180C007EC3037FC3C3C317
:103630007D080C0C0A01000C1830007EC3037FC308
:10364000C3C37D080C0C0A0100183C66007EC3034E
:103650007FC3C3C37D080C0C0A0100327E4C007E80
:10366000C3037FC3C3C37D080B0B0A01006666005A
:103670007EC3037FC3C3C37D080D0D0A01003C66F2
:10368000663C007EC3037FC3C3C37D0808080A01EC
:1036900000769B1B1E78D8D96E080C0C0A01FC3EE4
:1036A00063C0C0C0C0633E180C6C38080C0C0A0123
:1036B00000603018003C66C3FFC0C0633E080C0CBD
:1036C0000A0100060C18003C66C3FFC0C0633E0838
:1036D0000C0C0A0100183C66003C66C3FFC0C063C6
:1036E0003E080B0B0A01006666003C66C3FFC0C0C3
:1036F000633E080C0C0A0100603018007818181896
:10370000181818FF080C0C0A01000C183000781863
:103710001818181818FF080C0C0A0100183C66004D
:1037200078181818181818FF080B0B0A010066669D
:103730000078181818181818FF080D0D0A010088CD
:10374000D87070D88C3E67C3C3C3663C080C0C0AA3
:103750000100327E4C00DCE6C3C3C3C3C3C3080C04
:103760000C0A0100603018003C66C3C3C3C3663C4A
:10377000080C0C0A0100060C18003C66C3C3C3C346
:10378000663C080C0C0A0100183C66003C66C3C38A
:10379000C3C3663C080C0C0A0100327E4C003C6638
:1037A000C3C3C3C3663C080B0B0A01006666003C3A
:1037B00066C3C3C3C3663C080A0A0A01011818009D
:1037C00000FFFF00001818080A0A0A01FF013E6600
:1037D000CBCBD3D3667C80080C0C0A010030180CCC
:1037E00000C3C3C3C3C3C3673B080C0C0A01000674
:1037F0000C1800C3C3C3C3C3C3673B080C0C0A0146
:1038000000183C6600C3C3C3C3C3C3673B080B0BAC
:103810000A0100666600C3C3C3C3C3C3673B081085
:10382000100A01FC0C183000C3C3C3C3C3C3673BF9
:1038300003C3663C0711110A02FCC0C0C0C0C0C06F
:10384000F8CCC6C6C6CCF8C0C0C0C0080F0F0A016D
:10385000FC666600C3C3C3C3C3C3673B03C3663C04
:1038600011241FBECFEFD8E0DEBFCDBF11E0A0E036
:10387000B1E0ECEFF7E602C005900D92A03FB10772
:10388000D9F713E0A0EFB1E001C01D92A03DB10750
:10389000E1F70E9446240C94FC330C940000109233
:1038A0009B02E1E8F0E080818B60808310928500CC
:1038B0001092840087EA91E69093890080938800B3
:1038C000EFE6F0E080818260808308951F920F927E
:1038D0000FB60F9211248F939F93AF93BF93EF93E3
:1038E000FF9380919B028F3F11F410929B02A3EAF9
:1038F000B2E0EFE9F2E08C91811107C08081918103
:10390000009719F00197918380831896389682E08A
:10391000EF3EF80781F7FF91EF91BF91AF919F9133
:103920008F910F900FBE0F901F901895ECE9F2E069
:10393000A3EAB2E082E01082128211821482138222
:10394000168215828C933896189692E0EC3EF90711
:1039500091F70895A3EAB2E0E0E0F0E09C919230A4
:1039600081F493E0EE0FFF1F9A95E1F7E456FD4FC7
:103970008083728361835483438356834583178294
:10398000089531961896EA30F10541F70895FF92AF
:103990000F931F93CF93DF93C3EAD2E00DE912E0B8
:1039A000FF24F394D80112968D919C911397892B43
:1039B00069F4888181110AC0F882ED91FC91099522
:1039C000F801848195819383828318822896085F09
:1039D0001F4FF2E0C33FDF0729F7DF91CF911F911F
:1039E0000F91FF9008951092BC0094EA9093BC0050
:1039F0009091BC0097FFFCCF9091B900987F9830D0
:103A000099F48093BB0084E88093BC008091BC0053
:103A100087FFFCCF9091B900987F983119F081E031
:103A2000903419F480E0089581E008958093BB00FC
:103A300084E88093BC008091BC0087FFFCCF90910C
:103A4000B900987F81E0983209F480E0089584EC11
:103A50008093BC008091BC0087FFFCCF8091BB00AD
:103A6000089584E88093BC008091BC0087FFFCCF60
:103A70008091BB000895CF92DF92EF92FF920F9357
:103A80001F93CF93DF931F92CDB7DEB77A018901E1
:103A900069830E94F31C6981882311F081E015C0BD
:103AA000862F0E94161D67010E0D1F1DC016D10620
:103AB00041F0F60181916F010E94161D8823B1F338
:103AC000EDCF84E98093BC0080E00F90DF91CF912F
:103AD0001F910F91FF90EF90DF90CF900895CF92BC
:103AE000DF92EF92FF920F931F93CF93DF931F927A
:103AF000CDB7DEB7182F6A01790169830E94F31CE4
:103B00006981882311F081E023C0862F0E94161D51
:103B1000812F81600E94F31C8111F5CF860181E025
:103B2000E81AF108C8018C199D098E159F0530F41B
:103B30000E94271DF80181938F01F4CFEC0CFD1C2E
:103B40000E94311DF701808384E98093BC0080E0EE
:103B50000F90DF91CF911F910F91FF90EF90DF9029
:103B6000CF90089549E150E060E070E08CEE92E083
:103B70000C940F33CF93C82F69E973E285E093E08B
:103B80000E94AC2AC1110BC02091F401822F992709
:103B900087FD90959F932F9387E890E023C0C130D5
:103BA00059F42091F301822F992787FD90959F93D7
:103BB0002F9385E790E016C0C23019F58091F2018D
:103BC0008150873018F081E08093F201E091F2019A
:103BD000EE0FFF0BE352FE4F81818F9380818F9315
:103BE00088E690E09F938F9380E893E09F938F9374
:103BF0000E941B310F900F900F900F900F900F901D
:103C00004BC0C33009F048C08091F10181508C3025
:103C100018F081E08093F1018091F001811103C0DF
:103C200081E08093F00121E131E04AE060E085E04D
:103C300093E00E94272A2AE131E044E160E085E038
:103C400093E00E94272A809101018F9380910001C7
:103C50008F93E091F101F0E0EE0FFF1FEB53FE4F69
:103C600081818F9380818F938091F0011F928F9338
:103C70008CE291E09F938F9380E893E09F938F93E2
:103C80000E94F9308DB79EB70A960FB6F8949EBF82
:103C90000FBE8DBF4EE101C04AE020E833E060E096
:103CA00085E093E0CF910C94272A682F70E021E003
:103CB00030E04CE353E080ED90E00E946F1D809176
:103CC0003C030895982F92959F708F702AE0929FE1
:103CD000800D1124089582E00E94551E86FF02C0C7
:103CE0008F7101C08F730E94621E90E0089581E081
:103CF0000E94551E8F770E94621E90E0089584E016
:103D00000E94551E0E94621E90E0089583E00E946A
:103D1000551E0E94621E90E0089585E00E94551E87
:103D20000E94621E90E0089586E00E94551E0E9447
:103D3000621E90E008956AE00E94FF2E20E1829FBB
:103D4000900D1124892F0895FF920F931F93CF9305
:103D5000DF9300D000D000D0CDB7DEB7F090810067
:103D6000109281000E946B1E8093F4010E94771EC6
:103D70008093F3010E94861E8093F2010E948D1EA3
:103D80008093F1010E947F1E8093F0011092F80150
:103D900017E185E093E00E94F02B80E00E94BA1DBD
:103DA00085E093E00E94F52B8111F7CF8091F60119
:103DB0008823B1F09091F7018091F401992311F0DB
:103DC000815001C08F5F8093F4018091F40187FDE1
:103DD0001093F4018091F401883114F01092F401F1
:103DE0001092F6012FEF87E893E121508040904038
:103DF000E1F700C000008091F801823050F210928B
:103E0000F8011BE385E093E00E94F02B81E00E9423
:103E1000BA1D85E093E00E94F52B8111F7CF8091C8
:103E2000F6018823B1F09091F7018091F301992375
:103E300011F0815001C08F5F8093F3018091F301F5
:103E400087FD1093F3018091F3018C3314F01092ED
:103E5000F3011092F6012FEF87E893E121508040A3
:103E60009040E1F700C000008091F801882351F2F2
:103E70001092F80111E007E085E093E00E94F02B3A
:103E800082E00E94BA1D85E093E00E94F52B81112B
:103E9000F7CF8091F6018823B9F09091F7018091D6
:103EA000F201992311F0815001C08F5F8093F201DC
:103EB0008091F201181614F00093F2018091F20142
:103EC000883014F01093F2011092F6012FEF87E87A
:103ED00093E1215080409040E1F700C000008091C4
:103EE000F801882349F21092F80111E00FE185E012
:103EF00093E00E94F02B83E00E94BA1D85E093E0DE
:103F00000E94F52B8111F7CF8091F6018823B9F03B
:103F10009091F7018091F001992311F0815001C037
:103F20008F5F8093F0018091F001811102C00093B6
:103F3000F0018091F001803210F01093F0011092A6
:103F4000F6012FEF87E893E1215080409040E1F7A0
:103F500000C000008091F801882349F21092F80116
:103F600011E00CE085E093E00E94F02B83E00E94DA
:103F7000BA1D85E093E00E94F52B8111F7CF809167
:103F8000F6018823B9F09091F7018091F10199230E
:103F900011F0815001C08F5F8093F1018091F10198
:103FA000811102C00093F1018091F1018D3010F078
:103FB0001093F1011092F6012FEF87E893E1215061
:103FC00080409040E1F700C000008091F801882314
:103FD00049F21092F80100EE17E085E093E00E94AC
:103FE000F02B83E00E94BA1D85E093E00E94F52B40
:103FF0008111F7CF8091F601882329F12091F701F3
:104000008091000190910101222311F0019701C0DC
:10401000019690930101809300018091000190919D
:104020000101803E974020F41093010100930001AC
:1040300080910001909101018433984020F0109309
:104040000101009300011092F6018FEF97E823E140
:10405000815090402040E1F700C000008091F801BD
:10406000882309F4BACF8091F2019091F301209155
:10407000F4012E839D838C83198221E030E0AE0110
:104080004F5F5F4F60E070E080ED90E00E943B1D6D
:104090008E810E949B1E8E8321E030E0AE014A5F3C
:1040A0005F4F62E070E080ED90E00E943B1D8D81EB
:1040B0000E949B1E8D8321E030E0AE014B5F5F4F7D
:1040C00061E070E080ED90E00E943B1D8C810E94D9
:1040D0009B1E8C8321E030E0AE014C5F5F4F63E0BC
:1040E00070E080ED90E00E943B1D90910001809176
:1040F000F0012091F1012A8399830E949B1E8B83FA
:1041000021E030E0AE014D5F5F4F64E070E080ED94
:1041100090E00E943B1D8A810E949B1E8A8321E0C1
:1041200030E0AE014E5F5F4F65E070E080ED90E003
:104130000E943B1D8981805D0E949B1E898321E036
:1041400030E0AE014F5F5F4F66E070E080ED90E0E1
:104150000E943B1DF092810026960FB6F894DEBFB8
:104160000FBECDBFDF91CF911F910F91FF900895AA
:10417000CF938091020191E018160CF490E0909397
:104180004E03209167033091F901232720936603A2
:10419000309168034091FA013427309369036091AC
:1041A000F50191115AC0C1E018160CF0C0E08F3132
:1041B00024F48F301CF48FE001C08EE1992787FD35
:1041C000909570E0211107C021E0681779070CF085
:1041D00020E030E02BC04EE653E00E94FB2290939B
:1041E0005203809351032091EC0221110BC041E056
:1041F0009C01305E2115304208F040E08115904E60
:1042000034F009C0492F441F4427441F04C0809143
:104210001602811102C030E001C031E0442329F0D0
:1042200021E080911602811101C020E09091690384
:10423000CC2329F0992319F081E0311101C080E0ED
:1042400080936B03222329F0992319F081E0C11197
:1042500001C080E080936A0350C081958F3124F4BF
:104260008F301CF48FE001C08EE1992787FD909577
:1042700070E0211107C021E0861797070CF020E0BD
:1042800090E029C043E553E00E94FB229093500345
:1042900080934F032091EC025091690321110BC0D0
:1042A00041E09C01305E2115304208F040E081156C
:1042B000904E34F007C0492F441F4427441F02C0CA
:1042C000511102C090E001C091E0442319F021E0B7
:1042D000511101C020E080911602222319F021E043
:1042E000811101C020E020936C03882319F081E044
:1042F000911101C080E080936D0381E090914E03A5
:10430000911180E080936503809166038093670339
:104310008091690380936803CF9108950E94D3210F
:10432000559A5D9A0895CF92DF92EF92FF92CF93C4
:10433000DF9300D0CDB7DEB719821A825D9885E38E
:104340008A95F1F7000042E0BE016F5F7F4FCB011D
:104350000E94E02185E38A95F1F700005D9A69816A
:1043600070E0762F66278A81680F711D882777FD98
:104370008095982F0E94C12F20E030E040E05DE35F
:104380000E9425306B017C010E94932F6093F50100
:10439000C701B6010F900F90DF91CF91FF90EF9082
:1043A000DF90CF90089584B1877C84B984B188620E
:1043B00084B9229A2A9A81E58CBD81E08DBD089549
:1043C000262FFB013E2F321B341750F4DC013D91A8
:1043D000CD013EBD0DB407FEFDCF3EB53193F2CF0A
:1043E0000895529854985A985C98E9E6F0E08081D4
:1043F0008E6080838DB383608DBB08951F920F9272
:104400000FB60F9211248F939F934A9B04C089B1DA
:104410008295817005C089B18295817091E089276C
:104420008093F70181E08093F6019F918F910F9027
:104430000FBE0F901F9018951F920F920FB60F92FC
:1044400011242F938F939F93AF93BF93CF93DF93B9
:10445000EF93FF93C091FC0180919B0225E02C9F7C
:10446000E0011124C350DE4F90E0A0E0B0E088836B
:104470009983AA83BB83E091FC012E9FF001112454
:10448000E350FE4F81E084838091FC018F5F809335
:10449000FC018091FC01853011F41092FC018091A7
:1044A000F801823028F48091F8018F5F8093F80141
:1044B000FF91EF91DF91CF91BF91AF919F918F913C
:1044C0002F910F900FBE0F901F9018951F93CF93B1
:1044D000DF93F8941092FC011092FA01C09115023A
:1044E000D09101028091FD0190911102891B9927C1
:1044F00087FD909597FF03C0919581959109182F9D
:104500004091FA0150E080E090E075E08430910540
:10451000F9F0789FF001799FF00D1124E350FE4FE0
:1045200024812130F9F49C012F5F3F4F729FD0010D
:10453000739FB00D1124A350BE4F14966C91149725
:10454000613061F46C91E0816E1B67304CF006C005
:10455000C13041F4D13011F417301CF041E002C0F9
:10456000C90151E001968530910584F25093F9011B
:104570004093FA01E1E0F2E01082DF0114971D920E
:104580001D921D921C921397359682E0EA31F8072E
:1045900099F77894DF91CF911F910895CF93DF938E
:1045A000FB01E9011A821B821C821D82198218827A
:1045B0009F838E83798768875B874A87BC016F5F9B
:1045C0007F4F8FEF9FE70E940B2F7D876C879F01A6
:1045D0002F5F3F4F442737FD4095542F6FEF7FEFFC
:1045E0008FEF9FE30E941F2F2E873F87488B598BA9
:1045F000DF91CF910895CF92DF92EF92FF920F93C8
:104600001F93CF93DF938B01FA019C01261B370B7D
:10461000848595858217930784F0919581959109FA
:10462000281739076CF086819781289FE001299F20
:10463000D00D389FD00D112405C0CFEFDFE702C0A9
:10464000C1E0D0E8442737FD4095542F8281938103
:10465000A481B581280F391F4A1F5B1F8685978566
:10466000A089B18982179307A407B5075CF48283F8
:104670009383A483B583CC24CA94DC2CEC2C9FE3D5
:10468000F92E21C0B095A095909581959F4FAF4F81
:10469000BF4F281739074A075B075CF4828393836F
:1046A000A483B583CC24C394D12CE12C80ECF82EC8
:1046B0000AC02283338344835583A085B1850E9439
:1046C000F72E6B017C0180819181801B910BA2856B
:1046D000B3858A9F90018B9F300D9A9F300D1124D6
:1046E00011830083BE01882777FD8095982F6C0D7C
:1046F0007D1D8E1D9F1D8901222717FD2095322FBC
:10470000600F711F821F931F20E830E040E050E0EF
:104710000E941F2F213080E838078FEF4807580785
:1047200024F421E030E84FEF5FEFDA01C901811591
:1047300020E89207A105B10524F08FEF9FE7A0E0E4
:10474000B0E0DF91CF911F910F91FF90EF90DF903C
:10475000CF900895CF92DF92EF92FF920F931F9325
:10476000CF93DF930E946B1E8C010E94771E24E67C
:10477000209FE001219FD00D1124C80FD91F0E9456
:10478000861E880F991F8F5D9D4FFC01E590F49068
:104790000E94861E880F991F8D5E9D4FFC0105911A
:1047A00014910E94861E880F991F8B5F9D4FFC01FC
:1047B000C590D4900E94861E880F991F89509E4FE5
:1047C000FC0185919491EC16FD0618F4C017D107F1
:1047D00030F0CC16DD0638F4C817D90720F481E094
:1047E0008093160202C010921602DF91CF911F91A2
:1047F0000F91FF90EF90DF90CF9008958091690323
:10480000811103C04198429A0CC0809166038111C6
:1048100003C0419A429805C088B194E0892788B9BD
:10482000419A80916A03813021F498B1982798B910
:104830000895811101C0409A08950E9466224B9903
:1048400006C08091FB018F5F8093FB0103C04B99F1
:104850001092FB018091FB01853010F00C94A41E96
:10486000089580916A03882311F05E9808955E9AF6
:1048700008958FE19EE40197F1F700C0000040E148
:1048800063E071E085E093E00C94D32B0E94B21DAD
:10489000399A3A9A389A2FEF89EF90E02150804068
:1048A0009040E1F700C000000E948E210E94F1219B
:1048B0000E9439240E944F1C20E030E040E053E485
:1048C0006091F5027091F6028091F7029091F802E2
:1048D0000E9425300E948E2F4B015C0120E030E0C9
:1048E00040E053E46091F1027091F2028091F30292
:1048F0009091F4020E9425300E948E2F6B017C0162
:1049000020E030E040E053E46091ED027091EE026F
:104910008091EF029091F0020E9425300E948E2F2C
:10492000DC01CB012EE633E0A401B6010E94CE22C9
:1049300020E030E040E053E4609101037091020315
:1049400080910303909104030E9425300E948E2FD2
:104950004B015C0120E030E040E053E46091FD0257
:104960007091FE028091FF02909100030E94253019
:104970000E948E2F6B017C0120E030E040E053E488
:104980006091F9027091FA028091FB029091FC0211
:104990000E9425300E948E2FDC01CB0123E533E0FD
:1049A000A401B6010E94CE220E94961C48E050E06D
:1049B0006DE174E281E00E94AA1C47E050E060E0F3
:1049C00077E282E00E94AA1C4AE050E068EB70E2C5
:1049D00083E00E94AA1C4FE050E06CEA76E284E09B
:1049E0000E94AA1C45E050E06EEF73E285E00E9451
:1049F000AA1C48E552E06AEA73E286E00E94AA1C1B
:104A000040E951E061E374E287E00E94AA1C7894D7
:104A10000E94C71CFDCF0F931F93CF93DF9380910C
:104A20006603882319F000E011E002C001E010E005
:104A3000809169031F928F9381EA92E09F938F93F5
:104A4000C0E8D3E0DF93CF930E941B3169E973E2A2
:104A500085E093E00E94AC2A9E014AE060E085E098
:104A600093E00E94272A1F920F9389E992E09F9377
:104A70008F93DF93CF930E941B319E0144E160E04E
:104A800085E093E00E94272A1F921F9381E992E01C
:104A90009F938F93DF93CF930E941B319E014EE132
:104AA00060E085E093E00E94272A809116021F9221
:104AB0008F9387E892E09F938F93DF93CF930E9429
:104AC0001B319E0148E260E085E093E00E94272AC6
:104AD000809152038F93809151038F938DE792E0E1
:104AE0009F938F93DF93CF930E941B319E0142E3EC
:104AF00060E085E093E00E94272A809150038F9325
:104B000080914F038F9383E792E09F938F93DF937E
:104B1000CF930E941B318DB79EB784960FB6F89441
:104B20009EBF0FBE8DBF9E014CE360E085E093E029
:104B30000E94272A80916A031F928F9389E692E050
:104B40009F938F93DF93CF930E941B319E014AE086
:104B500061E485E093E00E94272A0E94861E9F93CD
:104B60008F9381E692E09F938F93DF93CF930E9480
:104B70001B319E0144E161E485E093E00E94272A15
:104B80000E9493210E9488300E948E2F7F936F9302
:104B900087E592E09F938F93DF93CF930E941B3121
:104BA0009E014EE161E485E093E00E94272A209176
:104BB0000201822F992787FD90959F932F938CE474
:104BC00092E09F938F93DF93CF930E941B318DB719
:104BD0009EB748960FB6F8949EBF0FBE8DBF9E013C
:104BE00048E26DE385E093E0DF91CF911F910F9153
:104BF0000C94272A85E093E00E94F02B0E940B255D
:104C000085E093E00E94F52B8111F8CF0895CF92B3
:104C1000DF92EF92FF920F93CF93DF9369E07EE1F3
:104C200085E093E00E94AC2A0E94771EEC010E946E
:104C30006B1EDF93CF939F938F9384E492E09F93B7
:104C40008F93C0E8D3E0DF93CF930E941B319E0186
:104C50004FE060E485E093E00E94272A69E07EE16E
:104C600085E093E00E94AC2A0E94941E7C010E9481
:104C70008D1ED82EC92E0E947F1E97012053384FBB
:104C80003F932F93CF92DF929F938F9386E392E08F
:104C90009F938F93DF93CF930E941B319E014EE32E
:104CA0006FE085E093E00E94272A0E9493210E94F2
:104CB00088306B017C0163EE7AE285E093E00E942C
:104CC000AC2AC701B6010E948E2F7F936F9381E3B8
:104CD00092E09F938F93DF93CF930E941B319E01AD
:104CE00049E267E385E093E00E94272A8DB79EB7EB
:104CF00048960FB6F8949EBF0FBE8DBF8091650396
:104D0000882349F097E2E92E91E0F92E0AE224E2A5
:104D100045E065E008C087E9E82E80E0F82E04E26F
:104D200020E24AE06AE085E093E00E941827DF91E4
:104D3000CF910F91FF90EF90DF90CF90089585E095
:104D400093E00E94F02B0E94072685E093E00E94EA
:104D5000F52B8111F8CF0895809117028F5F809312
:104D60001702813029F0833029F40E949F2602C067
:104D70000E94FA2580911702843011F410921702D4
:104D800008950F93CF93C09102010FE021E140E21B
:104D900060E485E093E00E9439286FEE72E085E0E0
:104DA00093E00E94AC2A8091020187FDC1951F9279
:104DB000CF938DEE91E09F938F9380E893E09F9344
:104DC0008F930E94F9300F900F900F900F900F90DB
:104DD0000F9020E833E047E263E385E093E0CF9172
:104DE0000F910C94272A85E093E00E94F02B0E94FB
:104DF000C12685E093E00E94F52B8111F8CF08953C
:104E00008091F601882389F080916903882369F0F5
:104E10009091F70180910201992311F0815001C016
:104E20008F5F809302010E94F3261092F60108958D
:104E30002F923F924F925F926F927F928F929F92AA
:104E4000AF92BF92CF92DF92EF92FF920F931F9398
:104E5000CF93DF9300D01F92CDB7DEB79B838A83B9
:104E6000362E142F322F702E39830E9460283981FC
:104E7000882309F44FC087E0830F86958695869531
:104E8000A82EB12C710E27E0320E832F86958695C1
:104E90008695882E912CE32D98E0899FE00D1124B2
:104EA00049EF642E6E0E532C530E3770432E59EF7C
:104EB000252E230E2E0E171569F16701332D852D32
:104EC000831B883080F0F601049122E0412F632F8C
:104ED0008A819B8139830E940C2CFFEFCF1ADF0A55
:104EE0003981385FECCFF701E80DF91D442071F0EE
:104EF000C490D62CC0FE06C0412F6D2D8A819B81A7
:104F00000E94042CD394C6942D10F4CFEA0CFB1C01
:104F10001F5FD1CF0F900F900F90DF91CF911F9116
:104F20000F91FF90EF90DF90CF90BF90AF909F9048
:104F30008F907F906F905F904F903F902F9008954B
:104F4000DF92EF92FF920F931F93CF93DF93EC01C9
:104F5000D62E142FF22EE0FE0DC0402F411B622FE3
:104F60006D0D0E94042C402F4D19612F6F0DCE0145
:104F70000E94042CE1FE0EC0402F411B6F2D6D19C5
:104F8000CE010E94042C402F4D196F2D611BCE01C4
:104F90000E94042CE3FE0EC0402F410F6F2D6D0DBB
:104FA000CE010E94042C402F4D0D612F6F0DCE01BC
:104FB0000E94042CE2FE15C0402F410F6F2D6D1989
:104FC000CE010E94042C402F4D0D6F2D611BCE0190
:104FD000DF91CF911F910F91FF90EF90DF900C9494
:104FE000042CDF91CF911F910F91FF90EF90DF90F4
:104FF00008959F92AF92BF92CF92DF92EF92FF926D
:105000000F931F93CF93DF93EC01B62EA42E122F94
:10501000902EFF24F394F21AC22EC194CC0CE02EF1
:10502000042F262F412F60E00E94A027D12CD116FB
:10503000A0F4F7FC04C01150C394C394FC0CD394A7
:105040008D2D880F8F5FF80EE92C0A2D2B2D412F07
:105050006D2DCE010E94A027EACFDF91CF911F9145
:105060000F91FF90EF90DF90CF90BF90AF909F9007
:105070000895DF92EF92FF920F931F93CF93DF93E8
:10508000EC01162FF42EE22ED02E81E0820F282F75
:10509000220F481B681B022FCE010E946028882324
:1050A00039F00D2D2E2D4F2D612FCE010E94F927A5
:1050B000DF91CF911F910F91FF90EF90DF900895B6
:1050C0000F93FC010150040F84A996A9941718F0BE
:1050D000081728F402C0081750F0041740F42150B4
:1050E000260F83A995A9961720F4281720F480E0AD
:1050F00007C0281720F481E0261710F0F8CF81E0D0
:105100000F910895BF92CF92DF92EF92FF920F938B
:105110001F93CF93DF938C01EB01B42E690180E1E3
:105120004817B1F1841770F0EAE04E133CC042E03A
:10513000C8010E94242D49EC52E0BE01C8010E9422
:10514000632D31C0F1E14F1731F185E148132BC0D8
:10515000EA80FB8041EC52E0C8010E94632DF70118
:105160004481406BBE01C8010E94532D41E0BE0145
:10517000C8010E944A2DAE01B801C7010E94622CED
:10518000882301F140E0BE01C8010E942D2D0BC013
:1051900048EB52E002C04DEA52E0BE01C8010E9455
:1051A000632D81E010C096014B2DBE01C801DF9137
:1051B000CF911F910F91FF90EF90DF90CF90BF9014
:1051C0000C94DA2C80E0DF91CF911F910F91FF902A
:1051D000EF90DF90CF90BF900895FC01E60FF11D96
:1051E000849190E0982F88273196E4918E0F911D3D
:1051F0000895FC01849108950E94F928882311F0F4
:10520000823011F486E0089583E0089580E00895E7
:1052100066E00C94ED2868E00C94ED280A96FC01F9
:10522000849108950B96FC0184910895AF92BF92EA
:10523000CF92DF92EF92FF920F931F93CF93DF9362
:10524000EC01D62E0C811D81C8010E94F928E82EA0
:10525000C8010E94FC28A82E21E0E21619F0CC24F7
:10526000CA9402C06FE0C62EC8010E940E29F82E13
:10527000C8010E941229B82EC8010E940B29E0E63D
:10528000ED1540F4009731F09801280F391F51E6D1
:10529000F52E10C0C8010E940829F0E49801FD1500
:1052A00038F4009729F0280F391F41E4F42E02C08A
:1052B0002F5E3F4FBD1440F4188A1B8A1C8A198A3E
:1052C0001A8A80E090E04CC0BF14B0F34A2D50E041
:1052D000F90184918F3F19F42F5F3F4F3CC0FD10BF
:1052E00032C0A9014F5F5F4FEE2019F0F2E0EF12DC
:1052F00013C0F90184918B8BFA0144914C8BF90115
:105300003396E491E88BF9013496E491E98BF90145
:105310003596E491EA8B15C0982F9F7092509A8B26
:1053200082958F70898BFA014491842F8F708C8BBA
:1053300042954F704B8BF9013296E491E295EF70F4
:10534000E88BC9010DC0F9013296E491EC212E0FD2
:10535000311D240F351FFB1409F4AECFF394B8CFE1
:10536000DF91CF911F910F91FF90EF90DF90CF9041
:10537000BF90AF9008954F925F927F928F929F92CD
:10538000AF92BF92CF92DF92EF92FF920F931F9353
:10539000CF93DF931F92CDB7DEB72C01162F742E5B
:1053A000622F0E9416296C01009709F43EC0F20199
:1053B000848195810E94FC28F82EF201838804895B
:1053C0009188910E8289781A172D101B282D412F54
:1053D000692DC2010E946028882321F1CF0CD11CC5
:1053E000F7E08F0E869486948694A82CB12C17151E
:1053F000C9F0392D76018E2D8C19881578F4F701B6
:10540000049120E0412F632FC20139830E940C2CAC
:10541000FFEFEF1AFF0A3981385FEDCFCA0CDB1CB2
:105420001F5FE5CFF201808901C080E00F90DF911E
:10543000CF911F910F91FF90EF90DF90CF90BF9091
:10544000AF909F908F907F905F904F900895AF9214
:10545000BF92DF92EF92FF920F931F93CF93DF9350
:1054600000D0CDB7DEB78C01E62EF42EDC015596C8
:10547000ED91FC91569729833A830995F80E29817D
:10548000A22E3A81B32ED12CF50121915F01222366
:1054900041F04F2D6E2DC8010E94BB29E80ED80E99
:1054A000F3CF8D2D0F900F90DF91CF911F910F9122
:1054B000FF90EF90DF90BF90AF900895DC011496BD
:1054C0008D919C911597009709F43FC057962C91A8
:1054D0005797FC01211108C03596E4915896EC933A
:1054E0005897FC013C9611C0213041F43F96E4915D
:1054F0005896EC935897FC01709607C03D96E4913E
:105500005896EC935897FC013E96849159968C934B
:10551000599758968C915897992787FD9095599649
:105520002C915997821B910927FD93955A962C919E
:105530005A97203441F0829FC0011124F6E09695DD
:105540008795FA95E1F75B968C93089526E039E20A
:10555000FC01368B258B0895CF93DF93EC018C8172
:105560009D818617970749F07D836C83CE010E9449
:105570005E2A86E099E29E8B8D8BDF91CF91089514
:105580001F93CF93DF93EC011D821C821F821E822A
:10559000198681E0888782E28A871F861E8680E0DE
:1055A00090E02FEFFE01E80FF91F23A301968E3044
:1055B0009105C1F711E018A3CE010E94A62A1F8B06
:1055C000188E198E80E48A8F1B8E83E29DE29AAB3F
:1055D00089ABDF91CF911F910895DB01ED91FC9193
:1055E0000994EF92FF921F93CF93DF9300D0CDB732
:1055F000DEB77C01DC01D196ED91FC91D29782E07F
:1056000069837A83099520E030E04AE069817A81F4
:10561000C7010E94ED2A182FD701D196ED91FC9178
:10562000D29783E00995D701D196ED91FC91D2975D
:1056300080E00995812F0F900F90DF91CF911F91FE
:10564000FF90EF9008950F931F93CF93DF93EC019A
:105650008B01E9A9FAA982E00995E9A9FAA981E0F3
:10566000099520E030E044E1B801CE010E94ED2A26
:105670009E012D5C3F4F47E1B801CE010E94ED2A0B
:10568000E9A9FAA980E0DF91CF911F910F910994C8
:10569000FF920F931F93CF93DF93EC018B01E9A946
:1056A000FAA982E00995E9A9FAA981E0099520E023
:1056B00030E045E1B801CE010E94ED2AF82E8823A2
:1056C00041F09E012D5C3F4F47E1B801CE010E94A1
:1056D000ED2AE9A9FAA980E009958F2DDF91CF91F4
:1056E0001F910F91FF900895FC01448F258F9C011D
:1056F000245E3F4F42E30C94ED2ACF93DF931F9239
:10570000CDB7DEB79E012F5F3F4F46E40E94ED2AE2
:1057100089810F90DF91CF910895CF93DF931F92EE
:10572000CDB7DEB79E012F5F3F4F47E40E94ED2AC1
:1057300089810F90DF91CF91089520E030E048E417
:105740000C94ED2ACF93DF93EC016A817B810E9458
:105750007D2B88836A817B81CE010E948D2B89837A
:105760006A817B81CE010E949D2B8B879E012D5CDF
:105770003F4F6A817B8147E1CE01DF91CF910C944D
:10578000ED2ACF93DF93EC016A817B810E94F12A9D
:10579000882329F0CE010E94A22B81E001C080E085
:1057A000DF91CF910895EF92FF920F931F93CF93C4
:1057B000DF931F92CDB7DEB77C018B0149830E9436
:1057C000C02AF70113830283498146A7C7010F90BE
:1057D000DF91CF911F910F91FF90EF900C94C12B0F
:1057E000FC01628173810C94232BCF93DF93EC0136
:1057F000EE85FF85309709F009956A817B81CE019E
:10580000DF91CF910C94482B362F242FFC0162811D
:105810007381432F0C94742B0F93FC01828193812D
:10582000648F458F278F068F9F01245E3F4F4BE388
:10583000BC01CF010F910C94ED2ADC011696ED917D
:10584000FC91179715968C919F01280F311DC90166
:105850001192E817F907E1F70895FC0191E08381BF
:10586000861708F490E021E0461708F020E0322F78
:10587000392B81E05281451708F480E0832392237D
:10588000892B0895DC01FB01108212968C911297EE
:10589000818315968C9115978150828313968C91F4
:1058A00083830895FB0141812381213029F0233036
:1058B00031F468EF640F04C0642F485F01C0642FA7
:1058C0000C942D2CFC01CB01BA0126813781458136
:1058D0000C945C2DDC011696ED91FC9117971296B5
:1058E0008C91481B477081E090E0042E01C0880F26
:1058F0000A94EAF7E60FF11D3081222311F0832B81
:1059000002C08095832380830895FB014181DC01DF
:1059100012962C911297421768F013962C911397B8
:10592000241740F0608115962C91621718F4248199
:105930000C946A2C0895CF92DF92FF920F931F93DD
:10594000CF93DF9300D0CDB7DEB78C016B01FB01A5
:10595000F2808381813039F070F0823039F0833009
:1059600041F020E001C021E030E007C020E03FEF3F
:1059700004C02FEFF9CF20E031E0F7FE08C0B601F8
:10598000C80129833A830E94852C3A812981F60136
:105990008081830F80838181820F8183FF0C69F76F
:1059A0000F900F90DF91CF911F910F91FF90DF909B
:1059B000CF9008950F931F93CF93DF938901FB013D
:1059C000C281D3814233F9F068F4453109F147319E
:1059D00041F1443181F5CE010E941D2CCE010E947F
:1059E000DA2E29C0463411F1473411F14B3319F541
:1059F000B901CE010E94522C8823E9F0B801CE01F2
:105A00000E949B2C18C0B901CE010E94852C13C0A6
:105A1000CE010E94E12E882381F0CE010E941D2C30
:105A20000AC0B901CE010E94422C05C08D8101C07F
:105A30008981F801808381E001C080E0DF91CF910E
:105A40001F910F9108950895DB011496ED91FC913B
:105A5000159720E030E061E00994DB011496ED91A8
:105A6000FC91159720E030E063E00994DB01149687
:105A7000ED91FC91159720E030E040E064E009945E
:105A8000DB011496ED91FC91159720E030E041E0A8
:105A900064E00994DB011496ED91FC91159720E0E8
:105AA00030E062E00994DB011496ED91FC911597CA
:105AB00020E030E065E00994DB011496ED91FC9163
:105AC000159766E00994AF92BF92CF92DF92EF9262
:105AD000FF920F931F93CF93DF931F92CDB7DEB743
