:100000000C94341C0C9402220C9420220C94511C4D
:100010000C94511C0C94511C0C94511C0C94511CAC
:100020000C94511C0C94511C0C94511C0C946A1C83
:100030000C94511C0C94511C0C94511C0C94511C8C
:100040000C94511C0C94511C0C94511C0C94511C7C
:100050000C94511C0C94511C0C94511C0C94511C6C
:100060000C94511C0C94511C5365742064617920CC
:100070003D20257300536574206D696E757465208D
:100080003D20253032640053657420686F757220FE
:100090003D20253032640000C00100004002000015
:1000A00040020000781E000064120000441200604C
:1000B000081802F0188805971084741921C68C213D
:1000C000614286034242600C422238064C3A60028A
:1000D000700E40F261C26F1C0670380018180000E4
:1000E00018180004063010FE41C27F02700E400254
:1000F0004C1A600C46223807426260214142C639E0
:1001000021C68C9F118474B01888056008180300FC
:100110004412000064120000781E0000400200003B
:1001200040020000C001000000000000008000004C
:10013000000000030000000007000000001F000096
:1001400000003F000000007F000000807F000000F2
:1001500080FF000000C0FF000000C0FF010000E0C1
:10016000FF010000E0FF010000F8FF010000F8FFC0
:10017000090000FEFF1D0000FFFF3F0080FFFF3F62
:1001800000C0FFFF7F00E0FFFFFF00F0FFFDFF006A
:10019000F0FFFDFF00F8BFFCFF01F87FFCFF01F856
:1001A0003FFCFF01FC1FF8FF03FC17FCFF03F80FE7
:1001B000F8FF01F807E8FF01FC07F0FF01F807E08E
:1001C000FF00F807C0FF01F00780FF00F00780BFC5
:1001D00000E00F805F00E01F803F00801FC01F0015
:1001E000803BC00D00001EA003000038C0010000CD
:1001F0000000000000000000009808980898089887
:10020000089808FC08FC0814055E065E065E065E9B
:10021000065E067805B004850285028502850285A2
:1002200002B0044D03260226022602260226024DB3
:10023000032564B04300253032642F253032642F0B
:100240002534640025643A2530326400536F6C6CA9
:100250002F54653D25640054656D2F72653D2564FE
:1002600000464C41473D2025640052656C61793D54
:1002700020256400436F756E7455703D2025640021
:10028000436F756E74446F776E3D20256400546D26
:10029000456E623D202564004175743D2025640053
:1002A0004D616E3D2025640053744F6E4F66663D70
:1002B00020256400FFE0FFD1AFFF32FFD0FFFEFF3B
:1002C000E0FFD1AEFFD0FFFEFFE0FFD11000FFFE48
:1002D000FFD0FFE0FFC1FFD1AED580A83FD30040E3
:1002E0008D142000A1C8DA1281CFD9F1DB402EA4F1
:1002F000A6AFFFD0FFFE00221FFEFA11040808D1AE
:1003000020FFFB19FA11FB00000007000003111188
:10031000090300E0E0E0E0E0E0E0E0E0E0E0E00051
:1003200000E0E0E00807070C020AE7E7E7E7E7E795
:10033000E70E112210010003180718063806303F97
:10034000FC3FFC0C600C601C6018E0FFF8FFF0390B
:10035000C031803180718063800C152A0E01FD024E
:10036000000F803FC07FE0F2E0E2E0E200FA007EB2
:10037000003FC00FE003F002F0E270E270F2F07FA5
:10038000E03FC00F00020002001511331701003ECC
:1003900003007F0700630600C18E00C18C00C19876
:1003A00000C1B8006330807F77E03E663000EC1813
:1003B00000CC1801CC18018C18030E380707F00682
:1003C00003E01011221201001F803FC079E070E0AD
:1003D00071E039C03F801F003F1E779CF3DCE1FCD9
:1003E000E0FCE078787C7FFE1FCF03070709030A53
:1003F000E0E0E0E0E0E0600514140902FD38387048
:100400007070F0E0E0E0E0E0E0E0E0F070707030AC
:10041000380514140902FDE06070707038383838FF
:1004200038383838383870707060E00909120F03B6
:10043000083600360036009C80FF809C80360036EF
:100440000036000E0E1C1805000200020002000219
:100450000002000200FFFCFFFC020002000200029A
:1004600000020002000506060701FD38707060609A
:10047000E0060303080104FCFCFC0303030702007D
:10048000E0E0E00812120A01FF0706060E0C0C0C51
:100490001C181838303030706060E00B11220D01EC
:1004A000001F003F8071C070C0E0E0E0E0E0E0E0ED
:1004B000E0E0E0E0E0E0E0E0E0E0E070C071C03FFC
:1004C000801F000711110D02000E3EFEFECE0E0E23
:1004D0000E0E0E0E0E0E0E0E0E0E0C11220D010043
:1004E0000F803FE078E070700070007000F001E075
:1004F00003E007C00F801E003C00F800FFF0FFF093
:10050000FFF00B11220D01001F007FC0F1E0E0E0C1
:1005100000E000E001C00F800F8001C000E000E0BB
:10052000E0E0F1E0FFC07F801F000C11220D010010
:1005300003C007C007C00FC01DC01DC039C071C0B7
:1005400071C0E1C0FFF0FFF0FFF001C001C001C0C9
:1005500001C00B11220D0100FFC0FFC0FFC0E00071
:10056000E000E000EF80FFC0F1E0E0E000E000E04C
:10057000E0E0E1E0FFC07F803F000B11220D0100B1
:100580000F003FC039E070E06000E000EF80FFC086
:10059000F1E0E0E0E0E0E0E0E0E060E071C03F805A
:1005A0001F000B11220D0100FFE0FFE0FFE000E063
:1005B00001E001C003C003800780078007000F002F
:1005C0000E001E001C003C003C000B11220D01001F
:1005D0001F007FC0F1E0E0E0E0E0E0E071C03F80BC
:1005E0003F8071C0E0E0E0E0E0E0E0E0F1E07FC00B
:1005F0001F000B11220D01001F003F8071C0E0C0E1
:10060000E0E0E0E0E0E0F1E07FE03EE000E000E09C
:10061000E0E0E1C071C07F801E00030C0C07030006
:10062000E0E0E0000000000000E0E0E0050E0E0861
:1006300001FE38383800000000003838707060E083
:100640000E0C18180501000C003C01E007003C00EE
:10065000E000E0003C00070001E0003C000C0E065A
:100660000C180504FFFCFFFC00000000FFFCFFFC71
:100670000E0C18180501C000F0001E00038000F0E9
:10068000001C001C00F003801E00F000C0000A11D6
:10069000220C01003E007F80E380C1C001C001C088
:1006A000038007800E001C001800180018000000CE
:1006B0000000180018001616421801FB00FE000387
:1006C000FF800FFFE01F01F03E00F078F77879FF20
:1006D0003871CF3CF3871CE3871CE3871CE3871C3E
:1006E000E3871CE3CF38F1FFF871FBF07871E03C51
:1006F00000001F00000FFF0007FF0000FF001011A7
:100700002210000003C003C003E007E007F00F70F1
:100710000E700E781E381C381C3C3FFC3FFC7FFEE0
:10072000780E700FF0070C11220F0200FFC0FFE0DF
:10073000FFF0E0F0E070E070E0E0FFC0FFC0E0E05C
:10074000E070E070E070E0F0FFF0FFE0FF800E117D
:10075000221001000FC01FF03FF87878703CF03C89
:10076000E000E000E000E000E000E000703C703CF1
:1007700038781FF00FC00E1122110200FF00FFE0B9
:10078000FFF0E0F8E038E03CE01CE01CE01CE01C7E
:10079000E01CE03CE038E0F8FFF0FFE0FF800B11E8
:1007A000220F0200FFE0FFE0FFE0E000E000E000D9
:1007B000E000FFE0FFE0E000E000E000E000E0003B
:1007C000FFE0FFE0FFE00B11220E0200FFE0FFE080
:1007D000FFE0E000E000E000E000FFC0FFC0FFC07D
:1007E000E000E000E000E000E000E000E0000F11C9
:1007F0002212010007E01FF83FFC7C1E700EF00E75
:10080000E000E000E0FEE0FEE0FEF00E700E7C0E88
:100810003FFE1FFE03F80D1122110200E038E03800
:10082000E038E038E038E038E038FFF8FFF8FFF86B
:10083000E038E038E038E038E038E038E0380311FC
:1008400011070200E0E0E0E0E0E0E0E0E0E0E0E00E
:10085000E0E0E0E0E00B11220E010000E000E0002B
:10086000E000E000E000E000E000E000E000E00088
:10087000E0E0E0E0E0F0E0FFC07FC03F000D1122CB
:10088000100200E0F0E0E0E1E0E3C0E780EF00EF1D
:1008900000FE00FE00EF00E780E780E3C0E1E0E15A
:1008A000F0E0F0E0780B11220E0200E000E000E042
:1008B00000E000E000E000E000E000E000E000E038
:1008C00000E000E000E000FFE0FFE0FFE012113395
:1008D000160200FC07C0FC0FC0FC0FC0FC0FC0EEEE
:1008E0001FC0EE1DC0EE1DC0E73DC0E739C0E739AF
:1008F000C0E7B9C0E3F1C0E3F1C0E3F1C0E1F1C08A
:10090000E1E1C0E1E1C00E1122120200F81CF81C66
:10091000FC1CFC1CEE1CEE1CE71CE71CE79CE39C8B
:10092000E3DCE1DCE1DCE0FCE0FCE07CE07C0F11FE
:100930002211010007C01FF03FF8783C701CF01E28
:10094000E00EE00EE00EE00EE00EF00E701C783CC3
:100950003FF81FF007E00C11220F0200FF80FFC0DC
:10096000FFE0E0F0E070E070E070E0F0FFE0FFC07A
:10097000FF00E000E000E000E000E000E000111116
:100980003313010007C0001FF0003FF800783C005F
:10099000701C00F01E00E00E00E00E00E00E00E013
:1009A0000E00E00E00F00E00701C00783C003FFFCF
:1009B000801FFF8007FF800D1122100200FFC0FF83
:1009C000F0FFF8E078E038E038E070FFE0FFC0FFCB
:1009D000F0E0F0E070E078E038E038E038E0380D42
:1009E00011220F01000FC03FE038F07070700078E6
:1009F000007E003FC01FF003F00078E038E038F0E0
:100A0000787FF03FE00F800D11220F0100FFF8FF0B
:100A1000F8FFF807000700070007000700070007B6
:100A20000007000700070007000700070007000E87
:100A30001122120200E01CE01CE01CE01CE01CE0A3
:100A40001CE01CE01CE01CE01CE01CE01CF03C78FE
:100A5000787FF83FF00FC0111133110000F00780CC
:100A6000700700780F00780E00381E003C1E001C36
:100A70001C001E3C001E3C000E38000F78000F705A
:100A80000007700007F00007E00003E00003E0004B
:100A9000171133170000F0381E707C1C707C1C7816
:100AA0007C3C786C3C38EE3838EE3838EE383CC652
:100AB000781DC7701DC7701DC7701D83700F83E040
:100AC0000F83E00F83E00F01E00E1122100100F010
:100AD0003C783878783C701CE01FE00FC007800736
:100AE000800FC01FC01DE038F078707078F03CE0D7
:100AF0003C0D11220F0100E038F078707078F0386A
:100B0000E03DE01DC01FC00F800F800700070007F9
:100B10000007000700070007000C11220E0100FF6C
:100B2000F0FFF0FFF001F001E003C0078007800F45
:100B3000001E003C003C007800F000FFF0FFF0FFDA
:100B4000F00516160902FBF8F8E0E0E0E0E0E0E06E
:100B5000E0E0E0E0E0E0E0E0E0E0E0F8F8071212DA
:100B60000A01FFC0E06060703030381818181C0CA3
:100B70000C0E0606060516160902FBF8F83838387A
:100B8000383838383838383838383838383838F825
:100B9000F80B0E1C17060004000E000A001B0011C3
:100BA00000110031802080208060C04040C0608003
:100BB0002080200C02040C00FDFFF0FFF004040470
:100BC00006000EE06030300A0C180D01001F007F97
:100BD0008071C001C01FC07FC0F1C0E1C0E1C0F39F
:100BE000C07FC03CC00C11220E0100E000E000E01C
:100BF00000E000E000EF80FFC0F1E0F0F0E070E026
:100C000070E070E070F0F0F8E0FFC0E7800A0C18C8
:100C10000C01001F007F8073C0E1C0E000E000E035
:100C200000E1C0E1C073C07F801F000C11220E01E3
:100C300000007000700070007000701F703FF0784E
:100C4000F0F0F0E070E070E070E070F0F071F03F14
:100C5000F01E700B0C180D01001F003F8071C0E1E9
:100C6000E0FFE0FFE0E000E000E1C071C07FC01FF6
:100C7000000811110901001F3F383838FFFF3838CC
:100C800038383838383838380C11220E01FB1F70CC
:100C90003FF078F0F0F0E070E070E070E070F0F0BD
:100CA00070F07FF01E700070707078E03FE01F8081
:100CB0000B11220D0100E000E000E000E000E00088
:100CC000EF80FFC0F1E0F0E0E0E0E0E0E0E0E0E055
:100CD000E0E0E0E0E0E0E0E0031111050100E0E029
:100CE000E00000E0E0E0E0E0E0E0E0E0E0E0E004A0
:100CF00016160702FB7070700000707070707070D4
:100D00007070707070707070F0F0E00B11220C0158
:100D100000E000E000E000E000E000E3C0E380E786
:100D200000EF00FE00FE00EE00EF00E780E780E34A
:100D3000C0E1E0031111060100E0E0E0E0E0E0E0E6
:100D4000E0E0E0E0E0E0E0E0E0E0130C241501008A
:100D5000E78F80EFDFC0F9F1E0F0E0E0E0E0E0E015
:100D6000E0E0E0E0E0E0E0E0E0E0E0E0E0E0E0E083
:100D7000E0E0E0E00B0C180D0100EF80FFC0F1E0B7
:100D8000E0E0E0E0E0E0E0E0E0E0E0E0E0E0E0E063
:100D9000E0E00C0C180E01001F803FC070E0F0E096
:100DA000E070E070E070E070F0F070E03FC01F8035
:100DB0000C11220E01FBE780FFC0F8E0F0F0E070BC
:100DC000E070E070E070F0F0F1E0FFC0EF80E00074
:100DD000E000E000E000E0000C11220E01FB1E70BC
:100DE0003FF071F0F0F0E070E070E070E070F0F073
:100DF00078F03FF01F70007000700070007000709D
:100E0000070C0C090100EEEEFEF0F0E0E0E0E0E09F
:100E1000E0E00A0C180C01003F007F80F1C0E1C047
:100E2000F8007F001F8003C0E1C0E3C07F803F0067
:100E3000080F0F0A0100183838FFFF3838383838E3
:100E400038383C3F0F0B0C180D0100E0E0E0E0E00B
:100E5000E0E0E0E0E0E0E0E0E0E0E0E0E0F1E07FE2
:100E6000E03EE00C0C180D0000F07070F070E078BF
:100E7000E038E039C01DC01DC01F800F800F800FFB
:100E800000130C24140000F0F0E070F0E071F0E0CA
:100E900071F9C039F9C03BB9C03B9FC03F9F801F6B
:100EA0001F801F0F801F0F000F0F000B0C180D016C
:100EB00000F1E071C07B803F801F001E001F003FDB
:100EC000807B8073C0F1C0E1E00C11220C00FBF0CC
:100ED0007070F078E038E039E03DC01DC01DC01FE3
:100EE000800F800F80070007000F000E000E001E0D
:100EF000000A0C180C0100FF80FF80078007000E1D
:100F0000001E003C0038007000E000FFC0FFC00978
:100F1000172E0C02FA07800F801C001C001C001CFE
:100F2000001C001C001C003C00F800E000F8003C25
:100F3000001C001C001C001C001C001C001C000FDE
:100F40008007800219190803FAC0C0C0C0C0C0C021
:100F5000C0C0C0C0C0C0C0C0C0C0C0C0C0C0C0C091
:100F6000C0C00817170C02FAE0F0383838383838A3
:100F7000381C1F071F1C38383838383838F8E00C50
:100F800003060C00053C307FF0E3C0FFFFFFFFFFCE
:100F9000FFFFFFFFFFFFFFFFFFFFFFFFFFFFFFFF61
:100FA000FFFFFFFFFFFFFFFFFFFFFFFF0000000746
:100FB00000000311110903FBE0E0E00000E0E0E0C5
:100FC000E0E0E0E0E0E0E0E0E00A12240D01FD01F5
:100FD00000010003001F007F8073C0E7C0E400E44D
:100FE00000EC00E9C0E9C07BC07F801F001000302A
:100FF0000020000B11220D01000F801FE038E038A7
:10100000E038003800FF00FF0038003800380038B2
:1010100000380038003800FFE0FFE00B0C180D012D
:101020000480205F407180608040404040404040EC
:101030004060C031805F4080200D11220F0100E030
:1010400078F078707078F038E0FDF8FDF81FC00F88
:1010500080FFF8FFF80700070007000700070007F8
:10106000000116160804FB808080808080808080CC
:101070000000000080808080808080808009152AA8
:101080000B01FC3F007F00F100E000E00078003E33
:10109000003F007780E380E380E780FF007E001F51
:1010A000000780038003808780FF007C0008030323
:1010B00008000FE7E7E711113313010003E0000F09
:1010C000F8003C1E0033E60067F300673B00CE39B2
:1010D00080CE0180CE0180CE0180CE39804E390095
:1010E00067F30033E600380E000FF80003E0000855
:1010F0000B0B0A01063C66067EE6C6C67E0000FFB4
:101100000B09120E01013CE038E079E071C0F3C038
:1011100071C079E038E03CE00C050A0E0105FFF0F3
:101120000010001000100010FF1111331301000314
:10113000E0000FF8003C1E0037F60067FB00661B5E
:1011400000C61980C7F180C7F180C63980C61980F2
:10115000461900661B00300600380E000FF8000329
:10116000E00007020207000FFEFE05050507010C5F
:1011700070888888700E0E1C18050002000200029C
:10118000000200FFFCFFFC0200020002000200005F
:10119000000000FFFCFFFC0709090901087CE606C6
:1011A0000E1C38E0FEFE0709090901087CCE060E78
:1011B000380E06CE7C05040405010E387060C0FFB1
:1011C0000B14280E02FD3FE07D80FD80FD80FD8038
:1011D000FD80FD807D800D800D800D800D800D8057
:1011E0000D800D800D800D800D800D800D8003031E
:1011F00003070206E0E0E00605050601FB20380CC7
:101200000CF804090906010830F0B03030303030F5
:1012100030080B0B0A01063C66C3C3C3C3E77E3C20
:1012200000FF0C09120E0101E38071C079E038E083
:101230003CF038E079E071C0E38010112212010027
:101240003018F018B0303070306030E030C031808D
:10125000318E030E031E06360E360C66187F1806F6
:1012600030061011221201003018F030B03030601A
:1012700030E030C031C03180333E037706030607CB
:101280000C0E1C1C1870307F307F111133130100BD
:101290007C0600C60C00060C003818000E3800064C
:1012A0003000CE70007C600000C70001C700018FD5
:1012B00000039B00031B00073300063F800C030064
:1012C0001C03000A11220C01FB0E000E000000009E
:1012D000000E000E000E001C0038007000F000E050
:1012E00000E080E0C073C07F801F00101830100045
:1012F000000E0007000300038001800000000003CF
:10130000C003C003E007E007F00F700E700E781EF8
:10131000381C381C3C3FFC3FFC7FFE780E700FF001
:10132000071018301000000070006000E000C001DD
:10133000800000000003C003C003E007E007F00FD7
:10134000700E700E781E381C381C3C3FFC3FFC7F32
:10135000FE780E700FF00710183010000001C00367
:10136000C003E0066004300000000003C003C003B7
:10137000E007E007F00F700E700E781E381C381C66
:101380003C3FFC3FFC7FFE780E700FF00710172EDD
:10139000100000001007F007E0000000000000034C
:1013A000C003C003E007E007F00F700E700E781E58
:1013B000381C381C3C3FFC3FFC7FFE780E700FF061
:1013C0000710172E1100000E700E700E7000000036
:1013D00000000003C003C007E007E007E00F700E45
:1013E000701E781E381C383C3C3FFC7FFE7FFE7030
:1013F0000EF00FE0070F1932100100038006C00441
:1014000040044004C0038000000000038007C007C0
:10141000C00FC00EE00EE01EE01C701C703C703867
:10142000783FF87FFC7FFC701CF01EE00E15113336
:1014300017010000FFF800FFF801F80001F80003B1
:10144000B80003B800073800073FF80E3FF80E3821
:10145000001E38001FF8003FF80078380070380090
:10146000F03FF8E03FF80E162C1001FB0FC01FF004
:101470003FF87838703CF01CE000E000E000E0004D
:10148000E000E000701C703C38781FF00FC00300D3
:1014900003C00060006007C00B18300F0200380066
:1014A00018001C000C00060000000000FFE0FFE038
:1014B000FFE0E000E000E000E000FFE0FFE0E0002F
:1014C000E000E000E000E000FFE0FFE0FFE00B18DC
:1014D000300F020003800300070006000C0000002C
:1014E0000000FFE0FFE0FFE0E000E000E000E000DF
:1014F000FFE0FFE0E000E000E000E000E000FFE0EF
:10150000FFE0FFE00B18300F02000E001F001B0071
:101510003B80318000000000FFE0FFE0FFE0E000E2
:10152000E000E000E000FFE0FFE0E000E000E000BD
:10153000E000E000FFE0FFE0FFE00B172E0F0200ED
:101540003B803B803B80000000000000FFE0FFE0AC
:10155000FFE0E000E000E000E000FFE0FFE0E0008E
:10156000E000E000E000E000FFE0FFE0FFE0051841
:1015700018070000E0E060301000003838383838D4
:101580003838383838383838383838380518180581
:10159000010038307060C00000E0E0E0E0E0E0E032
:1015A000E0E0E0E0E0E0E0E0E0E00718180700003D
:1015B00038386C6CC6000038383838383838383825
:1015C0003838383838383838081717080000E7E74F
:1015D000E700000038383838383838383838383884
:1015E00038383838380F11221000003FC03FF03F24
:1015F000F8383C381C381E380E380EFF0EFF0E38F7
:101600000E381E381C383C3FF83FF03FC00E172EF6
:1016100012020000200FC00FC0000000000000F800
:101620001CF81CFC1CFC1CEE1CEE1CE71CE71CE759
:101630009CE39CE3DCE1DCE1DCE0FCE0FCE07CE062
:101640007C0F18301101001C000E00060003000181
:10165000000000000007C01FF03FF8783C701CF04D
:101660001EE00EE00EE00EE00EE00EF00E701C78B4
:101670003C3FF81FF007E00F183011010000700028
:10168000E000C0018001000000000007C01FF03F23
:10169000F8783C701CF01EE00EE00EE00EE00EE06C
:1016A0000EF00E701C783C3FF81FF007E00F18306A
:1016B000110100038007C006C00C60082000000074
:1016C0000007C01FF03FF8783C701CF01EE00EE0F1
:1016D0000EE00EE00EE00EF00E701C783C3FF81F9E
:1016E000F007E00F172E11010007200FE008C000DF
:1016F000000000000007C01FF03FF8783C701CF0AD
:101700001EE00EE00EE00EE00EE00EE00E701C7823
:101710003C3FF81FF007E00F172E1101000E700E6E
:10172000700E7000000000000007C01FF03FF87846
:101730003C701CF01EE00EE00EE00EE00EE00EF03D
:101740000E701C783C3FF81FF007E00D0C181705D1
:1017500001C0186030306018C00D80070007000D10
:101760008018C030606030C0181113391100FF00BC
:10177000010003F1800FFB001FFE003C1E00381E1D
:1017800000783F0070770070E70071C70073870032
:101790007707007E07003C0E003C1E003FFC006FF8
:1017A000F800E3E0004000000E18301202001C00B8
:1017B0000C000E000600030000000000E01CE01C0E
:1017C000E01CE01CE01CE01CE01CE01CE01CE01C39
:1017D000E01CE01CF03C70387FF83FF00FC00E18A2
:1017E0003012020000E000C001C0018003000000D0
:1017F0000000E01CE01CE01CE01CE01CE01CE01C05
:10180000E01CE01CE01CE01CE01CF03C70387FF8A1
:101810003FF00FC00E1830120200078007800FC083
:101820000CC0186000000000E01CE01CE01CE01C84
:10183000E01CE01CE01CE01CE01CE01CE01CE01CC8
:10184000F03C70387FF83FF00FC00E172E100100EB
:101850001CE01CE01CE0000000000000E01CE01C9C
:10186000E01CE01CE01CE01CE01CE01CE01CE01C98
:10187000E01CE01CF03C78787FF83FF00FC00D17BB
:101880002E0F010001C001800300020000000000D3
:10189000E038F078707078F038E03DE01DC01FC08F
:1018A0000F800F80070007000700070007000700F0
:1018B00007000C11220F0100E000E000E000FF80B3
:1018C000FFE0FFE0E0F0E070E070E0F0FFE0FFE05C
:1018D000FF80E000E000E000E0000C11220E0100BB
:1018E0003F007F80F1C0E1C0E1C0E380E700EE008F
:1018F000EE00EF80E7C0E1E0E070EE70EE70EFE048
:10190000E7C00A13260D01007000380018000C0013
:101910000400000000001F007F8071C001C01FC0D4
:101920007FC0F1C0E1C0E1C0F3C07FC03CC00A137A
:10193000260D010003800300060006000C000000D5
:1019400000001F007F8071C001C01FC07FC0F1C0B8
:10195000E1C0E1C0F3C07FC03CC00A13260D010006
:101960000E001E001B0033002180000000001F003D
:101970007F8071C001C01FC07FC0F1C0E1C0E1C065
:10198000F3C07FC03CC00A11220D01001F803F0040
:101990000000000000001F007F8071C001C01FC058
:1019A0007FC0F1C0E1C0E1C0F3C07FC03CC00A12FB
:1019B000240D01007380738073800000000000001C
:1019C0003F007F80F1C001C01FC07FC0F1C0E1C0F7
:1019D000E1C0F3C07FC03CC00A14280D01000E0016
:1019E0001B00110013001F000E00000000001F006C
:1019F0007F8071C001C01FC07FC0F1C0E1C0E1C0E5
:101A0000F3C07FC03CC0120C241401001F1F007FD4
:101A1000BF8071F38000E1C01FFFC07FFFC0F0E016
:101A200000E0E000E0E1C0F1F3C07F3F803E1F0036
:101A30000A11220C01FB1F007F8073C0E1C0E0008F
:101A4000E000E000E000E1C073C07F803F000800DC
:101A50000E00030003001E000B13260D0100700092
:101A6000380018000C000400000000001F003F8038
:101A700071C0E1E0FFE0FFE0E000E000E1C071C024
:101A80007FC01F000B13260D010003800300070019
:101A900006000C00000000001F003F8071C0E1E064
:101AA000FFE0FFE0E000E000E1C071C07FC01F0088
:101AB0000B13260D01000E001F001B00318021803A
:101AC000000000001F003F8071C0E1E0FFE0FFE088
:101AD000E000E000E1C071C07FC01F000B12240DC8
:101AE00001007380738073800000000000001F00FD
:101AF0003F8073C0E1C0FFE0FFE0E000E000E1C034
:101B000073C07F801F0005121206FF00E0703018BE
:101B1000000038383838383838383838383804120F
:101B2000120501007060E0C00000E0E0E0E0E0E0ED
:101B3000E0E0E0E0E0E007121206FF00387C6CC64F
:101B400000003838383838383838383838380812DB
:101B50001207FF00E7E7E700000038383838383868
:101B60003838383838380C11220E01001C600FC08C
:101B70000F803B8021C01FE03FE070E0F0F0E0709C
:101B8000E070E070E070F0F070E03FC01F800B117B
:101B9000220D01001F803F00000000000000EF80C8
:101BA000FFC0F1E0E0E0E0E0E0E0E0E0E0E0E0E025
:101BB000E0E0E0E0E0E00C13260E010038001C003D
:101BC0000C0006000600000000001F803FC070E00F
:101BD000F0E0E070E070E070E070F0F070E03FC0C6
:101BE0001F800C13260E010001C0038003000600B5
:101BF0000400000000001F803FC070E0F0E0E070D3
:101C0000E070E070E070F0F070E03FC01F800C13F7
:101C1000260E01000F000F001F80198030C0000049
:101C200000001F803FC070E0F0E0E070E070E07006
:101C3000E070F0F070E03FC01F800C11220E010038
:101C40001FC03F800000000000001F803FC070E008
:101C5000F0E0E070E070E070E070F0F070E03FC045
:101C60001F800C12240E010039C039C039C0000099
:101C7000000000001F803FC070E0F0E0E070E07006
:101C8000E070E070F0F070E03FC01F800E0A1418A2
:101C900005020700070006000000FFFCFFFC000033
:101CA0000200070007000C0F1E0E01FE002000308E
:101CB0001FE03FC071E0F1F0E370E670EC70F87087
:101CC000F8F070E07FC0DF80C0000B13260D01002C
:101CD000700038001C000C00060000000000E0E06E
:101CE000E0E0E0E0E0E0E0E0E0E0E0E0E0E0E0E0F4
:101CF000F1E07FE03EE00B13260D0100038003803E
:101D0000070006000C0000000000E0E0E0E0E0E07A
:101D1000E0E0E0E0E0E0E0E0E0E0E0E0F1E07FE013
:101D20003EE00B13260D01000E001F001B0031804A
:101D3000208000000000E0E0E0E0E0E0E0E0E0E043
:101D4000E0E0E0E0E0E0E0E0F1E07FE03EE00B1228
:101D5000240D010073807380738000000000000078
:101D6000E0E0E0E0E0E0E0E0E0E0E0E0E0E0E0E073
:101D7000E0E0F1E07FE03EE00B172E0D01FB01807B
:101D800003800300060000000000E0E0E0E0F1E076
:101D900071C079C03BC03B803F801F801F001F0087
:101DA0000F000E000E00FE00FC0078000C162C0F39
:101DB00002FBE000E000E000E000E000EF80FFC098
:101DC000F8E0F0F0E070E070E070E070F0F0F1E06A
:101DD000FFC0EF80E000E000E000E000E0000C1653
:101DE0002C0E01FB39C039C039C000000000F07072
:101DF000F0F070F078E079E039C03DC01FC01F807E
:101E00001F800F800F000F000F000E001E001C002F
:101E100000091200FC0A01E803D7207FFD0EFD0B2C
:101E2000FD00000009000E010B0B090400808080FA
:101E30008080808000008080040404090307909063
:101E40009090080A0A090000242424FF2424FF2477
:101E50002424070B0B0901FF107C929050381412B8
:101E6000927C10070A0A09010042A4A44810102419
:101E70004A4A84070A0A09010060909090606294BF
:101E800088946201040409040780808080030C0C9C
:101E90000903FF20404080808080808040402003F4
:101EA0000C0C0903FF8040402020202020204040CF
:101EB000800707070901031092543854921007074E
:101EC00007090101101010FE10101002040409048B
:101ED000FEC0C04080070101090104FE02020209A0
:101EE0000400C0C0070A0A09010002040408101017
:101EF00020404080070A0A09010038448282828219
:101F000082824438070A0A090100103050901010EC
:101F1000101010FE070A0A09010038448202040862
:101F2000102040FE070A0A090100FE0204081804F6
:101F300002028478070A0A090100040C142444846C
:101F4000FE040404070A0A090100FE808080F804E8
:101F500002028478070A0A0901003C408080B8C464
:101F600082824438070A0A090100FE0204040808B4
:101F700010101010070A0A0901003844824438443E
:101F800082824438070A0A09010038448282463AAC
:101F900002020478020707090400C0C0000000C064
:101FA000C00209090904FEC0C0000000C0C0408092
:101FB0000509090902000810204080402010080788
:101FC0000404090102FE0000FE050909090200805F
:101FD0004020100810204080070A0A0901003844F8
:101FE0008202040810100010070A0A090100384490
:101FF0009AAAAAAAAA9C403C070A0A09010010282A
:102000002828447C44828282070A0A090100F88455
:102010008284F884828284F8070A0A0901003C421B
:10202000808080808080423C070A0A090100F88491
:1020300082828282828284F8070A0A090100FE8075
:102040008080F880808080FE070A0A090100FE80F7
:102050008080F88080808080070A0A090100384467
:102060008280808E82824438070A0A0901008282B7
:102070008282FE8282828282050A0A090200F82098
:1020800020202020202020F8070A0A0901003E080D
:102090000808080808888870070A0A09010082846D
:1020A0008890A0D088848282070A0A090100808073
:1020B00080808080808080FE070A0A090100828279
:1020C000C6AA928282828282070A0A09010082825B
:1020D000C2A2928A86828282070A0A0901007C8251
:1020E000828282828282827C070A0A090100F88445
:1020F000828284F880808080080B0B0901FF3844BD
:1021000082828282828A443A01070A0A090100F81F
:1021100084828284F890888482070A0A0901007CFC
:102120008280807C020202827C070A0A090100FE8A
:10213000101010101010101010070A0A0901008268
:10214000828282828282824438070A0A09010082DE
:10215000828244444428282810070A0A0901008280
:1021600082828292929292AA44070A0A090100820C
:10217000824428101028448282070A0A090100823A
:10218000824428101010101010070A0A090100FEDE
:102190000204081020408080FE040C0C0903FFF0AC
:1021A00080808080808080808080F0070A0A09011A
:1021B0000080404020101008040402040C0C0902A6
:1021C000FFF010101010101010101010F007040481
:1021D000090106102844820801010900FFFF0303DA
:1021E0000309030A8040200707070901007C020257
:1021F0007E82867A070A0A090100808080BCC2823A
:102200008282C2BC0707070901007C82808080822D
:102210007C070A0A0901000202027A86828282860B
:102220007A0707070901007C8282FE80827C070A08
:102230000A0901001C22222020F820202020070A61
:102240000A0901FD7A84848478807C82827C070A72
:102250000A090100808080BCC28282828282050AD3
:102260000A090200600000E02020202020F8050D6F
:102270000D0902FD180000380808080808088888B9
:1022800070070A0A090100808080848890B0C884A1
:1022900082050A0A090200E02020202020202020B8
:1022A000F8070707090100EC9292929292820707C1
:1022B00007090100BCC282828282820707070901E6
:1022C000007C82828282827C070A0A0901FDB8C4EE
:1022D000828282C4B8808080070A0A0901FD3A46DA
:1022E000828282463A0202020707070901009C62C5
:1022F00042404040400707070901007C82807C0281
:10230000827C0709090901002020FC2020202022CE
:102310001C0707070901008282828282867A0707EA
:102320000709010082824444282810070707090191
:10233000008282929292AA44070707090100824410
:102340002810284482070A0A0901FD424224242455
:102350001818109060070707090100FE04081020F4
:1023600040FE060B0B0902001C20202020C020206C
:1023700020201C010C0C0904FF808080808080805C
:102380008080808080060B0B090100E01010101087
:102390000C10101010E007030309010762928CFF74
:1023A00001060A00FE070136026820FFFE08FE074C
:1023B000FE0A0060221767808080808000801633CC
:1023C00063A0A0A00257675050F850F85050025731
:1023D000672070A07028702002576748A8502050CE
:1023E000A89002576740A0A040A890682613638079
:1023F00080801237672040808080402012376780BD
:102400004020202040800355658850F850880355AF
:10241000652020F82020113363604080055161F869
:1024200011336340E0400257670808102040808065
:10243000025767205088888850200257672060A084
:10244000202020F8025767708808304080F8025733
:1024500067F808103008887002576710305090F8FD
:102460001010025767F880B0C808887002576730AC
:102470004080B0C88870025767F8081010204040AC
:1024800002576770888870888870025767708898CC
:102490006808106011376740E0400040E0401137A5
:1024A0006740E04000604080124767102040804055
:1024B0002010045363F800F8124767804020102072
:1024C00040800257677088102020002002576770F4
:1024D0008898A8B0807002576720508888F888884C
:1024E000025767F04848704848F002576770888084
:1024F00080808870025767F04848484848F0025783
:1025000067F88080F08080F8025767F88080F0805C
:10251000808002576770888080988870025767882B
:102520008888F8888888123767E04040404040E05B
:10253000025767381010101090600257678890A0FB
:10254000C0A09088025767808080808080F8025702
:10255000678888D8A88888880257678888C8A89814
:10256000888802576770888888888870025767F063
:102570008888F08080800158687088888888A87072
:1025800008025767F08888F0A09088025767708823
:102590008070088870025767F820202020202002D1
:1025A0005767888888888888700257678888885025
:1025B000505020025767888888A8A8D88802576793
:1025C00088885020508888025767888850202020AB
:1025D00020025767F80810204080F8123767E08023
:1025E00080808080E00257678080402010080812B9
:1025F0003767E02020202020E00653632050880128
:102600005161F82822628040025565700878887808
:102610000257678080B0C888C8B00255657088804E
:10262000887002576708086898889868025565702E
:1026300088F88070025767304840F04040400057AB
:1026400067788888780888700257678080B0C88863
:1026500088881237674000C0404040E01049691048
:10266000003010101090906002576780808890E0D2
:102670009088123767C04040404040E0025565D026
:10268000A8A8A888025565B0C888888802556570D2
:1026900088888870005767B0C888C8B080800057A5
:1026A0006768988898680808025565B0C880808077
:1026B00002556570807008F00257674040F0404056
:1026C0004830025565888888986802556588885022
:1026D00050200255658888A8A8500255658850206A
:1026E000508800576788889868088870025565F890
:1026F000102040F8124767304020C0204030221799
:102700006780808080808080124767C02040304092
:1027100020C006536348A890FFFFFFFFFFFFFFFFA5
:10272000FFFFFFFFFFFFFFFFFFFFFFFFFFFFFFFFB9
:10273000FFFFFFFFFFFFFFFFFF0A00602217678018
:102740000080808080800157672078A0A0A078203A
:10275000025767304840E04048B0025565887050E5
:10276000708801586888885020F820202022176738
:10277000808080008080800158687080E0904838B8
:102780000870193161A00257677088A8C8A88870BE
:102790001346667090B05000F0026565244890487A
:1027A00024144262F010154161F00257677088E806
:1027B000C8C88870095161F816336340A0400256BA
:1027C000662020F82020F815456560902040F0151F
:1027D0004565E0106010E02822624080015666885E
:1027E0008888C8B08002576778E8E86828282825D4
:1027F000116180202262408015356540C04040E074
:102800001346666090906000F00265659048244829
:102810009001696940C04040E40C143C04016969BE
:1028200040C04040E81404081C015969C020402001
:10283000C8182878080257672000202040887002B6
:1028400058684020708888F888880258681020707E
:102850008888F888880258682050708888F88888A6
:1028600002586848B0708888F88888025868500014
:10287000708888F888880258682050708888F8889E
:10288000880267673C50909CF0909C005969708862
:102890008080808870204002586840F88080F080F6
:1028A00080F802586810F88080F08080F80258683C
:1028B00020F88080F08080F802586850F88080F01E
:1028C0008080F81238688040E040404040E0123894
:1028D000682040E040404040E012386840A0E040BE
:1028E000404040E0123868A000E040404040E00234
:1028F0005767F04848E84848F0025868285088C8A8
:10290000A898888802586840207088888888700253
:102910005868102070888888887002586820507025
:1029200088888888700258682850708888888870DD
:1029300002586850007088888888700255658850F1
:10294000205088025767709898A8C8C870025868C5
:102950004020888888888870025868102088888875
:1029600088887002586820500088888888700258CB
:102970006850008888888888700258681020888885
:102980005020202002576780F088F0808080025716
:1029900067708890A09088B0025868402000700846
:1029A0007888780258681020007008788878025873
:1029B00068205000700878887802586828500070A5
:1029C000087888780257675000700878887802582D
:1029D00068205020700878887802656578147C90AB
:1029E0007C005767708880887020400258684020BB
:1029F000007088F880700258681020007088F88095
:102A0000700258682050007088F880700257675034
:102A1000007088F88070123868804000C0404040E4
:102A2000E0123868408000C0404040E01238684002
:102A3000A000C0404040E0123767A000C0404040C6
:102A4000E0025767C0307088888870025868285044
:102A500000B0C8888888025868402000708888883C
:102A600070025868102000708888887002586820AA
:102A700050007088888870025868285000708888D4
:102A800088700257675000708888887003556520E9
:102A900000F800200255657898A8C8F002586840F0
:102AA00020008888889868025868102000888888E4
:102AB000986802586820500088888898680257678C
:102AC000500088888898680059691020888898681C
:102AD00008887000586880F0888888F080800059E5
:102AE00069500088889868088870000A1400FC0DF6
:102AF000024A049920FFFC10FC0DFC0000000A00B3
:102B000010020D0D0A0400C0C0C0C0C0C0C0C0C0CB
:102B1000C000C0C00604040A0209CCCCCC48090B92
:102B2000160A01011B001B001B007F8036003600C7
:102B30003600FF006C006C006C00080D0D0A0100EF
:102B4000187EDBD8D8D87E1B1B1BDB7E18090C181F
:102B50000A01007300DB00DE0076000C000C001898
:102B600000180037003D806D806700090D1A0A01CA
:102B70000038006C006C006C00780030007000D8E9
:102B800000CD80C700C600EF0079800205050A0469
:102B900008C0C0C0C080050D0D0A03001830606079
:102BA000C0C0C0C0C060603018050D0D0A0200C072
:102BB0006030301818181818303060C00807070A3D
:102BC000010366663CFF3C66660807070A010318B6
:102BD0001818FF1818180403030A03FF7070E008A0
:102BE00001010A0106FF0303030A0400E0E0E00715
:102BF0000C0C0A020006060C0C181830306060C07D
:102C0000C0080D0D0A0100183C6666C3C3C3C3C3E8
:102C100066663C18080D0D0A0100183878D8181897
:102C2000181818181818FF080D0D0A01003C66C383
:102C3000C30303061C3060C0C0FF080D0D0A01006D
:102C40003C66C3C303061C0603C3C3663C080D0DE4
:102C50000A010002060E1E3666C6C6FF06060606F6
:102C6000080D0D0A0100FFC0C0C0C0DCE60303036D
:102C7000C3663C080D0D0A01003C66C2C0C0DCE61C
:102C8000C3C3C3C3663C080D0D0A0100FF0303065E
:102C9000060C0C181830306060080D0D0A01003C5D
:102CA00066C3C3C3663C66C3C3C3663C080D0D0A56
:102CB00001003C66C3C3C3C3673B030343663C03D5
:102CC00008080A0400E0E000000000E0E004090950
:102CD0000A03FF7070000000007070E0070D0D0A1D
:102CE000010002060C183060C06030180C060208A3
:102CF00006060A0103FF00000000FF070D0D0A028F
:102D00000080C06030180C060C183060C080080DC0
:102D10000D0A01003C66C3C3C3060C18181800183E
:102D200018080D0D0A01003C66C3CFDFDBDBDBDEDC
:102D3000CCC0633E080D0D0A0100183C6666C3C393
:102D4000C3FFC3C3C3C3C3080D0D0A0100F8CCC63B
:102D5000C6C6CCFCC6C3C3C3C6FC080D0D0A010021
:102D60003C66C3C0C0C0C0C0C0C0C3663C080D0D37
:102D70000A0100FCC6C3C3C3C3C3C3C3C3C3C6FCE9
:102D8000080D0D0A0100FFC0C0C0C0C0FCC0C0C01B
:102D9000C0C0FF080D0D0A0100FFC0C0C0C0C0FCCC
:102DA000C0C0C0C0C0C0080D0D0A01003C66C3C051
:102DB000C0C0CFC3C3C3C3673D080D0D0A0100C324
:102DC000C3C3C3C3C3FFC3C3C3C3C3C3080D0D0A77
:102DD0000100FF1818181818181818181818FF09E3
:102DE0000D1A0A01001F80060006000600060006F4
:102DF00000060006000600C600C6006C0038000889
:102E00000D0D0A0100C3C3C6C6CCCCF8CCCCC6C6D7
:102E1000C3C3080D0D0A0100C0C0C0C0C0C0C0C0FF
:102E2000C0C0C0C0FF080D0D0A0100C3C3E7E7FF23
:102E3000DBDBDBDBC3C3C3C3080D0D0A0100C3E347
:102E4000E3F3F3DBDBCFCFC7C7C3C3080D0D0A0124
:102E5000003C66C3C3C3C3C3C3C3C3C3663C080D3E
:102E60000D0A0100FCC6C3C3C3C3C6FCC0C0C0C0BA
:102E7000C0080E0E0A01FF3C66C3C3C3C3C3C3C36D
:102E8000DBCF663E03080D0D0A0100FCC6C3C3C3B9
:102E9000C3C6FCCCC6C6C3C3080D0D0A01003C6600
:102EA000C3C0C0603C060303C3663C080D0D0A01A5
:102EB00000FF181818181818181818181818080DDE
:102EC0000D0A0100C3C3C3C3C3C3C3C3C3C3C36623
:102ED0003C080D0D0A0100C3C3C3C36666663C3CD3
:102EE0003C181818080D0D0A0100C3C3C3C3C3DB87
:102EF000DBDBDBE7E7C3C3080D0D0A0100C3C366D4
:102F0000663C3C183C3C6666C3C3080D0D0A0100D4
:102F1000C3C366663C3C18181818181818080D0D1D
:102F20000A0100FF0303060C0C18303060C0C0FF1C
:102F3000060D0D0A0200FCC0C0C0C0C0C0C0C0C0A9
:102F4000C0C0FC070C0C0A0200C0C0606030301822
:102F5000180C0C0606060D0D0A0200FC0C0C0C0CDD
:102F60000C0C0C0C0C0C0CFC0804040A0109183C99
:102F700066C30901020A01FFFF800403030A030A72
:102F8000C060300808080A01003E63037FC3C3C362
:102F90007D080D0D0A0100C0C0C0C0C0DCE6C3C37F
:102FA000C3C3E6DC0808080A01003E63C0C0C0C015
:102FB000633E080D0D0A010003030303033B67C3CF
:102FC000C3C3C3673B0808080A01003C66C3FFC0CF
:102FD000C0633E080D0D0A01001E33333030FC3053
:102FE000303030303030080C0C0A01FC7DC7C6C6CA
:102FF000C67CC07EC3C3C37E080D0D0A0100C0C0DD
:10300000C0C0C0DCE6C3C3C3C3C3C3080B0B0A0103
:103010000018180078181818181818FF070F0F0A4A
:1030200002FC0606001E06060606060606C6C6C6FC
:103030007C080D0D0A0100C0C0C0C0C0C6CCD8F0CD
:10304000F8CCC6C3080D0D0A010078181818181816
:10305000181818181818FF0808080A0100B6FFDB2E
:10306000DBDBDBDBDB0808080A0100DCE6C3C3C3EB
:10307000C3C3C30808080A01003C66C3C3C3C366D0
:103080003C080C0C0A01FCDCE6C3C3C3C3E6DCC08D
:10309000C0C0C0080C0C0A01FC3B67C3C3C3C367B4
:1030A0003B030303030808080A0100DE7360606045
:1030B0006060600808080A01007EC3C07E0303C385
:1030C0007E080B0B0A0100303030FC3030303030DD
:1030D000331E0808080A0100C3C3C3C3C3C3673B48
:1030E0000808080A0100C3C366663C3C18180808B3
:1030F000080A0100C3C3C3DBDBDBFF660808080A5C
:103100000100C3663C18183C66C3080C0C0A01FC9D
:10311000C3C3C3C3C3C3673B03C3663C0708080AF2
:103120000200FE060C183060C0FE080D0D0A0100FA
:103130000F1818181818F018181818180F020D0D75
:103140000A0400C0C0C0C0C0C0C0C0C0C0C0C0C0B1
:10315000080D0D0A0100F018181818180F18181883
:103160001818F00803030A010A73DBCEFFFFFFFF04
:10317000FFFFFFFFFFFFFFFFFFFFFFFFFFFFFFFF5F
:10318000FFFFFFFFFFFFFFFFFFFFFFFFFF0000004C
:103190000A0010020D0D0A0400C0C000C0C0C0C06B
:1031A000C0C0C0C0C0C0070C0C0A010018183C66A3
:1031B000C2C0C0C2663C1818090C180A01001E00E3
:1031C0003300330030003000FC00300030003000AD
:1031D000F800AD80E7000909120A00018080DD8057
:1031E0007F006300630063007F00DD808080080B48
:1031F0000B0A010081C3663C7E187E18181818025D
:103200000D0D0A0400C0C0C0C0C0000000C0C0C096
:10321000C0C0080D0D0A01003C66C66078CC66335C
:103220001E0663663C0602020A020BCCCC080B0B9E
:103230000A01003C66C3BDA5A1A5BDC3663C080943
:10324000090A01043E43037FC3C37D00FF090B1637
:103250000A000004800D801B0036006C00D8006C52
:103260000036001B000D8004800804040A0104FFDE
:10327000FF03030601010A0206FC080B0B0A01000A
:103280003C66C3BDA5BDA9ADC3663C0801010A01EA
:103290000DFF0606060A02073078CCCC7830080706
:1032A000070A01021818FF181800FF0507070A028D
:1032B0000670D8183060C0F80507070A020670D8F3
:1032C000183018D8700403030A030A3060C0070AD4
:1032D0000A0A01FDC6C6C6C6C6EEFAC0C0C0080DC1
:1032E0000D0A01007FFFFBFBFB7B1B1B1B1B1B1B3A
:1032F0001B0303030A0405E0E0E00504040A02FCE2
:103300003018D8700407070A020660E06060606049
:10331000F00709090A0104386CC6C6C66C3800FEFD
:10332000090B160A01009000D8006C0036001B0043
:103330000D801B0036006C00D8009000080C0C0AB1
:10334000010140C04142E40812264A9E0202080CD4
:103350000C0A010140C04142E40816294182040FD1
:10336000080C0C0A0101E0106112E40812264A9FC1
:103370000202080D0D0A0100181800181818306014
:10338000C3C3C3663C080F0F0A0100603018001861
:103390003C66C3C3C3FFC3C3C3C3080F0F0A010006
:1033A000060C1800183C66C3C3C3FFC3C3C3C308DD
:1033B0000F0F0A0100183C6600183C66C3C3C3FF28
:1033C000C3C3C3C3080F0F0A0100327E4C00183C70
:1033D00066C3C3C3FFC3C3C3C3080F0F0A0100669C
:1033E0006600183C6666C3C3C3FFC3C3C3C30810EB
:1033F000100A01003C66663C00183C66C3C3C3FF6C
:10340000C3C3C3C3080D0D0A01001F3C6C6CCCCCB8
:10341000FFCCCCCCCCCCCF0811110A01FC3C66C34C
:10342000C0C0C0C0C0C0C0C3663C180C6C38080F18
:103430000F0A010060301800FFC0C0C0C0FCC0C04F
:10344000C0C0FF080F0F0A01000C183000FFC0C0F9
:10345000C0C0FCC0C0C0C0FF080F0F0A0100183C6C
:103460006600FFC0C0C0C0FCC0C0C0C0FF080F0FD6
:103470000A010066660000FFC0C0C0C0FCC0C0C03A
:10348000C0FF060F0F0A020060301800FC30303019
:10349000303030303030FC060F0F0A020018306038
:1034A00000FC303030303030303030FC060F0F0A46
:1034B00002003078CC00FC303030303030303030EA
:1034C000FC060F0F0A0200CCCC00FC30303030304C
:1034D0003030303030FC090D1A0A00007E006300E5
:1034E0006180618061806180F9806180618061803C
:1034F000618063007E00080F0F0A0100327E4C00DD
:10350000C3E3F3F3DBDBCFCFC7C3C3080F0F0A015D
:103510000030180C003C66C3C3C3C3C3C3C3663CBE
:10352000080F0F0A01000C1830003C66C3C3C3C368
:10353000C3C3C3663C080F0F0A0100183C66003C79
:1035400066C3C3C3C3C3C3C3663C080F0F0A0100ED
:10355000327E4C003C66C3C3C3C3C3C3C3663C08CE
:103560000F0F0A01006666003C66C3C3C3C3C3C332
:10357000C3C3663C0708080A010082C66C38386C71
:10358000C682080F0F0A01FF013E66C7C7CBCBCB2F
:10359000D3D3D3E3667C80080F0F0A010030180CE8
:1035A00000C3C3C3C3C3C3C3C3C3663C080F0F0A6E
:1035B00001000C183000C3C3C3C3C3C3C3C3C36675
:1035C0003C080F0F0A0100183C6600C3C3C3C3C305
:1035D000C3C3C3C3663C080F0F0A0100666600C37D
:1035E000C3C3C3C3C3C3C3C3C3663C080F0F0A012D
:1035F000000C183000C3C366663C3C181818181835
:10360000070D0D0A0200C0C0C0FCC6C6C6C6C6FC77
:10361000C0C0C0080D0D0A01001C36636366EC6C67
:1036200066636363666C080C0C0A010030180C00BA
:103630007EC3037FC3C3C37D080C0C0A01000C18B2
:1036400030007EC3037FC3C3C37D080C0C0A010096
:10365000183C66007EC3037FC3C3C37D080C0C0AFD
:103660000100327E4C007EC3037FC3C3C37D080BC1
:103670000B0A01006666007EC3037FC3C3C37D08D7
:103680000D0D0A01003C66663C007EC3037FC3C388
:10369000C37D0808080A0100769B1B1E78D8D96EE6
:1036A000080C0C0A01FC3E63C0C0C0C0633E180C8D
:1036B0006C38080C0C0A0100603018003C66C3FF2F
:1036C000C0C0633E080C0C0A0100060C18003C66E2
:1036D000C3FFC0C0633E080C0C0A0100183C660022
:1036E0003C66C3FFC0C0633E080B0B0A0100666660
:1036F000003C66C3FFC0C0633E080C0C0A010060BA
:1037000030180078181818181818FF080C0C0A013F
:10371000000C18300078181818181818FF080C0C2E
:103720000A0100183C660078181818181818FF08C5
:103730000B0B0A010066660078181818181818FF95
:10374000080D0D0A010088D87070D88C3E67C3C37D
:10375000C3663C080C0C0A0100327E4C00DCE6C358
:10376000C3C3C3C3C3080C0C0A0100603018003C7B
:1037700066C3C3C3C3663C080C0C0A0100060C18E0
:10378000003C66C3C3C3C3663C080C0C0A010018A6
:103790003C66003C66C3C3C3C3663C080C0C0A010C
:1037A00000327E4C003C66C3C3C3C3663C080B0BAF
:1037B0000A01006666003C66C3C3C3C3663C080AD0
:1037C0000A0A010118180000FFFF00001818080A73
:1037D0000A0A01FF013E66CBCBD3D3667C80080C7E
:1037E0000C0A010030180C00C3C3C3C3C3C3673B3A
:1037F000080C0C0A0100060C1800C3C3C3C3C3C3E2
:10380000673B080C0C0A0100183C6600C3C3C3C325
:10381000C3C3673B080B0B0A0100666600C3C3C342
:10382000C3C3C3673B0810100A01FC0C183000C367
:10383000C3C3C3C3C3673B03C3663C0711110A027A
:10384000FCC0C0C0C0C0C0F8CCC6C6C6CCF8C0C0A2
:10385000C0C0080F0F0A01FC666600C3C3C3C3C320
:10386000C3673B03C3663C0011241FBECFEFD8E003
:10387000DEBFCDBF11E0A0E0B1E0E2E9F8E602C0B2
:1038800005900D92A03FB107D9F713E0A0EFB1E08A
:1038900001C01D92A53DB107E1F70E9476240C946A
:1038A00047340C94000010929E02E1E8F0E0808121
:1038B0008B608083109285001092840087EA91E6E5
:1038C0009093890080938800EFE6F0E08081826029
:1038D000808308951F920F920FB60F9211248F9339
:1038E0009F93AF93BF93EF93FF9380919E028F3F7F
:1038F00011F410929E02A6EAB2E0E2EAF2E08C91A4
:10390000811107C080819181009719F001979183FF
:1039100080831896389682E0E23FF80781F7FF919E
:10392000EF91BF91AF919F918F910F900FBE0F902C
:103930001F901895EFE9F2E0A6EAB2E082E010826B
:103940001282118214821382168215828C93389609
:10395000189692E0EF3EF90791F70895A6EAB2E0D3
:10396000E0E0F0E09C91923081F493E0EE0FFF1FD5
:103970009A95E1F7E156FD4F80837283618354830A
:103980004383568345831782089531961896EA300B
:10399000F10541F70895FF920F931F93CF93DF93A3
:1039A000C6EAD2E000EA12E0FF24F394D8011296AE
:1039B0008D919C911397892B69F4888181110AC09C
:1039C000F882ED91FC910995F801848195819383AA
:1039D000828318822896085F1F4FF2E0C63FDF07F8
:1039E00029F7DF91CF911F910F91FF9008951092C9
:1039F000BC0094EA9093BC009091BC0097FFFCCF70
:103A00009091B900987F983099F48093BB0084E836
:103A10008093BC008091BC0087FFFCCF9091B900DF
:103A2000987F983119F081E0903419F480E008957E
:103A300081E008958093BB0084E88093BC0080916E
:103A4000BC0087FFFCCF9091B900987F81E098324D
:103A500009F480E0089584EC8093BC008091BC0060
:103A600087FFFCCF8091BB00089584E88093BC0061
:103A70008091BC0087FFFCCF8091BB000895CF925E
:103A8000DF92EF92FF920F931F93CF93DF931F92DA
:103A9000CDB7DEB77A01890169830E94F71C69817D
:103AA000882311F081E015C0862F0E941A1D67013E
:103AB0000E0D1F1DC016D10641F0F60181916F0158
:103AC0000E941A1D8823B1F3EDCF84E98093BC00D6
:103AD00080E00F90DF91CF911F910F91FF90EF90B9
:103AE000DF90CF900895CF92DF92EF92FF920F93E5
:103AF0001F93CF93DF931F92CDB7DEB7182F6A01C4
:103B0000790169830E94F71C6981882311F081E0A3
:103B100023C0862F0E941A1D812F81600E94F71CEE
:103B20008111F5CF860181E0E81AF108C8018C19EE
:103B30009D098E159F0530F40E942B1DF80181937D
:103B40008F01F4CFEC0CFD1C0E94351DF701808322
:103B500084E98093BC0080E00F90DF91CF911F91AA
:103B60000F91FF90EF90DF90CF9008954BE150E0E0
:103B700060E070E08FEE92E00C945A33CF93C82F40
:103B800060EA73E28AE093E00E94F72AC1110BC059
:103B90002091F401822F992787FD90959F932F9371
:103BA00087E890E023C0C13059F42091F301822FBF
:103BB000992787FD90959F932F9385E790E016C0F6
:103BC000C23019F58091F2018150873018F081E000
:103BD0008093F201E091F201EE0FFF0BE352FE4FF2
:103BE00081818F9380818F9388E690E09F938F935C
:103BF00085E893E09F938F930E9466310F900F901A
:103C00000F900F900F900F904BC0C33009F048C039
:103C10008091F10181508C3018F081E08093F101A6
:103C20008091F001811103C081E08093F00121E1D6
:103C300031E04AE060E08AE093E00E94722A2AE1E3
:103C400031E044E160E08AE093E00E94722A8091D2
:103C500001018F93809100018F93E091F101F0E0D9
:103C6000EE0FFF1FEB53FE4F81818F9380818F9367
:103C70008091F0011F928F938CE291E09F938F933C
:103C800085E893E09F938F930E9444318DB79EB750
:103C90000A960FB6F8949EBF0FBE8DBF4EE101C0CD
:103CA0004AE025E833E060E08AE093E0CF910C94AD
:103CB000722A682F70E021E030E041E453E080EDAB
:103CC00090E00E94731D809141030895982F929572
:103CD0009F708F702AE0929F800D1124089582E0DA
:103CE0000E94591E86FF02C08F7101C08F730E940F
:103CF000661E90E0089581E00E94591E8F770E9411
:103D0000661E90E0089584E00E94591E0E94661E7F
:103D100090E0089583E00E94591E0E94661E90E084
:103D2000089585E00E94591E0E94661E90E0089545
:103D300086E00E94591E0E94661E90E008956AE087
:103D40000E944A2F20E1829F900D1124892F08950F
:103D5000FF920F931F93CF93DF9300D000D000D03A
:103D6000CDB7DEB7F0908100109281000E946F1EE7
:103D70008093F4010E947B1E8093F3010E948A1EAF
:103D80008093F2010E94911E8093F1010E94831E94
:103D90008093F0011092F80117E18AE093E00E940D
:103DA0003B2C80E00E94BE1D8AE093E00E94402CE4
:103DB0008111F7CF8091F6018823B1F09091F7013E
:103DC0008091F401992311F0815001C08F5F80939D
:103DD000F4018091F40187FD1093F4018091F401C6
:103DE000883114F01092F4011092F6012FEF87E859
:103DF00093E1215080409040E1F700C000008091A5
:103E0000F801823050F21092F8011BE38AE093E04F
:103E10000E943B2C81E00E94BE1D8AE093E00E943C
:103E2000402C8111F7CF8091F6018823B1F0909159
:103E3000F7018091F301992311F0815001C08F5F48
:103E40008093F3018091F30187FD1093F30180913A
:103E5000F3018C3314F01092F3011092F6012FEF5E
:103E600087E893E1215080409040E1F700C00000D6
:103E70008091F801882351F21092F80111E007E0D7
:103E80008AE093E00E943B2C82E00E94BE1D8AE003
:103E900093E00E94402C8111F7CF8091F601882396
:103EA000B9F09091F7018091F201992311F08150BE
:103EB00001C08F5F8093F2018091F201181614F017
:103EC0000093F2018091F201883014F01093F20116
:103ED0001092F6012FEF87E893E121508040904047
:103EE000E1F700C000008091F801882349F21092A8
:103EF000F80111E00FE18AE093E00E943B2C83E09F
:103F00000E94BE1D8AE093E00E94402C8111F7CFF1
:103F10008091F6018823B9F09091F7018091F0012A
:103F2000992311F0815001C08F5F8093F00180913F
:103F3000F001811102C00093F0018091F001803204
:103F400010F01093F0011092F6012FEF87E893E143
:103F5000215080409040E1F700C000008091F801BE
:103F6000882349F21092F80111E00CE08AE093E016
:103F70000E943B2C83E00E94BE1D8AE093E00E94D9
:103F8000402C8111F7CF8091F6018823B9F09091F0
:103F9000F7018091F101992311F0815001C08F5FE9
:103FA0008093F1018091F101811102C00093F10130
:103FB0008091F1018D3010F01093F1011092F60113
:103FC0002FEF87E893E1215080409040E1F700C057
:103FD00000008091F801882349F21092F80100EE68
:103FE00017E08AE093E00E943B2C83E00E94BE1D14
:103FF0008AE093E00E94402C8111F7CF8091F60176
:10400000882329F12091F70180910001909101010D
:10401000222311F0019701C0019690930101809332
:1040200000018091000190910101803E974020F4B1
:104030001093010100930001809100019091010112
:104040008433984020F010930101009300011092F6
:10405000F6018FEF97E823E1815090402040E1F78F
:1040600000C000008091F801882309F4BACF809144
:10407000F2019091F3012091F4012E839D838C83B2
:10408000198221E030E0AE014F5F5F4F60E070E0E9
:1040900080ED90E00E943F1D8E810E949F1E8E83C6
:1040A00021E030E0AE014A5F5F4F62E070E080EDFA
:1040B00090E00E943F1D8D810E949F1E8D8321E014
:1040C00030E0AE014B5F5F4F61E070E080ED90E06B
:1040D0000E943F1D8C810E949F1E8C8321E030E056
:1040E000AE014C5F5F4F63E070E080ED90E00E94B6
:1040F0003F1D909100018091F0012091F1012A83F0
:1041000099830E949F1E8B8321E030E0AE014D5FBA
:104110005F4F64E070E080ED90E00E943F1D8A8177
:104120000E949F1E8A8321E030E0AE014E5F5F4F08
:1041300065E070E080ED90E00E943F1D8981805D28
:104140000E949F1E898321E030E0AE014F5F5F4FE8
:1041500066E070E080ED90E00E943F1DF0928100EB
:1041600026960FB6F894DEBF0FBECDBFDF91CF917C
:104170001F910F91FF900895CF938091020191E0DC
:1041800018160CF490E09093530320916C03309137
:10419000FC01232720936B0330916D034091FD01B7
:1041A000342730936E036091F50191115AC0C1E03C
:1041B00018160CF0C0E08F3124F48F301CF48FE01F
:1041C00001C08EE1992787FD909570E0211107C00D
:1041D00021E0681779070CF020E030E02BC043E7BE
:1041E00053E00E942323909357038093560320911A
:1041F000EF0221110BC041E09C01305E21153042DD
:1042000008F040E08115904E34F009C0492F441F5A
:104210004427441F04C080911902811102C030E07C
:1042200001C031E0442329F021E08091190281117D
:1042300001C020E090916E03CC2329F0992319F05E
:1042400081E0311101C080E080937003222329F0C6
:10425000992319F081E0C11101C080E080936F03C0
:1042600050C081958F3124F48F301CF48FE001C051
:104270008EE1992787FD909570E0211107C021E01C
:10428000861797070CF020E090E029C048E553E03E
:104290000E94232390935503809354032091EF02AF
:1042A00050916E0321110BC041E09C01305E21153D
:1042B000304208F040E08115904E34F007C0492F9D
:1042C000441F4427441F02C0511102C090E001C0A6
:1042D00091E0442319F021E0511101C020E08091C8
:1042E0001902222319F021E0811101C020E020935E
:1042F0007103882319F081E0911101C080E080935F
:10430000720381E090915303911180E080936A03DE
:1043100080916B0380936C0380916E0380936D0397
:10432000CF9108950E94D721559A5D9A0895CF9212
:10433000DF92EF92FF92CF93DF9300D0CDB7DEB73D
:1043400019821A825D9885E38A95F1F7000042E0B0
:10435000BE016F5F7F4FCB010E94E42185E38A9508
:10436000F1F700005D9A698170E0762F66278A81F7
:10437000680F711D882777FD8095982F0E940C305B
:1043800020E030E040E05DE30E9470306B017C0192
:104390000E94DE2F6093F501C701B6010F900F90C8
:1043A000DF91CF91FF90EF90DF90CF90089584B18F
:1043B000877C84B984B1886284B9229A2A9A81E57B
:1043C0008CBD81E08DBD0895262FFB013E2F321B51
:1043D000341750F4DC013D91CD013EBD0DB407FE14
:1043E000FDCF3EB53193F2CF0895529854985A9824
:1043F0005C98E9E6F0E080818E6080838DB3836015
:104400008DBB08951F920F920FB60F9211248F93B8
:104410009F934A9B04C089B18295817005C089B180
:104420008295817091E089278093F70181E08093E4
:10443000F6019F918F910F900FBE0F901F901895CE
:104440001F920F920FB60F9211242F938F939F9369
:10445000AF93BF93CF93DF93EF93FF93C091FF018F
:1044600080919E0225E02C9FE0011124C050DE4F78
:1044700090E0A0E0B0E088839983AA83BB83E091B9
:10448000FF012E9FF0011124E050FE4F81E0848354
:104490008091FF018F5F8093FF018091FF01853044
:1044A00011F41092FF018091F801823028F480917C
:1044B000F8018F5F8093F801FF91EF91DF91CF9129
:1044C000BF91AF919F918F912F910F900FBE0F9041
:1044D0001F9018951F93CF93DF93F8941092FF01CC
:1044E0001092FD01C0911802D09104028091000247
:1044F00090911402891B992787FD909597FF03C01F
:10450000919581959109182F4091FD0150E080E02F
:1045100090E075E084309105F9F0789FF001799F83
:10452000F00D1124E050FE4F24812130F9F49C015C
:104530002F5F3F4F729FD001739FB00D1124A05089
:10454000BE4F14966C911497613061F46C91E081C8
:104550006E1B67304CF006C0C13041F4D13011F40D
:1045600017301CF041E002C0C90151E001968530CE
:10457000910584F25093FC014093FD01E4E0F2E0E8
:104580001082DF0114971D921D921D921C921397A9
:10459000359682E0ED31F80799F77894DF91CF9165
:1045A0001F910895809108039091FB01891730F4C1
:1045B0008091020187FF0DC086E109C09091FA0148
:1045C000891738F48091020118161CF48AEE809342
:1045D000020108958091F901882319F01092F901E0
:1045E00008951092FB011092FA010895CF93DF9382
:1045F000FB01E9011A821B821C821D82198218822A
:104600009F838E83798768875B874A87BC016F5F4A
:104610007F4F8FEF9FE70E94562F7D876C879F010A
:104620002F5F3F4F442737FD4095542F6FEF7FEFAB
:104630008FEF9FE30E946A2F2E873F87488B598B0D
:10464000DF91CF910895CF92DF92EF92FF920F9377
:104650001F93CF93DF938B01FA019C01261B370B2D
:10466000848595858217930784F0919581959109AA
:10467000281739076CF086819781289FE001299FD0
:10468000D00D389FD00D112405C0CFEFDFE702C059
:10469000C1E0D0E8442737FD4095542F82819381B3
:1046A000A481B581280F391F4A1F5B1F8685978516
:1046B000A089B18982179307A407B5075CF48283A8
:1046C0009383A483B583CC24CA94DC2CEC2C9FE385
:1046D000F92E21C0B095A095909581959F4FAF4F31
:1046E000BF4F281739074A075B075CF4828393831F
:1046F000A483B583CC24C394D12CE12C80ECF82E78
:104700000AC02283338344835583A085B1850E94E8
:10471000422F6B017C0180819181801B910BA285CE
:10472000B3858A9F90018B9F300D9A9F300D112485
:1047300011830083BE01882777FD8095982F6C0D2B
:104740007D1D8E1D9F1D8901222717FD2095322F6B
:10475000600F711F821F931F20E830E040E050E09F
:104760000E946A2F213080E838078FEF48075807EA
:1047700024F421E030E84FEF5FEFDA01C901811541
:1047800020E89207A105B10524F08FEF9FE7A0E094
:10479000B0E0DF91CF911F910F91FF90EF90DF90EC
:1047A000CF900895CF92DF92EF92FF920F931F93D5
:1047B000CF93DF930E946F1E8C010E947B1E24E624
:1047C000209FE001219FD00D1124C80FD91F0E9406
:1047D0008A1E880F991F8F5D9D4FFC01E590F49014
:1047E0000E948A1E880F991F8D5E9D4FFC010591C6
:1047F00014910E948A1E880F991F8B5F9D4FFC01A8
:10480000C590D4900E948A1E880F991F89509E4F90
:10481000FC0185919491EC16FD0618F4C017D107A0
:1048200030F0CC16DD0638F4C817D90720F481E043
:104830008093190202C010921902DF91CF911F914B
:104840000F91FF90EF90DF90CF90089580916E03CD
:10485000811103C04198429A0CC080916B03811171
:1048600003C0419A429805C088B194E0892788B96D
:10487000419A80916F03813021F498B1982798B9BB
:104880000895811101C0409A08950C9426240C9437
:10489000D2230E946A224B9906C08091FE018F5F4D
:1048A0008093FE0103C04B991092FE018091FE019E
:1048B000853010F00C94A81E08950C94BC208091B3
:1048C0006F03882311F05E9808955E9A08950C9402
:1048D0005F248FE19EE40197F1F700C0000040E102
:1048E00063E071E08AE093E00C941E2C0E94B61DF8
:1048F000399A3A9A389A2FEF89EF90E02150804008
:104900009040E1F700C000000E9492210E94F52132
:104910000E9469240E94531C20E030E040E053E4F0
:104920006091F8027091F9028091FA029091FB0275
:104930000E9470300E94D92F4B015C0120E030E0D2
:1049400040E053E46091F4027091F5028091F60228
:104950009091F7020E9470300E94D92F6B017C0168
:1049600020E030E040E053E46091F0027091F10209
:104970008091F2029091F3020E9470300E94D92F30
:10498000DC01CB0123E733E0A401B6010E94F6224B
:1049900020E030E040E053E46091040370910503AF
:1049A00080910603909107030E9470300E94D92FD6
:1049B0004B015C0120E030E040E053E460910003F3
:1049C0007091010380910203909103030E94703063
:1049D0000E94D92F6B017C0120E030E040E053E4DD
:1049E0006091FC027091FD028091FE029091FF02A5
:1049F0000E9470300E94D92FDC01CB0128E533E002
:104A0000A401B6010E94F6220E949A1C48E050E0E0
:104A100069E474E281E00E94AE1C47E050E06FE57B
:104A200077E282E00E94AE1C4AE050E06DE574E25D
:104A300083E00E94AE1C4FE050E067EF76E284E036
:104A40000E94AE1C45E050E065E474E285E00E94FF
:104A5000AE1C48E552E067E474E286E00E94AE1CBA
:104A60004CE251E067E674E287E00E94AE1C4EE142
:104A700050E06AEE72E287E00E94AE1C78940E94D9
:104A8000CB1CFDCF0F931F93CF93DF9380916B03CC
:104A9000882319F000E011E002C001E010E08091ED
:104AA0006E031F928F9388EA92E09F938F93C5E8DD
:104AB000D3E0DF93CF930E94663160EA73E28AE02D
:104AC00093E00E94F72A9E014AE060E08AE093E0CA
:104AD0000E94722A1F920F9380EA92E09F938F9315
:104AE000DF93CF930E9466319E0144E160E08AE04B
:104AF00093E00E94722A1F921F9388E992E09F938D
:104B00008F93DF93CF930E9466319E014EE160E068
:104B10008AE093E00E94722A809119021F928F937B
:104B20008EE892E09F938F93DF93CF930E9466313C
:104B30009E0148E260E08AE093E00E94722A809140
:104B4000FA011F928F9380E892E09F938F93DF93F7
:104B5000CF930E9466319E0142E360E08AE093E0D9
:104B60000E94722A8091FB011F928F9384E792E04A
:104B70009F938F93DF93CF930E9466318DB79EB73B
:104B800084960FB6F8949EBF0FBE8DBF9E014CE376
:104B900060E08AE093E00E94722A80916F031F9286
:104BA0008F938AE692E09F938F93DF93CF930E9437
:104BB00066319E014AE061E48AE093E00E94722A35
:104BC0008091F9011F928F9381E692E09F938F93DA
:104BD000DF93CF930E9466319E0144E161E48AE055
:104BE00093E00E94722A0E9497210E94D3300E9473
:104BF000D92F7F936F9387E592E09F938F93DF93F5
:104C0000CF930E9466319E014EE161E48AE093E019
:104C10000E94722A20910201822F992787FD909588
:104C20009F932F938CE492E09F938F93DF93CF9386
:104C30000E9466318DB79EB748960FB6F8949EBF16
:104C40000FBE8DBF9E0148E26DE38AE093E0DF91E5
:104C5000CF911F910F910C94722A8AE093E00E94E9
:104C60003B2C0E9442258AE093E00E94402C811157
:104C7000F8CF0895CF92DF92EF92FF920F93CF93E8
:104C8000DF9360E17EE18AE093E00E94F72A0E94D0
:104C90007B1EEC010E946F1EDF93CF939F938F9337
:104CA00084E492E09F938F93C5E8D3E0DF93CF93A2
:104CB0000E9466319E014FE060E48AE093E00E942A
:104CC000722A60E17EE18AE093E00E94F72A0E9466
:104CD000981E7C010E94911ED82EC92E0E94831E10
:104CE00097012053384F3F932F93CF92DF929F939A
:104CF0008F9386E392E09F938F93DF93CF930E94ED
:104D000066319E014EE36FE08AE093E00E94722AD2
:104D10000E9497210E94D3306B017C016AEE7AE2F7
:104D20008AE093E00E94F72AC701B6010E94D92FBA
:104D30007F936F9381E392E09F938F93DF93CF9361
:104D40000E9466319E0149E267E38AE093E00E9497
:104D5000722A8DB79EB748960FB6F8949EBF0FBEC5
:104D60008DBF80916A03882349F097E2E92E91E094
:104D7000F92E0AE224E245E065E008C087E9E82E62
:104D800080E0F82E04E220E24AE06AE08AE093E064
:104D90000E946327DF91CF910F91FF90EF90DF90FA
:104DA000CF9008958AE093E00E943B2C0E943A261F
:104DB0008AE093E00E94402C8111F8CF0895809101
:104DC0001A028F5F80931A02813029F0833041F4F8
:104DD0000E94D22605C08091090380FD0E942D26E5
:104DE00080911A02843011F410921A0208950C94E2
:104DF000DF260F93CF93C09102010FE021E140E243
:104E000060E48AE093E00E94842866EF72E08AE022
:104E100093E00E94F72A8091020187FDC1951F92BD
:104E2000CF938DEE91E09F938F9385E893E09F93CE
:104E30008F930E9444310F900F900F900F900F901E
:104E40000F9025E833E047E263E38AE093E0CF91F7
:104E50000F910C94722A8AE093E00E943B2C0E94EE
:104E6000F9268AE093E00E94402C8111F8CF089542
:104E70008091F601882301F180916E038823E1F08F
:104E800081E08093F9019091F701809102019923CB
:104E900049F08150809302018091FA018F5F8093E5
:104EA000FA0108C08F5F809302018091FB018F5F40
:104EB0008093FB010E942B271092F60108950E9417
:104EC00038270C94D2222F923F924F925F926F928A
:104ED0007F928F929F92AF92BF92CF92DF92EF928A
:104EE000FF920F931F93CF93DF9300D01F92CDB704
:104EF000DEB79B838A83362E142F322F702E398390
:104F00000E94AB283981882309F44FC087E0830FC2
:104F1000869586958695A82EB12C710E27E0320EC7
:104F2000832F869586958695882E912CE32D98E083
:104F3000899FE00D112449EF642E6E0E532C530E01
:104F40003770432E59EF252E230E2E0E171569F1BB
:104F50006701332D852D831B883080F0F601049185
:104F600022E0412F632F8A819B8139830E94572C35
:104F7000FFEFCF1ADF0A3981385FECCFF701E80D78
:104F8000F91D442071F0C490D62CC0FE06C0412FFC
:104F90006D2D8A819B810E944F2CD394C6942D1035
:104FA000F4CFEA0CFB1C1F5FD1CF0F900F900F9036
:104FB000DF91CF911F910F91FF90EF90DF90CF90F5
:104FC000BF90AF909F908F907F906F905F904F9029
:104FD0003F902F900895DF92EF92FF920F931F93CF
:104FE000CF93DF93EC01D62E142FF22EE0FE0DC0EE
:104FF000402F411B622F6D0D0E944F2C402F4D19E9
:10500000612F6F0DCE010E944F2CE1FE0EC0402F8C
:10501000411B6F2D6D19CE010E944F2C402F4D1951
:105020006F2D611BCE010E944F2CE3FE0EC0402F5E
:10503000410F6F2D6D0DCE010E944F2C402F4D0D55
:10504000612F6F0DCE010E944F2CE2FE15C0402F44
:10505000410F6F2D6D19CE010E944F2C402F4D0D29
:105060006F2D611BCE01DF91CF911F910F91FF90AA
:10507000EF90DF900C944F2CDF91CF911F910F9107
:10508000FF90EF90DF9008959F92AF92BF92CF92E2
:10509000DF92EF92FF920F931F93CF93DF93EC0178
:1050A000B62EA42E122F902EFF24F394F21AC22EA5
:1050B000C194CC0CE02E042F262F412F60E00E94DB
:1050C000EB27D12CD116A0F4F7FC04C01150C394E7
:1050D000C394FC0CD3948D2D880F8F5FF80EE92CB0
:1050E0000A2D2B2D412F6D2DCE010E94EB27EACFEB
:1050F000DF91CF911F910F91FF90EF90DF90CF90B4
:10510000BF90AF909F900895DF92EF92FF920F9320
:105110001F93CF93DF93EC01162FF42EE22ED02EA7
:1051200081E0820F282F220F481B681B022FCE011F
:105130000E94AB28882339F00D2D2E2D4F2D612F85
:10514000CE010E944428DF91CF911F910F91FF90D3
:10515000EF90DF9008950F93FC010150040F84A994
:1051600096A9941718F0081728F402C0081750F0F1
:10517000041740F42150260F83A995A9961720F40F
:10518000281720F480E007C0281720F481E02617B4
:1051900010F0F8CF81E00F910895BF92CF92DF9287
:1051A000EF92FF920F931F93CF93DF938C01EB014C
:1051B000B42E690180E14817B1F1841770F0EAE07C
:1051C0004E133CC042E0C8010E946F2D40ED52E0FA
:1051D000BE01C8010E94AE2D31C0F1E14F1731F17F
:1051E00085E148132BC0EA80FB8048EC52E0C801FF
:1051F0000E94AE2DF7014481406BBE01C8010E94A0
:105200009E2D41E0BE01C8010E94952DAE01B8015E
:10521000C7010E94AD2C882301F140E0BE01C80106
:105220000E94782D0BC04FEB52E002C044EB52E0DD
:10523000BE01C8010E94AE2D81E010C096014B2D29
:10524000BE01C801DF91CF911F910F91FF90EF90A8
:10525000DF90CF90BF900C94252D80E0DF91CF910F
:105260001F910F91FF90EF90DF90CF90BF90089526
:10527000FC01E60FF11D849190E0982F882731966C
:10528000E4918E0F911D0895FC01849108950E9470
:105290004429882311F0823011F486E0089583E0D8
:1052A000089580E0089566E00C94382968E00C9435
:1052B00038290A96FC01849108950B96FC0184918B
:1052C0000895AF92BF92CF92DF92EF92FF920F9329
:1052D0001F93CF93DF93EC01D62E0C811D81C80163
:1052E0000E944429E82EC8010E944729A82E21E0E7
:1052F000E21619F0CC24CA9402C06FE0C62EC80191
:105300000E945929F82EC8010E945D29B82EC801B3
:105310000E945629E0E6ED1540F4009731F098011F
:10532000280F391F51E6F52E10C0C8010E945329DD
:10533000F0E49801FD1538F4009729F0280F391F83
:1053400041E4F42E02C02F5E3F4FBD1440F4188A92
:105350001B8A1C8A198A1A8A80E090E04CC0BF140C
:10536000B0F34A2D50E0F90184918F3F19F42F5F7B
:105370003F4F3CC0FD1032C0A9014F5F5F4FEE2090
:1053800019F0F2E0EF1213C0F90184918B8BFA014E
:1053900044914C8BF9013396E491E88BF9013496F2
:1053A000E491E98BF9013596E491EA8B15C0982FC9
:1053B0009F7092509A8B82958F70898BFA014491DD
:1053C000842F8F708C8B42954F704B8BF9013296E6
:1053D000E491E295EF70E88BC9010DC0F9013296B6
:1053E000E491EC212E0F311D240F351FFB1409F41D
:1053F000AECFF394B8CFDF91CF911F910F91FF9073
:10540000EF90DF90CF90BF90AF9008954F925F9252
:105410007F928F929F92AF92BF92CF92DF92EF9244
:10542000FF920F931F93CF93DF931F92CDB7DEB7F9
:105430002C01162F742E622F0E9461296C01009797
:1054400009F43EC0F201848195810E944729F82E1B
:10545000F201838804899188910E8289781A172D28
:10546000101B282D412F692DC2010E94AB288823D3
:1054700021F1CF0CD11CF7E08F0E86948694869490
:10548000A82CB12C1715C9F0392D76018E2D8C1949
:10549000881578F4F701049120E0412F632FC201B1
:1054A00039830E94572CFFEFEF1AFF0A3981385FCA
:1054B000EDCFCA0CDB1C1F5FE5CFF201808901C074
:1054C00080E00F90DF91CF911F910F91FF90EF90AF
:1054D000DF90CF90BF90AF909F908F907F905F9024
:1054E0004F900895AF92BF92DF92EF92FF920F9389
:1054F0001F93CF93DF9300D0CDB7DEB78C01E62E9C
:10550000F42EDC015596ED91FC91569729833A8350
:105510000995F80E2981A22E3A81B32ED12CF501DE
:1055200021915F01222341F04F2D6E2DC8010E9471
:10553000062AE80ED80EF3CF8D2D0F900F90DF9135
:10554000CF911F910F91FF90EF90DF90BF90AF90A0
:105550000895DC0114968D919C911597009709F49C
:105560003FC057962C915797FC01211108C03596E2
:10557000E4915896EC935897FC013C9611C0213069
:1055800041F43F96E4915896EC935897FC0170963D
:1055900007C03D96E4915896EC935897FC013E96CF
:1055A000849159968C93599758968C91589799272E
:1055B00087FD909559962C915997821B910927FD4B
:1055C00093955A962C915A97203441F0829FC001AE
:1055D0001124F6E096958795FA95E1F75B968C9302
:1055E000089521E539E2FC01368B258B0895CF9390
:1055F000DF93EC018C819D818617970749F07D83AD
:105600006C83CE010E94A92A81E599E29E8B8D8B45
:10561000DF91CF9108951F93CF93DF93EC011D820B
:105620001C821F821E82198681E0888782E28A8717
:105630001F861E8680E090E02FEFFE01E80FF91F25
:1056400023A301968E309105C1F711E018A3CE0176
:105650000E94F12A1F8B188E198E80E48A8F1B8E70
:105660008EE69DE29AAB89ABDF91CF911F910895B1
:10567000DB01ED91FC910994EF92FF921F93CF9380
:10568000DF9300D0CDB7DEB77C01DC01D196ED9180
:10569000FC91D29782E069837A83099520E030E01B
:1056A0004AE069817A81C7010E94382B182FD701FF
:1056B000D196ED91FC91D29783E00995D701D196CF
:1056C000ED91FC91D29780E00995812F0F900F907A
:1056D000DF91CF911F91FF90EF9008950F931F934B
:1056E000CF93DF93EC018B01E9A9FAA982E0099538
:1056F000E9A9FAA981E0099520E030E044E1B80188
:10570000CE010E94382B9E012D5C3F4F47E1B8012E
:10571000CE010E94382BE9A9FAA980E0DF91CF9150
:105720001F910F910994FF920F931F93CF93DF93D3
:10573000EC018B01E9A9FAA982E00995E9A9FAA986
:1057400081E0099520E030E045E1B801CE010E94FA
:10575000382BF82E882341F09E012D5C3F4F47E106
:10576000B801CE010E94382BE9A9FAA980E0099579
:105770008F2DDF91CF911F910F91FF900895FC0124
:10578000448F258F9C01245E3F4F42E30C94382BBD
:10579000CF93DF931F92CDB7DEB79E012F5F3F4FB0
:1057A00046E40E94382B89810F90DF91CF910895B4
:1057B000CF93DF931F92CDB7DEB79E012F5F3F4F90
:1057C00047E40E94382B89810F90DF91CF91089593
:1057D00020E030E048E40C94382BCF93DF93EC01C9
:1057E0006A817B810E94C82B88836A817B81CE017C
:1057F0000E94D82B89836A817B81CE010E94E82B8D
:105800008B879E012D5C3F4F6A817B8147E1CE01F2
:10581000DF91CF910C94382BCF93DF93EC016A8109
:105820007B810E943C2B882329F0CE010E94ED2B26
:1058300081E001C080E0DF91CF910895EF92FF9267
:105840000F931F93CF93DF931F92CDB7DEB77C01E9
:105850008B0149830E940B2BF7011383028349813B
:1058600046A7C7010F90DF91CF911F910F91FF9035
:10587000EF900C940C2CFC01628173810C946E2BC4
:10588000CF93DF93EC01EE85FF85309709F0099502
:105890006A817B81CE01DF91CF910C94932B362FBF
:1058A000242FFC0162817381432F0C94BF2B0F9333
:1058B000FC0182819381648F458F278F068F9F0122
:1058C000245E3F4F4BE3BC01CF010F910C94382B6A
:1058D000DC011696ED91FC91179715968C919F011E
:1058E000280F311DC9011192E817F907E1F7089552
:1058F000FC0191E08381861708F490E021E04617CF
:1059000008F020E0322F392B81E05281451708F44E
:1059100080E083239223892B0895DC01FB01108210
:1059200012968C911297818315968C9115978150C0
:10593000828313968C9183830895FB014181238197
:10594000213029F0233031F468EF640F04C0642F54
:10595000485F01C0642F0C94782CFC01CB01BA0184
:105960002681378145810C94A72DDC011696ED9197
:10597000FC91179712968C91481B477081E090E03C
:10598000042E01C0880F0A94EAF7E60FF11D30815A
:10599000222311F0832B02C08095832380830895F6
:1059A000FB014181DC0112962C911297421768F09D
:1059B00013962C911397241740F0608115962C9123
:1059C000621718F424810C94B52C0895CF92DF92BD
:1059D000FF920F931F93CF93DF9300D0CDB7DEB725
:1059E0008C016B01FB01F2808381813039F070F012
:1059F000823039F0833041F020E001C021E030E016
:105A000007C020E03FEF04C02FEFF9CF20E031E0E6
:105A1000F7FE08C0B601C80129833A830E94D02C42
:105A20003A812981F6018081830F80838181820FF1
:105A30008183FF0C69F70F900F90DF91CF911F9139
:105A40000F91FF90DF90CF9008950F931F93CF9306
:105A5000DF938901FB01C281D3814233F9F068F4FD
:105A6000453109F1473141F1443181F5CE010E94C0
:105A7000682CCE010E94252F29C0463411F14734ED
:105A800011F14B3319F5B901CE010E949D2C8823E9
:105A9000E9F0B801CE010E94E62C18C0B901CE0190
:105AA0000E94D02C13C0CE010E942C2F882381F09D
:105AB000CE010E94682C0AC0B901CE010E948D2C33
:105AC00005C08D8101C08981F801808381E001C01A
:105AD00080E0DF91CF911F910F9108950895DB0130
